{"abi":[{"type":"constructor","inputs":[],"stateMutability":"nonpayable"},{"type":"function","name":"LOCK_PERIOD","inputs":[],"outputs":[{"name":"","type":"uint256","internalType":"uint256"}],"stateMutability":"view"},{"type":"function","name":"canWithdraw","inputs":[{"name":"token","type":"address","internalType":"address"},{"name":"amount","type":"uint256","internalType":"uint256"}],"outputs":[{"name":"","type":"bool","internalType":"bool"}],"stateMutability":"view"},{"type":"function","name":"deposit","inputs":[{"name":"token","type":"address","internalType":"address"},{"name":"amount","type":"uint256","internalType":"uint256"}],"outputs":[],"stateMutability":"nonpayable"},{"type":"function","name":"deposits","inputs":[{"name":"","type":"address","internalType":"address"},{"name":"","type":"address","internalType":"address"}],"outputs":[{"name":"amount","type":"uint256","internalType":"uint256"},{"name":"unlockTime","type":"uint256","internalType":"uint256"}],"stateMutability":"view"},{"type":"function","name":"executeTokenWithdrawalRequest","inputs":[{"name":"token","type":"address","internalType":"address"},{"name":"paymasterId","type":"address","internalType":"address"}],"outputs":[],"stateMutability":"nonpayable"},{"type":"function","name":"getDeposit","inputs":[{"name":"token","type":"address","internalType":"address"},{"name":"user","type":"address","internalType":"address"}],"outputs":[{"name":"amount","type":"uint256","internalType":"uint256"},{"name":"unlockTime","type":"uint256","internalType":"uint256"}],"stateMutability":"view"},{"type":"function","name":"owner","inputs":[],"outputs":[{"name":"","type":"address","internalType":"address"}],"stateMutability":"view"},{"type":"function","name":"renounceOwnership","inputs":[],"outputs":[],"stateMutability":"nonpayable"},{"type":"function","name":"submitTokenWithdrawalRequest","inputs":[{"name":"token","type":"address","internalType":"address"},{"name":"withdrawAddress","type":"address","internalType":"address"},{"name":"amount","type":"uint256","internalType":"uint256"}],"outputs":[],"stateMutability":"nonpayable"},{"type":"function","name":"transferOwnership","inputs":[{"name":"newOwner","type":"address","internalType":"address"}],"outputs":[],"stateMutability":"nonpayable"},{"type":"function","name":"withdraw","inputs":[{"name":"token","type":"address","internalType":"address"},{"name":"amount","type":"uint256","internalType":"uint256"}],"outputs":[],"stateMutability":"nonpayable"},{"type":"event","name":"Deposited","inputs":[{"name":"token","type":"address","indexed":true,"internalType":"address"},{"name":"user","type":"address","indexed":true,"internalType":"address"},{"name":"amount","type":"uint256","indexed":false,"internalType":"uint256"}],"anonymous":false},{"type":"event","name":"LockPeriodUpdated","inputs":[{"name":"newPeriod","type":"uint256","indexed":false,"internalType":"uint256"}],"anonymous":false},{"type":"event","name":"OwnershipTransferred","inputs":[{"name":"previousOwner","type":"address","indexed":true,"internalType":"address"},{"name":"newOwner","type":"address","indexed":true,"internalType":"address"}],"anonymous":false},{"type":"event","name":"WithdrawalRequestSubmitted","inputs":[{"name":"withdrawAddress","type":"address","indexed":true,"internalType":"address"},{"name":"token","type":"address","indexed":true,"internalType":"address"},{"name":"amount","type":"uint256","indexed":true,"internalType":"uint256"},{"name":"actor","type":"address","indexed":false,"internalType":"address"}],"anonymous":false},{"type":"event","name":"Withdrawn","inputs":[{"name":"token","type":"address","indexed":true,"internalType":"address"},{"name":"user","type":"address","indexed":true,"internalType":"address"},{"name":"amount","type":"uint256","indexed":false,"internalType":"uint256"}],"anonymous":false},{"type":"error","name":"AddressEmptyCode","inputs":[{"name":"target","type":"address","internalType":"address"}]},{"type":"error","name":"AddressInsufficientBalance","inputs":[{"name":"account","type":"address","internalType":"address"}]},{"type":"error","name":"FailedInnerCall","inputs":[]},{"type":"error","name":"OwnableInvalidOwner","inputs":[{"name":"owner","type":"address","internalType":"address"}]},{"type":"error","name":"OwnableUnauthorizedAccount","inputs":[{"name":"account","type":"address","internalType":"address"}]},{"type":"error","name":"ReentrancyGuardReentrantCall","inputs":[]},{"type":"error","name":"SafeERC20FailedOperation","inputs":[{"name":"token","type":"address","internalType":"address"}]}],"bytecode":{"object":"0x608080604052346078576001600055331560625760018054336001600160a01b0319821681179092556001600160a01b03167f8be0079c531659141344cd1fd0a4f28419497f9722a3daafe3b4186f6b6457e0600080a3610c00908161007e8239f35b631e4fbdf760e01b600052600060045260246000fd5b600080fdfe608080604052600436101561001357600080fd5b60003560e01c9081631820cabb146108c35750806347e7ef24146107b857806360c8567314610651578063715018a6146105f45780638da5cb5b146105cb5780638f601f661461056c578063c35082a9146104f8578063e2ab7cf214610475578063f2fde38b146103eb578063f3fef3a3146102e65763fe6ab7211461009857600080fd5b346102e15760403660031901126102e1576100b16108df565b6100b96108f5565b906100c2610a5b565b6001600160a01b0316906100d782151561090b565b60018060a01b0316908160005260036020526040600020604051906100fb826109de565b80546001600160a01b03908116835260018201546020840190815260028301549091166040840190815260039092015460609093018381529092156102a5575162015180810180911161028f57421061024a578260005260026020526040600020846000526020526040600020915190825491828111600014610244575081945b85156101ff577fd1c19fbcd4551a5edfb66d43d2e337c04837afda3482b42bdf569a8fccdae5fb936101b087602095610a4e565b905560005260038252600060036040822082815582600182015582600282015501556101e68560018060a01b0383511686610aa6565b516040519485526001600160a01b031693a36001600055005b60405162461bcd60e51b815260206004820152601b60248201527f43616e6e6f74207769746864726177207a65726f20616d6f756e7400000000006044820152606490fd5b9461017c565b60405162461bcd60e51b815260206004820152601760248201527f52657175657374206e6f7420636c6561726564207965740000000000000000006044820152606490fd5b634e487b7160e01b600052601160045260246000fd5b60405162461bcd60e51b8152602060048201526014602482015273139bc81c995c5d595cdd081cdd589b5a5d1d195960621b6044820152606490fd5b600080fd5b346102e15760403660031901126102e1576102ff6108df565b6024359061030b610a5b565b6001600160a01b031661031f81151561090b565b61032a82151561094f565b6000818152600260209081526040808320338452909152902080546103518482101561099b565b600182015442106103a6578361036691610a4e565b9055610373823383610aa6565b6040519182527fd1c19fbcd4551a5edfb66d43d2e337c04837afda3482b42bdf569a8fccdae5fb60203393a36001600055005b60405162461bcd60e51b815260206004820152601760248201527f546f6b656e7320617265207374696c6c206c6f636b65640000000000000000006044820152606490fd5b346102e15760203660031901126102e1576104046108df565b61040c610a7d565b6001600160a01b0316801561045f57600180546001600160a01b0319811683179091556001600160a01b03167f8be0079c531659141344cd1fd0a4f28419497f9722a3daafe3b4186f6b6457e0600080a3005b631e4fbdf760e01b600052600060045260246000fd5b346102e15760403660031901126102e1576001600160a01b036104966108df565b166000526002602052604060002060018060a01b03331660005260205260208060406000206040516104c781610a10565b600182549283835201549283910152602435111590816104ed575b506040519015158152f35b9050421015826104e2565b346102e15760403660031901126102e1576105116108df565b6105196108f5565b9060018060a01b0316600052600260205260406000209060018060a01b03166000526020526040806000206020825161055181610a10565b60018354938483520154918291015282519182526020820152f35b346102e15760403660031901126102e1576105856108df565b61058d6108f5565b9060018060a01b0316600052600260205260406000209060018060a01b03166000526020526040806000206001815491015482519182526020820152f35b346102e15760003660031901126102e1576001546040516001600160a01b039091168152602090f35b346102e15760003660031901126102e15761060d610a7d565b600180546001600160a01b031981169091556000906001600160a01b03167f8be0079c531659141344cd1fd0a4f28419497f9722a3daafe3b4186f6b6457e08280a3005b346102e15760603660031901126102e15761066a6108df565b6106726108f5565b604435916001600160a01b03169061068b82151561090b565b6001600160a01b03168015610773576106a583151561094f565b816000526002602052604060002060018060a01b0333166000526020526106d383604060002054101561099b565b6040516106df816109de565b828152602080820185815260408084018581524260608601908152336000818152600380885290859020975188546001600160a01b03199081166001600160a01b03928316178a55965160018a015593516002890180549097169416939093179094555194019390935591519182527f71534e8473fac722896ee80a1461b3bb937286d0efe757ab919774fadeb026ce91a4005b60405162461bcd60e51b815260206004820152601f60248201527f43616e6e6f7420776974686472617720746f207a65726f2061646472657373006044820152606490fd5b346102e15760403660031901126102e1576107d16108df565b602435906107dd610a5b565b6001600160a01b03166107f181151561090b565b6107fc82151561094f565b6000818152600260209081526040808320338452909152902080548381019190821061028f575562015180420180421161028f57816000526002602052604060002060018060a01b0333166000526020526001604060002001556108906040516323b872dd60e01b60208201523360248201523060448201528360648201526064815261088a608482610a2c565b82610ae8565b6040519182527f8752a472e571a816aea92eec8dae9baf628e840f4929fbcc2d155e6233ff68a760203393a36001600055005b346102e15760003660031901126102e157806201518060209252f35b600435906001600160a01b03821682036102e157565b602435906001600160a01b03821682036102e157565b1561091257565b60405162461bcd60e51b8152602060048201526015602482015274496e76616c696420746f6b656e206164647265737360581b6044820152606490fd5b1561095657565b60405162461bcd60e51b815260206004820152601d60248201527f416d6f756e74206d7573742062652067726561746572207468616e20300000006044820152606490fd5b156109a257565b60405162461bcd60e51b8152602060048201526014602482015273496e73756666696369656e742062616c616e636560601b6044820152606490fd5b6080810190811067ffffffffffffffff8211176109fa57604052565b634e487b7160e01b600052604160045260246000fd5b6040810190811067ffffffffffffffff8211176109fa57604052565b90601f8019910116810190811067ffffffffffffffff8211176109fa57604052565b9190820391821161028f57565b600260005414610a6c576002600055565b633ee5aeb560e01b60005260046000fd5b6001546001600160a01b03163303610a9157565b63118cdaa760e01b6000523360045260246000fd5b60405163a9059cbb60e01b60208201526001600160a01b039092166024830152604480830193909352918152610ae691610ae1606483610a2c565b610ae8565b565b81516001600160a01b0390911691600091829160200182855af13d15610b93573d67ffffffffffffffff81116109fa57610b459160405191610b346020601f19601f8401160184610a2c565b82523d6000602084013e5b83610b9f565b8051908115159182610b6f575b5050610b5b5750565b635274afe760e01b60005260045260246000fd5b81925090602091810103126102e157602001518015908115036102e1573880610b52565b610b4590606090610b3f565b90610bc55750805115610bb457805190602001fd5b630a12f52160e11b60005260046000fd5b81511580610bf7575b610bd6575090565b639996b31560e01b60009081526001600160a01b0391909116600452602490fd5b50803b15610bce56","linkReferences":{}},"methodIdentifiers":{"LOCK_PERIOD()":"1820cabb","canWithdraw(address,uint256)":"e2ab7cf2","deposit(address,uint256)":"47e7ef24","deposits(address,address)":"8f601f66","executeTokenWithdrawalRequest(address,address)":"fe6ab721","getDeposit(address,address)":"c35082a9","owner()":"8da5cb5b","renounceOwnership()":"715018a6","submitTokenWithdrawalRequest(address,address,uint256)":"60c85673","transferOwnership(address)":"f2fde38b","withdraw(address,uint256)":"f3fef3a3"},"id":3}