{"abi":[{"type":"constructor","inputs":[{"name":"owner","type":"address","internalType":"address"},{"name":"_entryPoint","type":"address","internalType":"contract IEntryPoint"},{"name":"_priceMarkup","type":"uint256","internalType":"uint256"},{"name":"_pyth","type":"address","internalType":"address"},{"name":"_usdc","type":"address","internalType":"address"},{"name":"_ethUsdPriceId","type":"bytes32","internalType":"bytes32"},{"name":"_usdcUsdPriceId","type":"bytes32","internalType":"bytes32"},{"name":"unaccountedGasArg","type":"uint256","internalType":"uint256"}],"stateMutability":"nonpayable"},{"type":"receive","stateMutability":"payable"},{"type":"function","name":"addStake","inputs":[{"name":"unstakeDelaySec","type":"uint32","internalType":"uint32"}],"outputs":[],"stateMutability":"payable"},{"type":"function","name":"cancelOwnershipHandover","inputs":[],"outputs":[],"stateMutability":"payable"},{"type":"function","name":"completeOwnershipHandover","inputs":[{"name":"pendingOwner","type":"address","internalType":"address"}],"outputs":[],"stateMutability":"payable"},{"type":"function","name":"deposit","inputs":[],"outputs":[],"stateMutability":"payable"},{"type":"function","name":"entryPoint","inputs":[],"outputs":[{"name":"","type":"address","internalType":"contract IEntryPoint"}],"stateMutability":"view"},{"type":"function","name":"ethUsdPriceId","inputs":[],"outputs":[{"name":"","type":"bytes32","internalType":"bytes32"}],"stateMutability":"view"},{"type":"function","name":"getDeposit","inputs":[],"outputs":[{"name":"","type":"uint256","internalType":"uint256"}],"stateMutability":"view"},{"type":"function","name":"owner","inputs":[],"outputs":[{"name":"result","type":"address","internalType":"address"}],"stateMutability":"view"},{"type":"function","name":"ownershipHandoverExpiresAt","inputs":[{"name":"pendingOwner","type":"address","internalType":"address"}],"outputs":[{"name":"result","type":"uint256","internalType":"uint256"}],"stateMutability":"view"},{"type":"function","name":"postOp","inputs":[{"name":"mode","type":"uint8","internalType":"enum IPaymaster.PostOpMode"},{"name":"context","type":"bytes","internalType":"bytes"},{"name":"actualGasCost","type":"uint256","internalType":"uint256"},{"name":"actualUserOpFeePerGas","type":"uint256","internalType":"uint256"}],"outputs":[],"stateMutability":"nonpayable"},{"type":"function","name":"priceMarkup","inputs":[],"outputs":[{"name":"","type":"uint256","internalType":"uint256"}],"stateMutability":"view"},{"type":"function","name":"pyth","inputs":[],"outputs":[{"name":"","type":"address","internalType":"address"}],"stateMutability":"view"},{"type":"function","name":"renounceOwnership","inputs":[],"outputs":[],"stateMutability":"payable"},{"type":"function","name":"requestOwnershipHandover","inputs":[],"outputs":[],"stateMutability":"payable"},{"type":"function","name":"setUnaccountedGas","inputs":[{"name":"newUnaccountedGas","type":"uint256","internalType":"uint256"}],"outputs":[],"stateMutability":"payable"},{"type":"function","name":"transferOwnership","inputs":[{"name":"newOwner","type":"address","internalType":"address"}],"outputs":[],"stateMutability":"payable"},{"type":"function","name":"unaccountedGas","inputs":[],"outputs":[{"name":"","type":"uint256","internalType":"uint256"}],"stateMutability":"view"},{"type":"function","name":"unlockStake","inputs":[],"outputs":[],"stateMutability":"nonpayable"},{"type":"function","name":"usdc","inputs":[],"outputs":[{"name":"","type":"address","internalType":"address"}],"stateMutability":"view"},{"type":"function","name":"usdcUsdPriceId","inputs":[],"outputs":[{"name":"","type":"bytes32","internalType":"bytes32"}],"stateMutability":"view"},{"type":"function","name":"validatePaymasterUserOp","inputs":[{"name":"userOp","type":"tuple","internalType":"struct PackedUserOperation","components":[{"name":"sender","type":"address","internalType":"address"},{"name":"nonce","type":"uint256","internalType":"uint256"},{"name":"initCode","type":"bytes","internalType":"bytes"},{"name":"callData","type":"bytes","internalType":"bytes"},{"name":"accountGasLimits","type":"bytes32","internalType":"bytes32"},{"name":"preVerificationGas","type":"uint256","internalType":"uint256"},{"name":"gasFees","type":"bytes32","internalType":"bytes32"},{"name":"paymasterAndData","type":"bytes","internalType":"bytes"},{"name":"signature","type":"bytes","internalType":"bytes"}]},{"name":"userOpHash","type":"bytes32","internalType":"bytes32"},{"name":"maxCost","type":"uint256","internalType":"uint256"}],"outputs":[{"name":"context","type":"bytes","internalType":"bytes"},{"name":"validationData","type":"uint256","internalType":"uint256"}],"stateMutability":"nonpayable"},{"type":"function","name":"withdrawERC20","inputs":[{"name":"token","type":"address","internalType":"contract IERC20"},{"name":"target","type":"address","internalType":"address"},{"name":"amount","type":"uint256","internalType":"uint256"}],"outputs":[],"stateMutability":"payable"},{"type":"function","name":"withdrawERC20Full","inputs":[{"name":"token","type":"address","internalType":"contract IERC20"},{"name":"target","type":"address","internalType":"address"}],"outputs":[],"stateMutability":"payable"},{"type":"function","name":"withdrawMultipleERC20","inputs":[{"name":"token","type":"address[]","internalType":"contract IERC20[]"},{"name":"target","type":"address","internalType":"address"},{"name":"amount","type":"uint256[]","internalType":"uint256[]"}],"outputs":[],"stateMutability":"payable"},{"type":"function","name":"withdrawStake","inputs":[{"name":"withdrawAddress","type":"address","internalType":"address payable"}],"outputs":[],"stateMutability":"nonpayable"},{"type":"function","name":"withdrawTo","inputs":[{"name":"withdrawAddress","type":"address","internalType":"address payable"},{"name":"amount","type":"uint256","internalType":"uint256"}],"outputs":[],"stateMutability":"nonpayable"},{"type":"event","name":"OwnershipHandoverCanceled","inputs":[{"name":"pendingOwner","type":"address","indexed":true,"internalType":"address"}],"anonymous":false},{"type":"event","name":"OwnershipHandoverRequested","inputs":[{"name":"pendingOwner","type":"address","indexed":true,"internalType":"address"}],"anonymous":false},{"type":"event","name":"OwnershipTransferred","inputs":[{"name":"oldOwner","type":"address","indexed":true,"internalType":"address"},{"name":"newOwner","type":"address","indexed":true,"internalType":"address"}],"anonymous":false},{"type":"event","name":"PaidGasInTokens","inputs":[{"name":"userOpSender","type":"address","indexed":true,"internalType":"address"},{"name":"tokenCharge","type":"uint256","indexed":false,"internalType":"uint256"},{"name":"tokenPrice","type":"uint256","indexed":false,"internalType":"uint256"},{"name":"userOpHash","type":"bytes32","indexed":true,"internalType":"bytes32"}],"anonymous":false},{"type":"event","name":"TokensRefunded","inputs":[{"name":"userOpSender","type":"address","indexed":true,"internalType":"address"},{"name":"token","type":"address","indexed":true,"internalType":"address"},{"name":"refundAmount","type":"uint256","indexed":false,"internalType":"uint256"},{"name":"userOpHash","type":"bytes32","indexed":true,"internalType":"bytes32"}],"anonymous":false},{"type":"event","name":"TokensWithdrawn","inputs":[{"name":"token","type":"address","indexed":true,"internalType":"address"},{"name":"to","type":"address","indexed":true,"internalType":"address"},{"name":"amount","type":"uint256","indexed":true,"internalType":"uint256"},{"name":"actor","type":"address","indexed":false,"internalType":"address"}],"anonymous":false},{"type":"event","name":"UpdatedUnaccountedGas","inputs":[{"name":"oldUnaccountedGas","type":"uint256","indexed":false,"internalType":"uint256"},{"name":"newUnaccountedGas","type":"uint256","indexed":false,"internalType":"uint256"}],"anonymous":false},{"type":"error","name":"AlreadyInitialized","inputs":[]},{"type":"error","name":"CanNotWithdrawToZeroAddress","inputs":[]},{"type":"error","name":"NewOwnerIsZeroAddress","inputs":[]},{"type":"error","name":"NoHandoverRequest","inputs":[]},{"type":"error","name":"ReentrancyGuardReentrantCall","inputs":[]},{"type":"error","name":"TokensAndAmountsLengthMismatch","inputs":[]},{"type":"error","name":"UnaccountedGasTooHigh","inputs":[]},{"type":"error","name":"Unauthorized","inputs":[]}],"bytecode":{"object":"0x60a0806040523461020d576101008161191c80380380916100208285610212565b83398101031261020d576100338161024b565b60208201519091906001600160a01b0381169081810361020d57604083015161005e6060850161024b565b9061006b6080860161024b565b926024602060a08801519660e060c08a01519901519960018060a01b031680638b78c6d8195560007f8be0079c531659141344cd1fd0a4f28419497f9722a3daafe3b4186f6b6457e08180a36040516301ffc9a760e01b815263122a0e9b60e31b600482015292839182905afa908115610201576000916101bf575b501561017a57608052600160005560025560018060a01b031660018060a01b0319600354161760035560018060a01b031660018060a01b031960045416176004556005556006556001556040516116bc9081610260823960805181818161025d01528181610304015281816103af01528181610437015281816104a101528181611154015281816111ec01526114030152f35b60405162461bcd60e51b815260206004820152601e60248201527f49456e747279506f696e7420696e74657266616365206d69736d6174636800006044820152606490fd5b6020813d6020116101f9575b816101d860209383610212565b810103126101f557519081151582036101f25750386100e7565b80fd5b5080fd5b3d91506101cb565b6040513d6000823e3d90fd5b600080fd5b601f909101601f19168101906001600160401b0382119082101761023557604052565b634e487b7160e01b600052604160045260246000fd5b51906001600160a01b038216820361020d5756fe6080604052600436101561001b575b361561001957600080fd5b005b6000803560e01c80630396cb60146111c4578063205c28781461112f57806325692962146110e45780633e04619d146110c65780633e413bee1461109d57806344004cc11461106457806352b7512c1461094157806354d1f13d146108fb5780635deef2aa14610847578063617d057a146107775780636a18ec4914610759578063715018a61461070e57806373acf542146106a35780637c627b211461051b5780638da5cb5b146104ee578063ab94cad7146104d0578063b0d691fe1461048b578063bb9fe6bf1461041b578063c23a5cea1461038a578063c399ec88146102d7578063d0e30db01461024e578063e97ffafc14610230578063f04e283e146101e2578063f2fde38b146101a3578063f98d06f01461017a5763fee81cf414610145575061000e565b346101775760203660031901126101775761015e611263565b9063389a75e1600c5252602080600c2054604051908152f35b80fd5b50346101775780600319360112610177576003546040516001600160a01b039091168152602090f35b506020366003190112610177576101b8611263565b6101c061135d565b8060601b156101d5576101d290611628565b80f35b637448fbae82526004601cfd5b506020366003190112610177576101f7611263565b6101ff61135d565b63389a75e1600c528082526020600c20805442116102235790826101d29255611628565b636f5e881883526004601cfd5b50346101775780600319360112610177576020600654604051908152f35b508060031936011261017757807f00000000000000000000000000000000000000000000000000000000000000006001600160a01b0316803b156102d457816024916040519283809263b760faf960e01b825230600483015234905af180156102c9576102b85750f35b816102c291611300565b6101775780f35b6040513d84823e3d90fd5b50fd5b50346101775780600319360112610177576040516370a0823160e01b8152306004820152906020826024817f00000000000000000000000000000000000000000000000000000000000000006001600160a01b03165afa90811561037e5790610346575b602090604051908152f35b506020813d602011610376575b8161036060209383611300565b81010312610371576020905161033b565b600080fd5b3d9150610353565b604051903d90823e3d90fd5b503461017757602036600319011261017757806103a5611263565b6103ad61135d565b7f00000000000000000000000000000000000000000000000000000000000000006001600160a01b031690813b156104175760405163611d2e7560e11b81526001600160a01b0390911660048201529082908290602490829084905af180156102c9576102b85750f35b5050fd5b503461017757806003193601126101775761043461135d565b807f00000000000000000000000000000000000000000000000000000000000000006001600160a01b0316803b156102d45781809160046040518094819363bb9fe6bf60e01b83525af180156102c9576102b85750f35b50346101775780600319360112610177576040517f00000000000000000000000000000000000000000000000000000000000000006001600160a01b03168152602090f35b50346101775780600319360112610177576020600154604051908152f35b5034610177578060031936011261017757638b78c6d819546040516001600160a01b039091168152602090f35b50346101775760803660031901126101775760036004351015610177576024356001600160401b03811161069f573660238201121561069f5780600401356001600160401b03811161069b57810136602482011161069b5760a09061057e611401565b8290031261069f5760248101356001600160a01b0381169081900361069b577f95d95a2d9fa5d396698cdff2b3a190547e2deebbb4bd5b31f6ad8a19f7f0e700604083604460849501359060648101359069d3c21bcecceda100000061061b8361061661060d6105f960a48701359c8d9701356044356115fa565b61060760643560015461158c565b906115fa565b6002549061158c565b61158c565b049283808211610637575b50505082519182526020820152a380f35b6106409161161b565b60045461065990829089906001600160a01b0316611666565b60045485519182526001600160a01b03169087907f51763f8537bd44ee07b99340cad75354ee7553f96025d16c7384d40144e8c6a990602090a4853883610626565b8280fd5b5080fd5b506020366003190112610177576004356106bb61135d565b620186a081116106ff5760407f2fcf69360e1d372881528eb806fae2b9226a258176570a4aef1d87cb811b0eb291600154908060015582519182526020820152a180f35b63313db2a560e11b8252600482fd5b50806003193601126101775761072261135d565b80638b78c6d819547f8be0079c531659141344cd1fd0a4f28419497f9722a3daafe3b4186f6b6457e08280a380638b78c6d8195580f35b50346101775780600319360112610177576020600554604051908152f35b506060366003190112610177576004356001600160401b03811161069f576107a39036906004016112d0565b6107ab611279565b906044356001600160401b038111610843576107cb9036906004016112d0565b916107d461135d565b6107dc61137a565b82810361083457855b8181106107f457866001815580f35b6107ff818388611337565b35906001600160a01b03821682036108305761082a60019287610823848989611337565b359161139c565b016107e5565b8780fd5b630483384360e11b8652600486fd5b8480fd5b5060403660031901126101775761085c611263565b610864611279565b9061086d61135d565b61087561137a565b6040516370a0823160e01b8152306004820152916020836024816001600160a01b0386165afa9182156108f05784926108ba575b6108b3935061139c565b6001815580f35b91506020833d6020116108e8575b816108d560209383611300565b81010312610371576108b39251916108a9565b3d91506108c8565b6040513d86823e3d90fd5b50806003193601126101775763389a75e1600c52338152806020600c2055337ffa7b8eab7da67f412cc9575ed43464468f9bfbae89d1675917346ca6d8fe3c928280a280f35b503461017757606036600319011261017757600435906001600160401b038211610177578160040190610120600319843603011261017757610981611401565b60e48301916109908382611470565b80603495929511610f585784019360208186036033190112610f58576034810135906001600160401b038211610843570184605382011215610f58576034810135946001600160401b038611611050578560051b91604051966109f66020850189611300565b87526020870160206034829584010101918383116108305760548101915b838310610fb9575050505050845115610fa5576000610a56610a648293516040519283916305f3bfab60e11b602084015260206024840152604483019061128f565b03601f198101835282611300565b6020815191016a636f6e736f6c652e6c6f675afa5060035460405163d47eed4560e01b815292906001600160a01b031660208480610aa589600483016114a2565b0381845afa938415610f9a578594610f66575b50604095600080610b09610b1d8a51610ad18c82611300565b600981526875706461746546656560b81b60208201528b519283916309710a9d60e41b60208401528d6024840152606483019061128f565b8a604483015203601f198101835282611300565b6020815191016a636f6e736f6c652e6c6f675afa50813b15610e8557610b5b859287928951948580948193631df3cbc560e31b8352600483016114a2565b03925af18015610f5c57908591610f43575b505060018060a01b036003541660055486519063052571af60e51b82526004820152603c6024820152608081604481855afa908115610f1a578691610f24575b506080600654604489518095819363052571af60e51b83526004830152603c60248301525afa918215610f1a578692610ee9575b506001600160401b0381511690670de0b6b3a7640000820291808304670de0b6b3a76400001490151715610ed55790610c2d60ff610c278a610c3395015160030b6115b5565b166115c9565b906115da565b906001600160401b0381511690670de0b6b3a7640000820291808304670de0b6b3a76400001490151715610ed557610c7d9291610c2d60ff610c278b610c2d95015160030b6115b5565b9060018060a01b036004541691865163313ce56760e01b8152602081600481875afa908115610ecb578791610e89575b50610ccb91610cbe610cc4926115c9565b9061158c565b9382611470565b603411610e85576024013560801c6001600160801b03608489013516016001600160801b038111610e71576001600160801b03600a911602966001600160801b038816978803610e7157908360c4819301356001600160801b03169889610d319161158c565b606490049886610d438b6044356115fa565b90610d4d916115fa565b9060015490610d5b9161158c565b610d64916115fa565b600254610d709161158c565b90610d7a9161158c565b69d3c21bcecceda1000000900492610d9182611607565b9088519185606052308a5260601b602c526323b872dd60601b600c528780825a602093606492601c92f1908189516001141615610e4b575b5050610df99392610dec670de0b6b3a764000093610df2938a6060528b52611607565b9961158c565b049061161b565b84519560018060a01b03166020870152848601526060850152608084015260243560a084015260a08352610e2e60c084611300565b610e41825193838594855284019061128f565b9060208301520390f35b92935090913b153d171015610e64579083913880610dc9565b637939f42486526004601cfd5b634e487b7160e01b86526011600452602486fd5b8580fd5b90506020813d602011610ec3575b81610ea460209383611300565b81010312610ebf575160ff81168103610ebf57610ccb610cad565b8680fd5b3d9150610e97565b88513d89823e3d90fd5b634e487b7160e01b87526011600452602487fd5b610f0c91925060803d608011610f13575b610f048183611300565b810190611502565b9038610be1565b503d610efa565b87513d88823e3d90fd5b610f3d915060803d608011610f1357610f048183611300565b38610bad565b81610f4d91611300565b610f58578338610b6d565b8380fd5b86513d87823e3d90fd5b9093506020813d602011610f92575b81610f8260209383611300565b8101031261037157519238610ab8565b3d9150610f75565b6040513d87823e3d90fd5b634e487b7160e01b84526032600452602484fd5b82356001600160401b03811161104c5760349083010185603f8201121561104c5760208101356001600160401b0381116110385760405191611005601f8301601f191660200184611300565b818352604081830101881061103457918b60208381969460408397018386013783010152815201920191610a14565b8b80fd5b634e487b7160e01b8b52604160045260248bfd5b8980fd5b634e487b7160e01b85526041600452602485fd5b506060366003190112610177576108b361107c611263565b611084611279565b61108c61135d565b61109461137a565b6044359161139c565b50346101775780600319360112610177576004546040516001600160a01b039091168152602090f35b50346101775780600319360112610177576020600254604051908152f35b50806003193601126101775763389a75e1600c523381526202a30042016020600c2055337fdbf36a107da19e49527a7176a1babf963b4b0ff8cde35ee35d6cd8f1f9ac7e1d8280a280f35b5034610177576040366003190112610177578061114a611263565b61115261135d565b7f00000000000000000000000000000000000000000000000000000000000000006001600160a01b031690813b156104175760405163040b850f60e31b81526001600160a01b03909116600482015260248035908201529082908290604490829084905af180156102c9576102b85750f35b5060203660031901126101775760043563ffffffff811680910361069f576111ea61135d565b7f00000000000000000000000000000000000000000000000000000000000000006001600160a01b0316908290823b1561069f578190602460405180958193621cb65b60e51b8352600483015234905af18015611256576112485780f35b61125191611300565b388180f35b50604051903d90823e3d90fd5b600435906001600160a01b038216820361037157565b602435906001600160a01b038216820361037157565b919082519283825260005b8481106112bb575050826000602080949584010152601f8019910116010190565b8060208092840101518282860101520161129a565b9181601f84011215610371578235916001600160401b038311610371576020808501948460051b01011161037157565b90601f801991011681019081106001600160401b0382111761132157604052565b634e487b7160e01b600052604160045260246000fd5b91908110156113475760051b0190565b634e487b7160e01b600052603260045260246000fd5b638b78c6d81954330361136c57565b6382b429006000526004601cfd5b60026000541461138b576002600055565b633ee5aeb560e01b60005260046000fd5b6001600160a01b038216919082156113f0576001600160a01b0316906113c490849083611666565b7f4e5ba90310f16273bb12f3c33f23905e573b86df58a2895a525285d083bf043f6020604051338152a4565b6392bc9df360e01b60005260046000fd5b7f00000000000000000000000000000000000000000000000000000000000000006001600160a01b0316330361143357565b60405162461bcd60e51b815260206004820152601560248201527414d95b99195c881b9bdd08115b9d1c9e541bda5b9d605a1b6044820152606490fd5b903590601e198136030182121561037157018035906001600160401b0382116103715760200191813603831361037157565b602081016020825282518091526040820191602060408360051b8301019401926000915b8383106114d557505050505090565b90919293946020806114f3600193603f19868203018752895161128f565b970193019301919392906114c6565b9081608091031261037157604051906000608083016001600160401b038111848210176115785760405281518060070b810361069f57835260208201516001600160401b038116810361069f5760208401526040820151908160030b820361017757509060609160408401520151606082015290565b634e487b7160e01b82526041600452602482fd5b8181029291811591840414171561159f57565b634e487b7160e01b600052601160045260246000fd5b60030b600003908160030b91820361159f57565b60ff16604d811161159f57600a0a90565b81156115e4570490565b634e487b7160e01b600052601260045260246000fd5b9190820180921161159f57565b356001600160a01b03811681036103715790565b9190820391821161159f57565b60018060a01b031680638b78c6d819547f8be0079c531659141344cd1fd0a4f28419497f9722a3daafe3b4186f6b6457e0600080a3638b78c6d81955565b919060145260345263a9059cbb60601b600052602060006044601082855af19081600160005114161561169d575b50506000603452565b3b153d1710156116ae573880611694565b6390b8ec186000526004601cfd","linkReferences":{}},"methodIdentifiers":{"addStake(uint32)":"0396cb60","cancelOwnershipHandover()":"54d1f13d","completeOwnershipHandover(address)":"f04e283e","deposit()":"d0e30db0","entryPoint()":"b0d691fe","ethUsdPriceId()":"6a18ec49","getDeposit()":"c399ec88","owner()":"8da5cb5b","ownershipHandoverExpiresAt(address)":"fee81cf4","postOp(uint8,bytes,uint256,uint256)":"7c627b21","priceMarkup()":"3e04619d","pyth()":"f98d06f0","renounceOwnership()":"715018a6","requestOwnershipHandover()":"25692962","setUnaccountedGas(uint256)":"73acf542","transferOwnership(address)":"f2fde38b","unaccountedGas()":"ab94cad7","unlockStake()":"bb9fe6bf","usdc()":"3e413bee","usdcUsdPriceId()":"e97ffafc","validatePaymasterUserOp((address,uint256,bytes,bytes,bytes32,uint256,bytes32,bytes,bytes),bytes32,uint256)":"52b7512c","withdrawERC20(address,address,uint256)":"44004cc1","withdrawERC20Full(address,address)":"5deef2aa","withdrawMultipleERC20(address[],address,uint256[])":"617d057a","withdrawStake(address)":"c23a5cea","withdrawTo(address,uint256)":"205c2878"},"id":1}