{"abi":[{"type":"constructor","inputs":[{"name":"owner","type":"address","internalType":"address"},{"name":"_entryPoint","type":"address","internalType":"contract IEntryPoint"},{"name":"_priceMarkup","type":"uint256","internalType":"uint256"},{"name":"_pyth","type":"address","internalType":"address"},{"name":"_usdc","type":"address","internalType":"address"},{"name":"_ethUsdPriceId","type":"bytes32","internalType":"bytes32"},{"name":"_usdcUsdPriceId","type":"bytes32","internalType":"bytes32"},{"name":"unaccountedGasArg","type":"uint256","internalType":"uint256"}],"stateMutability":"nonpayable"},{"type":"receive","stateMutability":"payable"},{"type":"function","name":"addStake","inputs":[{"name":"unstakeDelaySec","type":"uint32","internalType":"uint32"}],"outputs":[],"stateMutability":"payable"},{"type":"function","name":"cancelOwnershipHandover","inputs":[],"outputs":[],"stateMutability":"payable"},{"type":"function","name":"completeOwnershipHandover","inputs":[{"name":"pendingOwner","type":"address","internalType":"address"}],"outputs":[],"stateMutability":"payable"},{"type":"function","name":"deposit","inputs":[],"outputs":[],"stateMutability":"payable"},{"type":"function","name":"entryPoint","inputs":[],"outputs":[{"name":"","type":"address","internalType":"contract IEntryPoint"}],"stateMutability":"view"},{"type":"function","name":"ethUsdPriceId","inputs":[],"outputs":[{"name":"","type":"bytes32","internalType":"bytes32"}],"stateMutability":"view"},{"type":"function","name":"getDeposit","inputs":[],"outputs":[{"name":"","type":"uint256","internalType":"uint256"}],"stateMutability":"view"},{"type":"function","name":"owner","inputs":[],"outputs":[{"name":"result","type":"address","internalType":"address"}],"stateMutability":"view"},{"type":"function","name":"ownershipHandoverExpiresAt","inputs":[{"name":"pendingOwner","type":"address","internalType":"address"}],"outputs":[{"name":"result","type":"uint256","internalType":"uint256"}],"stateMutability":"view"},{"type":"function","name":"postOp","inputs":[{"name":"mode","type":"uint8","internalType":"enum IPaymaster.PostOpMode"},{"name":"context","type":"bytes","internalType":"bytes"},{"name":"actualGasCost","type":"uint256","internalType":"uint256"},{"name":"actualUserOpFeePerGas","type":"uint256","internalType":"uint256"}],"outputs":[],"stateMutability":"nonpayable"},{"type":"function","name":"priceMarkup","inputs":[],"outputs":[{"name":"","type":"uint256","internalType":"uint256"}],"stateMutability":"view"},{"type":"function","name":"pyth","inputs":[],"outputs":[{"name":"","type":"address","internalType":"address"}],"stateMutability":"view"},{"type":"function","name":"renounceOwnership","inputs":[],"outputs":[],"stateMutability":"payable"},{"type":"function","name":"requestOwnershipHandover","inputs":[],"outputs":[],"stateMutability":"payable"},{"type":"function","name":"setUnaccountedGas","inputs":[{"name":"newUnaccountedGas","type":"uint256","internalType":"uint256"}],"outputs":[],"stateMutability":"payable"},{"type":"function","name":"transferOwnership","inputs":[{"name":"newOwner","type":"address","internalType":"address"}],"outputs":[],"stateMutability":"payable"},{"type":"function","name":"unaccountedGas","inputs":[],"outputs":[{"name":"","type":"uint256","internalType":"uint256"}],"stateMutability":"view"},{"type":"function","name":"unlockStake","inputs":[],"outputs":[],"stateMutability":"nonpayable"},{"type":"function","name":"usdc","inputs":[],"outputs":[{"name":"","type":"address","internalType":"address"}],"stateMutability":"view"},{"type":"function","name":"usdcUsdPriceId","inputs":[],"outputs":[{"name":"","type":"bytes32","internalType":"bytes32"}],"stateMutability":"view"},{"type":"function","name":"validatePaymasterUserOp","inputs":[{"name":"userOp","type":"tuple","internalType":"struct PackedUserOperation","components":[{"name":"sender","type":"address","internalType":"address"},{"name":"nonce","type":"uint256","internalType":"uint256"},{"name":"initCode","type":"bytes","internalType":"bytes"},{"name":"callData","type":"bytes","internalType":"bytes"},{"name":"accountGasLimits","type":"bytes32","internalType":"bytes32"},{"name":"preVerificationGas","type":"uint256","internalType":"uint256"},{"name":"gasFees","type":"bytes32","internalType":"bytes32"},{"name":"paymasterAndData","type":"bytes","internalType":"bytes"},{"name":"signature","type":"bytes","internalType":"bytes"}]},{"name":"userOpHash","type":"bytes32","internalType":"bytes32"},{"name":"maxCost","type":"uint256","internalType":"uint256"}],"outputs":[{"name":"context","type":"bytes","internalType":"bytes"},{"name":"validationData","type":"uint256","internalType":"uint256"}],"stateMutability":"nonpayable"},{"type":"function","name":"withdrawERC20","inputs":[{"name":"token","type":"address","internalType":"contract IERC20"},{"name":"target","type":"address","internalType":"address"},{"name":"amount","type":"uint256","internalType":"uint256"}],"outputs":[],"stateMutability":"payable"},{"type":"function","name":"withdrawERC20Full","inputs":[{"name":"token","type":"address","internalType":"contract IERC20"},{"name":"target","type":"address","internalType":"address"}],"outputs":[],"stateMutability":"payable"},{"type":"function","name":"withdrawMultipleERC20","inputs":[{"name":"token","type":"address[]","internalType":"contract IERC20[]"},{"name":"target","type":"address","internalType":"address"},{"name":"amount","type":"uint256[]","internalType":"uint256[]"}],"outputs":[],"stateMutability":"payable"},{"type":"function","name":"withdrawStake","inputs":[{"name":"withdrawAddress","type":"address","internalType":"address payable"}],"outputs":[],"stateMutability":"nonpayable"},{"type":"function","name":"withdrawTo","inputs":[{"name":"withdrawAddress","type":"address","internalType":"address payable"},{"name":"amount","type":"uint256","internalType":"uint256"}],"outputs":[],"stateMutability":"nonpayable"},{"type":"event","name":"OwnershipHandoverCanceled","inputs":[{"name":"pendingOwner","type":"address","indexed":true,"internalType":"address"}],"anonymous":false},{"type":"event","name":"OwnershipHandoverRequested","inputs":[{"name":"pendingOwner","type":"address","indexed":true,"internalType":"address"}],"anonymous":false},{"type":"event","name":"OwnershipTransferred","inputs":[{"name":"oldOwner","type":"address","indexed":true,"internalType":"address"},{"name":"newOwner","type":"address","indexed":true,"internalType":"address"}],"anonymous":false},{"type":"event","name":"PaidGasInTokens","inputs":[{"name":"userOpSender","type":"address","indexed":true,"internalType":"address"},{"name":"tokenCharge","type":"uint256","indexed":false,"internalType":"uint256"},{"name":"tokenPrice","type":"uint256","indexed":false,"internalType":"uint256"},{"name":"userOpHash","type":"bytes32","indexed":true,"internalType":"bytes32"}],"anonymous":false},{"type":"event","name":"TokensRefunded","inputs":[{"name":"userOpSender","type":"address","indexed":true,"internalType":"address"},{"name":"token","type":"address","indexed":true,"internalType":"address"},{"name":"refundAmount","type":"uint256","indexed":false,"internalType":"uint256"},{"name":"userOpHash","type":"bytes32","indexed":true,"internalType":"bytes32"}],"anonymous":false},{"type":"event","name":"TokensWithdrawn","inputs":[{"name":"token","type":"address","indexed":true,"internalType":"address"},{"name":"to","type":"address","indexed":true,"internalType":"address"},{"name":"amount","type":"uint256","indexed":true,"internalType":"uint256"},{"name":"actor","type":"address","indexed":false,"internalType":"address"}],"anonymous":false},{"type":"event","name":"UpdatedUnaccountedGas","inputs":[{"name":"oldUnaccountedGas","type":"uint256","indexed":false,"internalType":"uint256"},{"name":"newUnaccountedGas","type":"uint256","indexed":false,"internalType":"uint256"}],"anonymous":false},{"type":"error","name":"AlreadyInitialized","inputs":[]},{"type":"error","name":"CanNotWithdrawToZeroAddress","inputs":[]},{"type":"error","name":"NewOwnerIsZeroAddress","inputs":[]},{"type":"error","name":"NoHandoverRequest","inputs":[]},{"type":"error","name":"ReentrancyGuardReentrantCall","inputs":[]},{"type":"error","name":"TokensAndAmountsLengthMismatch","inputs":[]},{"type":"error","name":"UnaccountedGasTooHigh","inputs":[]},{"type":"error","name":"Unauthorized","inputs":[]}],"bytecode":{"object":"0x60a0806040523461020d576101008161180380380380916100208285610212565b83398101031261020d576100338161024b565b60208201519091906001600160a01b0381169081810361020d57604083015161005e6060850161024b565b9061006b6080860161024b565b926024602060a08801519660e060c08a01519901519960018060a01b031680638b78c6d8195560007f8be0079c531659141344cd1fd0a4f28419497f9722a3daafe3b4186f6b6457e08180a36040516301ffc9a760e01b815263122a0e9b60e31b600482015292839182905afa908115610201576000916101bf575b501561017a57608052600160005560025560018060a01b031660018060a01b0319600354161760035560018060a01b031660018060a01b031960045416176004556005556006556001556040516115a39081610260823960805181818161025d01528181610304015281816103af01528181610437015281816104a10152818161103b015281816110d301526112ea0152f35b60405162461bcd60e51b815260206004820152601e60248201527f49456e747279506f696e7420696e74657266616365206d69736d6174636800006044820152606490fd5b6020813d6020116101f9575b816101d860209383610212565b810103126101f557519081151582036101f25750386100e7565b80fd5b5080fd5b3d91506101cb565b6040513d6000823e3d90fd5b600080fd5b601f909101601f19168101906001600160401b0382119082101761023557604052565b634e487b7160e01b600052604160045260246000fd5b51906001600160a01b038216820361020d5756fe6080604052600436101561001b575b361561001957600080fd5b005b6000803560e01c80630396cb60146110ab578063205c2878146110165780632569296214610fcb5780633e04619d14610fad5780633e413bee14610f8457806344004cc114610f4b57806352b7512c1461094157806354d1f13d146108fb5780635deef2aa14610847578063617d057a146107775780636a18ec4914610759578063715018a61461070e57806373acf542146106a35780637c627b211461051b5780638da5cb5b146104ee578063ab94cad7146104d0578063b0d691fe1461048b578063bb9fe6bf1461041b578063c23a5cea1461038a578063c399ec88146102d7578063d0e30db01461024e578063e97ffafc14610230578063f04e283e146101e2578063f2fde38b146101a3578063f98d06f01461017a5763fee81cf414610145575061000e565b346101775760203660031901126101775761015e61114a565b9063389a75e1600c5252602080600c2054604051908152f35b80fd5b50346101775780600319360112610177576003546040516001600160a01b039091168152602090f35b506020366003190112610177576101b861114a565b6101c0611244565b8060601b156101d5576101d29061150f565b80f35b637448fbae82526004601cfd5b506020366003190112610177576101f761114a565b6101ff611244565b63389a75e1600c528082526020600c20805442116102235790826101d2925561150f565b636f5e881883526004601cfd5b50346101775780600319360112610177576020600654604051908152f35b508060031936011261017757807f00000000000000000000000000000000000000000000000000000000000000006001600160a01b0316803b156102d457816024916040519283809263b760faf960e01b825230600483015234905af180156102c9576102b85750f35b816102c2916111e7565b6101775780f35b6040513d84823e3d90fd5b50fd5b50346101775780600319360112610177576040516370a0823160e01b8152306004820152906020826024817f00000000000000000000000000000000000000000000000000000000000000006001600160a01b03165afa90811561037e5790610346575b602090604051908152f35b506020813d602011610376575b81610360602093836111e7565b81010312610371576020905161033b565b600080fd5b3d9150610353565b604051903d90823e3d90fd5b503461017757602036600319011261017757806103a561114a565b6103ad611244565b7f00000000000000000000000000000000000000000000000000000000000000006001600160a01b031690813b156104175760405163611d2e7560e11b81526001600160a01b0390911660048201529082908290602490829084905af180156102c9576102b85750f35b5050fd5b5034610177578060031936011261017757610434611244565b807f00000000000000000000000000000000000000000000000000000000000000006001600160a01b0316803b156102d45781809160046040518094819363bb9fe6bf60e01b83525af180156102c9576102b85750f35b50346101775780600319360112610177576040517f00000000000000000000000000000000000000000000000000000000000000006001600160a01b03168152602090f35b50346101775780600319360112610177576020600154604051908152f35b5034610177578060031936011261017757638b78c6d819546040516001600160a01b039091168152602090f35b50346101775760803660031901126101775760036004351015610177576024356001600160401b03811161069f573660238201121561069f5780600401356001600160401b03811161069b57810136602482011161069b5760a09061057e6112e8565b8290031261069f5760248101356001600160a01b0381169081900361069b577f95d95a2d9fa5d396698cdff2b3a190547e2deebbb4bd5b31f6ad8a19f7f0e700604083604460849501359060648101359069d3c21bcecceda100000061061b8361061661060d6105f960a48701359c8d9701356044356114e1565b610607606435600154611473565b906114e1565b60025490611473565b611473565b049283808211610637575b50505082519182526020820152a380f35b61064091611502565b60045461065990829089906001600160a01b031661154d565b60045485519182526001600160a01b03169087907f51763f8537bd44ee07b99340cad75354ee7553f96025d16c7384d40144e8c6a990602090a4853883610626565b8280fd5b5080fd5b506020366003190112610177576004356106bb611244565b620186a081116106ff5760407f2fcf69360e1d372881528eb806fae2b9226a258176570a4aef1d87cb811b0eb291600154908060015582519182526020820152a180f35b63313db2a560e11b8252600482fd5b508060031936011261017757610722611244565b80638b78c6d819547f8be0079c531659141344cd1fd0a4f28419497f9722a3daafe3b4186f6b6457e08280a380638b78c6d8195580f35b50346101775780600319360112610177576020600554604051908152f35b506060366003190112610177576004356001600160401b03811161069f576107a39036906004016111b7565b6107ab611160565b906044356001600160401b038111610843576107cb9036906004016111b7565b916107d4611244565b6107dc611261565b82810361083457855b8181106107f457866001815580f35b6107ff81838861121e565b35906001600160a01b03821682036108305761082a6001928761082384898961121e565b3591611283565b016107e5565b8780fd5b630483384360e11b8652600486fd5b8480fd5b5060403660031901126101775761085c61114a565b610864611160565b9061086d611244565b610875611261565b6040516370a0823160e01b8152306004820152916020836024816001600160a01b0386165afa9182156108f05784926108ba575b6108b39350611283565b6001815580f35b91506020833d6020116108e8575b816108d5602093836111e7565b81010312610371576108b39251916108a9565b3d91506108c8565b6040513d86823e3d90fd5b50806003193601126101775763389a75e1600c52338152806020600c2055337ffa7b8eab7da67f412cc9575ed43464468f9bfbae89d1675917346ca6d8fe3c928280a280f35b503461017757606036600319011261017757600435906001600160401b0382116101775781600401906101206003198436030112610177576109816112e8565b60e4830161098f8184611357565b80603493929311610f475782019160208184036033190112610f47576034810135906001600160401b03821161084357019180605384011215610f47576034830135926001600160401b038411610f33578360051b604051946109f560208301876111e7565b85528101605401906020850190838311610f2f5760548101915b838310610e9857505050505060018060a01b03600354166040519263d47eed4560e01b845260208480610a458460048301611389565b0381855afa938415610e25578594610e64575b50813b1561084357610a8384928692604051948580948193631df3cbc560e31b835260048301611389565b03925af180156108f057908491610e4f575b505060018060a01b03600354166005546040519063052571af60e51b82526004820152603c6024820152608081604481855afa908115610e25578591610e30575b50608060065460446040518095819363052571af60e51b83526004830152603c60248301525afa918215610e25578592610df4575b506001600160401b0381511690670de0b6b3a7640000820291808304670de0b6b3a76400001490151715610de05790610b5860ff610b526040610b5e95015160030b61149c565b166114b0565b906114c1565b906001600160401b0381511690670de0b6b3a7640000820291808304670de0b6b3a76400001490151715610de057610ba99291610b5860ff610b526040610b5895015160030b61149c565b9360018060a01b03600454169460405163313ce56760e01b81526020816004818a5afa908115610dd5578691610d93575b50610bf891610beb610bf1926114b0565b90611473565b9282611357565b603411610843576024013560801c6001600160801b03608488013516016001600160801b038111610d7f576001600160801b03600a911602956001600160801b038716968703610d7f57610c968361061661060d610c88999a610607610c8d8a6064610c7d6001600160801b0360c469d3c21bcecceda10000009c0135168096611473565b049d8e6044356114e1565b6114e1565b91600154611473565b0495610ca1826114ee565b9060405191886060523060405260601b602c526323b872dd60601b600c526020866064601c82855af1908160018851141615610d61575b505095670de0b6b3a7640000610d0584610cff610d0c95610d579b8a6060526040526114ee565b98611473565b0490611502565b6040519460018060a01b0316602086015260408501526060840152608083015260243560a083015260a08252610d4360c0836111e7565b604051928392604084526040840190611176565b9060208301520390f35b3b153d171015610d72573880610cd8565b637939f42485526004601cfd5b634e487b7160e01b85526011600452602485fd5b90506020813d602011610dcd575b81610dae602093836111e7565b81010312610dc9575160ff81168103610dc957610bf8610bda565b8580fd5b3d9150610da1565b6040513d88823e3d90fd5b634e487b7160e01b86526011600452602486fd5b610e1791925060803d608011610e1e575b610e0f81836111e7565b8101906113e9565b9038610b0b565b503d610e05565b6040513d87823e3d90fd5b610e49915060803d608011610e1e57610e0f81836111e7565b38610ad6565b81610e59916111e7565b61069b578238610a95565b9093506020813d602011610e90575b81610e80602093836111e7565b8101031261037157519238610a58565b3d9150610e73565b82356001600160401b038111610f2b5760349083010185603f82011215610f2b5760208101356001600160401b038111610f175760405191610ee4601f8301601f1916602001846111e7565b8183526040818301018810610f1357918a60208381969460408397018386013783010152815201920191610a0f565b8a80fd5b634e487b7160e01b8a52604160045260248afd5b8880fd5b8680fd5b634e487b7160e01b85526041600452602485fd5b8380fd5b506060366003190112610177576108b3610f6361114a565b610f6b611160565b610f73611244565b610f7b611261565b60443591611283565b50346101775780600319360112610177576004546040516001600160a01b039091168152602090f35b50346101775780600319360112610177576020600254604051908152f35b50806003193601126101775763389a75e1600c523381526202a30042016020600c2055337fdbf36a107da19e49527a7176a1babf963b4b0ff8cde35ee35d6cd8f1f9ac7e1d8280a280f35b5034610177576040366003190112610177578061103161114a565b611039611244565b7f00000000000000000000000000000000000000000000000000000000000000006001600160a01b031690813b156104175760405163040b850f60e31b81526001600160a01b03909116600482015260248035908201529082908290604490829084905af180156102c9576102b85750f35b5060203660031901126101775760043563ffffffff811680910361069f576110d1611244565b7f00000000000000000000000000000000000000000000000000000000000000006001600160a01b0316908290823b1561069f578190602460405180958193621cb65b60e51b8352600483015234905af1801561113d5761112f5780f35b611138916111e7565b388180f35b50604051903d90823e3d90fd5b600435906001600160a01b038216820361037157565b602435906001600160a01b038216820361037157565b919082519283825260005b8481106111a2575050826000602080949584010152601f8019910116010190565b80602080928401015182828601015201611181565b9181601f84011215610371578235916001600160401b038311610371576020808501948460051b01011161037157565b90601f801991011681019081106001600160401b0382111761120857604052565b634e487b7160e01b600052604160045260246000fd5b919081101561122e5760051b0190565b634e487b7160e01b600052603260045260246000fd5b638b78c6d81954330361125357565b6382b429006000526004601cfd5b600260005414611272576002600055565b633ee5aeb560e01b60005260046000fd5b6001600160a01b038216919082156112d7576001600160a01b0316906112ab9084908361154d565b7f4e5ba90310f16273bb12f3c33f23905e573b86df58a2895a525285d083bf043f6020604051338152a4565b6392bc9df360e01b60005260046000fd5b7f00000000000000000000000000000000000000000000000000000000000000006001600160a01b0316330361131a57565b60405162461bcd60e51b815260206004820152601560248201527414d95b99195c881b9bdd08115b9d1c9e541bda5b9d605a1b6044820152606490fd5b903590601e198136030182121561037157018035906001600160401b0382116103715760200191813603831361037157565b602081016020825282518091526040820191602060408360051b8301019401926000915b8383106113bc57505050505090565b90919293946020806113da600193603f198682030187528951611176565b970193019301919392906113ad565b9081608091031261037157604051906000608083016001600160401b0381118482101761145f5760405281518060070b810361069f57835260208201516001600160401b038116810361069f5760208401526040820151908160030b820361017757509060609160408401520151606082015290565b634e487b7160e01b82526041600452602482fd5b8181029291811591840414171561148657565b634e487b7160e01b600052601160045260246000fd5b60030b600003908160030b91820361148657565b60ff16604d811161148657600a0a90565b81156114cb570490565b634e487b7160e01b600052601260045260246000fd5b9190820180921161148657565b356001600160a01b03811681036103715790565b9190820391821161148657565b60018060a01b031680638b78c6d819547f8be0079c531659141344cd1fd0a4f28419497f9722a3daafe3b4186f6b6457e0600080a3638b78c6d81955565b919060145260345263a9059cbb60601b600052602060006044601082855af190816001600051141615611584575b50506000603452565b3b153d17101561159557388061157b565b6390b8ec186000526004601cfd","linkReferences":{}},"methodIdentifiers":{"addStake(uint32)":"0396cb60","cancelOwnershipHandover()":"54d1f13d","completeOwnershipHandover(address)":"f04e283e","deposit()":"d0e30db0","entryPoint()":"b0d691fe","ethUsdPriceId()":"6a18ec49","getDeposit()":"c399ec88","owner()":"8da5cb5b","ownershipHandoverExpiresAt(address)":"fee81cf4","postOp(uint8,bytes,uint256,uint256)":"7c627b21","priceMarkup()":"3e04619d","pyth()":"f98d06f0","renounceOwnership()":"715018a6","requestOwnershipHandover()":"25692962","setUnaccountedGas(uint256)":"73acf542","transferOwnership(address)":"f2fde38b","unaccountedGas()":"ab94cad7","unlockStake()":"bb9fe6bf","usdc()":"3e413bee","usdcUsdPriceId()":"e97ffafc","validatePaymasterUserOp((address,uint256,bytes,bytes,bytes32,uint256,bytes32,bytes,bytes),bytes32,uint256)":"52b7512c","withdrawERC20(address,address,uint256)":"44004cc1","withdrawERC20Full(address,address)":"5deef2aa","withdrawMultipleERC20(address[],address,uint256[])":"617d057a","withdrawStake(address)":"c23a5cea","withdrawTo(address,uint256)":"205c2878"},"id":4}