{"abi":[{"type":"constructor","inputs":[{"name":"_entryPoint","type":"address","internalType":"contract IEntryPoint"},{"name":"_verifyingSigner","type":"address","internalType":"address"}],"stateMutability":"nonpayable"},{"type":"function","name":"addStake","inputs":[{"name":"unstakeDelaySec","type":"uint32","internalType":"uint32"}],"outputs":[],"stateMutability":"payable"},{"type":"function","name":"deposit","inputs":[],"outputs":[],"stateMutability":"payable"},{"type":"function","name":"entryPoint","inputs":[],"outputs":[{"name":"","type":"address","internalType":"contract IEntryPoint"}],"stateMutability":"view"},{"type":"function","name":"getDeposit","inputs":[],"outputs":[{"name":"","type":"uint256","internalType":"uint256"}],"stateMutability":"view"},{"type":"function","name":"getHash","inputs":[{"name":"userOp","type":"tuple","internalType":"struct PackedUserOperation","components":[{"name":"sender","type":"address","internalType":"address"},{"name":"nonce","type":"uint256","internalType":"uint256"},{"name":"initCode","type":"bytes","internalType":"bytes"},{"name":"callData","type":"bytes","internalType":"bytes"},{"name":"accountGasLimits","type":"bytes32","internalType":"bytes32"},{"name":"preVerificationGas","type":"uint256","internalType":"uint256"},{"name":"gasFees","type":"bytes32","internalType":"bytes32"},{"name":"paymasterAndData","type":"bytes","internalType":"bytes"},{"name":"signature","type":"bytes","internalType":"bytes"}]},{"name":"withdrawRequest","type":"tuple","internalType":"struct SolvingPaymaster.WithdrawRequest","components":[{"name":"signature","type":"bytes","internalType":"bytes"},{"name":"asset","type":"address","internalType":"address"},{"name":"amount","type":"uint256","internalType":"uint256"},{"name":"nonce","type":"uint256","internalType":"uint256"},{"name":"expiry","type":"uint48","internalType":"uint48"}]}],"outputs":[{"name":"","type":"bytes32","internalType":"bytes32"}],"stateMutability":"view"},{"type":"function","name":"isValidWithdrawSignature","inputs":[{"name":"userOp","type":"tuple","internalType":"struct PackedUserOperation","components":[{"name":"sender","type":"address","internalType":"address"},{"name":"nonce","type":"uint256","internalType":"uint256"},{"name":"initCode","type":"bytes","internalType":"bytes"},{"name":"callData","type":"bytes","internalType":"bytes"},{"name":"accountGasLimits","type":"bytes32","internalType":"bytes32"},{"name":"preVerificationGas","type":"uint256","internalType":"uint256"},{"name":"gasFees","type":"bytes32","internalType":"bytes32"},{"name":"paymasterAndData","type":"bytes","internalType":"bytes"},{"name":"signature","type":"bytes","internalType":"bytes"}]},{"name":"withdrawRequest","type":"tuple","internalType":"struct SolvingPaymaster.WithdrawRequest","components":[{"name":"signature","type":"bytes","internalType":"bytes"},{"name":"asset","type":"address","internalType":"address"},{"name":"amount","type":"uint256","internalType":"uint256"},{"name":"nonce","type":"uint256","internalType":"uint256"},{"name":"expiry","type":"uint48","internalType":"uint48"}]}],"outputs":[{"name":"","type":"bool","internalType":"bool"}],"stateMutability":"view"},{"type":"function","name":"owner","inputs":[],"outputs":[{"name":"","type":"address","internalType":"address"}],"stateMutability":"view"},{"type":"function","name":"postOp","inputs":[{"name":"mode","type":"uint8","internalType":"enum IPaymaster.PostOpMode"},{"name":"context","type":"bytes","internalType":"bytes"},{"name":"actualGasCost","type":"uint256","internalType":"uint256"},{"name":"actualUserOpFeePerGas","type":"uint256","internalType":"uint256"}],"outputs":[],"stateMutability":"nonpayable"},{"type":"function","name":"renounceOwnership","inputs":[],"outputs":[],"stateMutability":"nonpayable"},{"type":"function","name":"transferOwnership","inputs":[{"name":"newOwner","type":"address","internalType":"address"}],"outputs":[],"stateMutability":"nonpayable"},{"type":"function","name":"unlockStake","inputs":[],"outputs":[],"stateMutability":"nonpayable"},{"type":"function","name":"validatePaymasterUserOp","inputs":[{"name":"userOp","type":"tuple","internalType":"struct PackedUserOperation","components":[{"name":"sender","type":"address","internalType":"address"},{"name":"nonce","type":"uint256","internalType":"uint256"},{"name":"initCode","type":"bytes","internalType":"bytes"},{"name":"callData","type":"bytes","internalType":"bytes"},{"name":"accountGasLimits","type":"bytes32","internalType":"bytes32"},{"name":"preVerificationGas","type":"uint256","internalType":"uint256"},{"name":"gasFees","type":"bytes32","internalType":"bytes32"},{"name":"paymasterAndData","type":"bytes","internalType":"bytes"},{"name":"signature","type":"bytes","internalType":"bytes"}]},{"name":"userOpHash","type":"bytes32","internalType":"bytes32"},{"name":"maxCost","type":"uint256","internalType":"uint256"}],"outputs":[{"name":"context","type":"bytes","internalType":"bytes"},{"name":"validationData","type":"uint256","internalType":"uint256"}],"stateMutability":"nonpayable"},{"type":"function","name":"verifyingSigner","inputs":[],"outputs":[{"name":"","type":"address","internalType":"address"}],"stateMutability":"view"},{"type":"function","name":"withdrawStake","inputs":[{"name":"withdrawAddress","type":"address","internalType":"address payable"}],"outputs":[],"stateMutability":"nonpayable"},{"type":"function","name":"withdrawTo","inputs":[{"name":"withdrawAddress","type":"address","internalType":"address payable"},{"name":"amount","type":"uint256","internalType":"uint256"}],"outputs":[],"stateMutability":"nonpayable"},{"type":"function","name":"withdrawTokenExcess","inputs":[{"name":"token","type":"address","internalType":"address"}],"outputs":[],"stateMutability":"nonpayable"},{"type":"event","name":"OwnershipTransferred","inputs":[{"name":"previousOwner","type":"address","indexed":true,"internalType":"address"},{"name":"newOwner","type":"address","indexed":true,"internalType":"address"}],"anonymous":false},{"type":"error","name":"InvalidNonce","inputs":[{"name":"nonce","type":"uint256","internalType":"uint256"}]},{"type":"error","name":"NoExcess","inputs":[]},{"type":"error","name":"OwnableInvalidOwner","inputs":[{"name":"owner","type":"address","internalType":"address"}]},{"type":"error","name":"OwnableUnauthorizedAccount","inputs":[{"name":"account","type":"address","internalType":"address"}]}],"bytecode":{"object":"0x60c060409080825234620001ec578181620011308038038091620000248285620001f1565b833981010312620001ec5780516001600160a01b0391828216808303620001ec57602080920151938085168503620001ec573315620001d45760008054336001600160a01b031982168117835588519492938693869360249385939091167f8be0079c531659141344cd1fd0a4f28419497f9722a3daafe3b4186f6b6457e08880a36301ffc9a760e01b825263122a0e9b60e31b60048301525afa918215620001c857819262000180575b5050156200013d575060805260a05251610f0490816200022c823960805181818161017c01528181610326015281816103d80152818161044e015281816104e001528181610905015281816109de0152610e83015260a05181818161075f015281816108a901526109880152f35b60649084519062461bcd60e51b82526004820152601e60248201527f49456e747279506f696e7420696e74657266616365206d69736d6174636800006044820152fd5b9091508281813d8311620001c0575b6200019b8183620001f1565b81010312620001bc5751908115158203620001b957503880620000cf565b80fd5b5080fd5b503d6200018f565b508551903d90823e3d90fd5b8551631e4fbdf760e01b815260006004820152602490fd5b600080fd5b601f909101601f19168101906001600160401b038211908210176200021557604052565b634e487b7160e01b600052604160045260246000fdfe6040608081526004908136101561001557600080fd5b600091823560e01c80630396cb60146109b55780631c985b7a1461096257838163205c2878146108d85750806323d9ac9b1461089457806352b7512c1461065a578063715018a614610600578381637c627b2114610537575080638da5cb5b1461050f578063b0d691fe146104cb578063b73dd1da146104a457838163bb9fe6bf14610431578163c23a5cea146103aa57508063c399ec88146102f8578063cb74b145146101fd57838163d0e30db01461016c575063f2fde38b146100d957600080fd5b34610168576020366003190112610168576100f2610adc565b906100fb610d67565b6001600160a01b03918216928315610152575050600054826bffffffffffffffffffffffff60a01b821617600055167f8be0079c531659141344cd1fd0a4f28419497f9722a3daafe3b4186f6b6457e0600080a380f35b51631e4fbdf760e01b8152908101849052602490fd5b8280fd5b809391506003193601126101f9577f00000000000000000000000000000000000000000000000000000000000000006001600160a01b031691823b156101f4578390602483518095819363b760faf960e01b8352309083015234905af19081156101eb57506101d85750f35b6101e190610a44565b6101e85780f35b80fd5b513d84823e3d90fd5b505050fd5b5050fd5b509034610168576020806003193601126102f457610219610adc565b916001600160a01b0383169081156102ba573386526001835280862082600052835280600020549182156102aa5733808852600185528288206000928352855291902086905560145260345263a9059cbb60601b8452836044601082855af190816001855114161561028e575b838060345280f35b3b153d17101561029f578080610286565b6390b8ec188252601cfd5b815163360b1dbf60e11b81528690fd5b5162461bcd60e51b81528085018390526015602482015274496e76616c696420746f6b656e206164647265737360581b6044820152606490fd5b8380fd5b50903461016857826003193601126101685780516370a0823160e01b815230928101929092526020826024817f00000000000000000000000000000000000000000000000000000000000000006001600160a01b03165afa9182156103a0578392610368575b6020838351908152f35b9091506020813d602011610398575b8161038460209383610a6e565b81010312610168576020925051903861035e565b3d9150610377565b81513d85823e3d90fd5b929050346101f95760203660031901126101f9576103c6610adc565b6103ce610d67565b6001600160a01b037f00000000000000000000000000000000000000000000000000000000000000008116803b1561042d578592836024928651978895869463611d2e7560e11b865216908401525af19081156101eb57506101d85750f35b8580fd5b929050346101f957826003193601126101f95761044c610d67565b7f00000000000000000000000000000000000000000000000000000000000000006001600160a01b031691823b156101f457815163bb9fe6bf60e01b81529284918491829084905af19081156101eb57506101d85750f35b5050346104c7576020906104c06104ba36610b9c565b90610c5b565b9051908152f35b5080fd5b5050346104c757816003193601126104c757517f00000000000000000000000000000000000000000000000000000000000000006001600160a01b03168152602090f35b5050346104c757816003193601126104c757905490516001600160a01b039091168152602090f35b808484346101f95760803660031901126101f9576003813510156101f9576024359067ffffffffffffffff908183116105fc57366023840112156105fc578201358181116105fc578201602481019036821161042d57838591610598610e81565b03126105fc576105aa60248401610af2565b92604481013592831161042d576105c49201602401610b06565b90602060018060a01b038092169283865260018252019181835116600052845260016020528284209151166000526020526000205580f35b8480fd5b83346101e857806003193601126101e857610619610d67565b600080546001600160a01b0319811682556001600160a01b03167f8be0079c531659141344cd1fd0a4f28419497f9722a3daafe3b4186f6b6457e08280a380f35b5091346101e857600319926060368501126104c75767ffffffffffffffff9080358281116102f4576101208183019682360301126102f45760e46106a7916106a0610e81565b0186610c28565b806034949294116105fc5783019060209384603319828503011261042d57603481013591821161042d576106df929101603401610b06565b80850180516060830180518752600286528787206001600160a01b03999295939192908a61070c83610ef0565b16600052875260ff89600020541661087c579082918a9493518952600288528989208561073883610ef0565b16600052885289600020600160ff1982541617905561078361075a8783610c5b565b8751907f0000000000000000000000000000000000000000000000000000000000000000610d93565b610875576001965b608087019485519a8761079d85610ef0565b16815260018b528c81208b8a01988951166000528b528c6000209182549384018094116108625750506108096107e665ffffffffffff96948f93946108329b9a99979555610ef0565b978d519e8f99168c8a01528d808a01525160a060608a0152610100890190610be8565b95511660808701525160a08601525160c0850152511660e083015203601f198101875286610a6e565b60ff6108478551968688978852870190610be8565b9365ffffffffffff60a01b9060a01b16911617908301520390f35b634e487b7160e01b825260119052602490fd5b889661078b565b6024848a8551905191632c4dce9b60e21b8352820152fd5b5050346104c757816003193601126104c757517f00000000000000000000000000000000000000000000000000000000000000006001600160a01b03168152602090f35b929050346101f957806003193601126101f9576108f3610adc565b6108fb610d67565b6001600160a01b037f00000000000000000000000000000000000000000000000000000000000000008116803b1561042d578592836044928651978895869463040b850f60e31b8652169084015260243560248401525af19081156101eb57506101d85750f35b5050346104c7576020906109ac61098361097b36610b9c565b809291610c5b565b9051907f0000000000000000000000000000000000000000000000000000000000000000610d93565b90519015158152f35b509060203660031901126101685782823563ffffffff81168091036104c7576109dc610d67565b7f00000000000000000000000000000000000000000000000000000000000000006001600160a01b031693843b156101685760249084519586938492621cb65b60e51b845283015234905af19081156101eb5750610a38575080f35b610a4190610a44565b80f35b67ffffffffffffffff8111610a5857604052565b634e487b7160e01b600052604160045260246000fd5b90601f8019910116810190811067ffffffffffffffff821117610a5857604052565b92919267ffffffffffffffff8211610a585760405191610aba601f8201601f191660200184610a6e565b829481845281830111610ad7578281602093846000960137010152565b600080fd5b600435906001600160a01b0382168203610ad757565b35906001600160a01b0382168203610ad757565b919060a083820312610ad7576040519060a082019367ffffffffffffffff9483811086821117610a585760405282948135908111610ad757810182601f82011215610ad757608092816020610b5d93359101610a90565b8352610b6b60208201610af2565b6020840152604081013560408401526060810135606084015201359065ffffffffffff82168203610ad75760800152565b90600319604081840112610ad75760043567ffffffffffffffff91828211610ad757610120908286030112610ad75760040192602435918211610ad757610be591600401610b06565b90565b919082519283825260005b848110610c14575050826000602080949584010152601f8019910116010190565b602081830181015184830182015201610bf3565b903590601e1981360301821215610ad7570180359067ffffffffffffffff8211610ad757602001918136038313610ad757565b6001600160a01b039190610c7c610c756040830183610c28565b3691610a90565b6020815191012091610c94610c756060840184610c28565b6020815191012091610ca960e0820182610c28565b603492919211610ad75760c08660208501511691601460408601519465ffffffffffff6080606089015198015116976040519960208b019b8535168c52602085013560408c015260608b015260808a0152608083013560a08a015201358288015260a081013560e0880152013561010086015246610120860152306101408601526101608501526101808401526101a08301526101c0908183015281526101e0810181811067ffffffffffffffff821117610a585760405251902090565b6000546001600160a01b03163303610d7b57565b60405163118cdaa760e01b8152336004820152602490fd5b60009392919084906001600160a01b03811615610e7757604091825190855180604014610e5457604114610e1857505b8615610dd1575b5050505050565b60209394959650630b135d3f60e11b948582526004820152602481019586938452805185019081604484019160045afa5060443d01915afa91511416903880808080610dca565b9650606080860151881a6020528386015190525b83875260208086015184526001608089825afa51821896606097881b3d119752808352610dc3565b508584015160ff81901c601b016020526001600160ff1b03166060529650610e2c565b5060009450505050565b7f00000000000000000000000000000000000000000000000000000000000000006001600160a01b03163303610eb357565b60405162461bcd60e51b815260206004820152601560248201527414d95b99195c881b9bdd08115b9d1c9e541bda5b9d605a1b6044820152606490fd5b356001600160a01b0381168103610ad7579056","linkReferences":{}},"methodIdentifiers":{"addStake(uint32)":"0396cb60","deposit()":"d0e30db0","entryPoint()":"b0d691fe","getDeposit()":"c399ec88","getHash((address,uint256,bytes,bytes,bytes32,uint256,bytes32,bytes,bytes),(bytes,address,uint256,uint256,uint48))":"b73dd1da","isValidWithdrawSignature((address,uint256,bytes,bytes,bytes32,uint256,bytes32,bytes,bytes),(bytes,address,uint256,uint256,uint48))":"1c985b7a","owner()":"8da5cb5b","postOp(uint8,bytes,uint256,uint256)":"7c627b21","renounceOwnership()":"715018a6","transferOwnership(address)":"f2fde38b","unlockStake()":"bb9fe6bf","validatePaymasterUserOp((address,uint256,bytes,bytes,bytes32,uint256,bytes32,bytes,bytes),bytes32,uint256)":"52b7512c","verifyingSigner()":"23d9ac9b","withdrawStake(address)":"c23a5cea","withdrawTo(address,uint256)":"205c2878","withdrawTokenExcess(address)":"cb74b145"},"id":4}