{"abi":[{"type":"constructor","inputs":[{"name":"_entryPoint","type":"address","internalType":"contract IEntryPoint"},{"name":"_verifyingSigner","type":"address","internalType":"address"},{"name":"_lzEndpoint","type":"address","internalType":"address"},{"name":"_identifier","type":"string","internalType":"string"}],"stateMutability":"nonpayable"},{"type":"function","name":"addStake","inputs":[{"name":"unstakeDelaySec","type":"uint32","internalType":"uint32"}],"outputs":[],"stateMutability":"payable"},{"type":"function","name":"allowInitializePath","inputs":[{"name":"origin","type":"tuple","internalType":"struct Origin","components":[{"name":"srcEid","type":"uint32","internalType":"uint32"},{"name":"sender","type":"bytes32","internalType":"bytes32"},{"name":"nonce","type":"uint64","internalType":"uint64"}]}],"outputs":[{"name":"","type":"bool","internalType":"bool"}],"stateMutability":"view"},{"type":"function","name":"buildCmd","inputs":[{"name":"appLabel","type":"uint16","internalType":"uint16"},{"name":"_readRequests","type":"tuple[]","internalType":"struct SolvingPaymaster.EvmReadRequest[]","components":[{"name":"appRequestLabel","type":"uint16","internalType":"uint16"},{"name":"targetEid","type":"uint32","internalType":"uint32"},{"name":"isBlockNum","type":"bool","internalType":"bool"},{"name":"blockNumOrTimestamp","type":"uint64","internalType":"uint64"},{"name":"confirmations","type":"uint16","internalType":"uint16"},{"name":"to","type":"address","internalType":"address"}]},{"name":"_computeRequest","type":"tuple","internalType":"struct SolvingPaymaster.EvmComputeRequest","components":[{"name":"computeSetting","type":"uint8","internalType":"uint8"},{"name":"targetEid","type":"uint32","internalType":"uint32"},{"name":"isBlockNum","type":"bool","internalType":"bool"},{"name":"blockNumOrTimestamp","type":"uint64","internalType":"uint64"},{"name":"confirmations","type":"uint16","internalType":"uint16"},{"name":"to","type":"address","internalType":"address"}]}],"outputs":[{"name":"","type":"bytes","internalType":"bytes"}],"stateMutability":"pure"},{"type":"function","name":"data","inputs":[],"outputs":[{"name":"","type":"bytes","internalType":"bytes"}],"stateMutability":"view"},{"type":"function","name":"deposit","inputs":[],"outputs":[],"stateMutability":"payable"},{"type":"function","name":"endpoint","inputs":[],"outputs":[{"name":"","type":"address","internalType":"contract ILayerZeroEndpointV2"}],"stateMutability":"view"},{"type":"function","name":"entryPoint","inputs":[],"outputs":[{"name":"","type":"address","internalType":"contract IEntryPoint"}],"stateMutability":"view"},{"type":"function","name":"getDeposit","inputs":[],"outputs":[{"name":"","type":"uint256","internalType":"uint256"}],"stateMutability":"view"},{"type":"function","name":"getHash","inputs":[{"name":"userOp","type":"tuple","internalType":"struct PackedUserOperation","components":[{"name":"sender","type":"address","internalType":"address"},{"name":"nonce","type":"uint256","internalType":"uint256"},{"name":"initCode","type":"bytes","internalType":"bytes"},{"name":"callData","type":"bytes","internalType":"bytes"},{"name":"accountGasLimits","type":"bytes32","internalType":"bytes32"},{"name":"preVerificationGas","type":"uint256","internalType":"uint256"},{"name":"gasFees","type":"bytes32","internalType":"bytes32"},{"name":"paymasterAndData","type":"bytes","internalType":"bytes"},{"name":"signature","type":"bytes","internalType":"bytes"}]},{"name":"withdrawRequest","type":"tuple","internalType":"struct SolvingPaymaster.WithdrawRequest","components":[{"name":"signature","type":"bytes","internalType":"bytes"},{"name":"asset","type":"address","internalType":"address"},{"name":"amount","type":"uint256","internalType":"uint256"},{"name":"nonce","type":"uint256","internalType":"uint256"},{"name":"expiry","type":"uint48","internalType":"uint48"}]}],"outputs":[{"name":"","type":"bytes32","internalType":"bytes32"}],"stateMutability":"view"},{"type":"function","name":"identifier","inputs":[],"outputs":[{"name":"","type":"string","internalType":"string"}],"stateMutability":"view"},{"type":"function","name":"isComposeMsgSender","inputs":[{"name":"","type":"tuple","internalType":"struct Origin","components":[{"name":"srcEid","type":"uint32","internalType":"uint32"},{"name":"sender","type":"bytes32","internalType":"bytes32"},{"name":"nonce","type":"uint64","internalType":"uint64"}]},{"name":"","type":"bytes","internalType":"bytes"},{"name":"_sender","type":"address","internalType":"address"}],"outputs":[{"name":"","type":"bool","internalType":"bool"}],"stateMutability":"view"},{"type":"function","name":"isValidWithdrawSignature","inputs":[{"name":"userOp","type":"tuple","internalType":"struct PackedUserOperation","components":[{"name":"sender","type":"address","internalType":"address"},{"name":"nonce","type":"uint256","internalType":"uint256"},{"name":"initCode","type":"bytes","internalType":"bytes"},{"name":"callData","type":"bytes","internalType":"bytes"},{"name":"accountGasLimits","type":"bytes32","internalType":"bytes32"},{"name":"preVerificationGas","type":"uint256","internalType":"uint256"},{"name":"gasFees","type":"bytes32","internalType":"bytes32"},{"name":"paymasterAndData","type":"bytes","internalType":"bytes"},{"name":"signature","type":"bytes","internalType":"bytes"}]},{"name":"withdrawRequest","type":"tuple","internalType":"struct SolvingPaymaster.WithdrawRequest","components":[{"name":"signature","type":"bytes","internalType":"bytes"},{"name":"asset","type":"address","internalType":"address"},{"name":"amount","type":"uint256","internalType":"uint256"},{"name":"nonce","type":"uint256","internalType":"uint256"},{"name":"expiry","type":"uint48","internalType":"uint48"}]}],"outputs":[{"name":"","type":"bool","internalType":"bool"}],"stateMutability":"view"},{"type":"function","name":"lzMap","inputs":[{"name":"_request","type":"bytes","internalType":"bytes"},{"name":"_response","type":"bytes","internalType":"bytes"}],"outputs":[{"name":"","type":"bytes","internalType":"bytes"}],"stateMutability":"pure"},{"type":"function","name":"lzReceive","inputs":[{"name":"_origin","type":"tuple","internalType":"struct Origin","components":[{"name":"srcEid","type":"uint32","internalType":"uint32"},{"name":"sender","type":"bytes32","internalType":"bytes32"},{"name":"nonce","type":"uint64","internalType":"uint64"}]},{"name":"_guid","type":"bytes32","internalType":"bytes32"},{"name":"_message","type":"bytes","internalType":"bytes"},{"name":"_executor","type":"address","internalType":"address"},{"name":"_extraData","type":"bytes","internalType":"bytes"}],"outputs":[],"stateMutability":"payable"},{"type":"function","name":"lzReduce","inputs":[{"name":"_cmd","type":"bytes","internalType":"bytes"},{"name":"_responses","type":"bytes[]","internalType":"bytes[]"}],"outputs":[{"name":"","type":"bytes","internalType":"bytes"}],"stateMutability":"pure"},{"type":"function","name":"myInformation","inputs":[],"outputs":[{"name":"","type":"bytes","internalType":"bytes"}],"stateMutability":"view"},{"type":"function","name":"nextNonce","inputs":[{"name":"","type":"uint32","internalType":"uint32"},{"name":"","type":"bytes32","internalType":"bytes32"}],"outputs":[{"name":"nonce","type":"uint64","internalType":"uint64"}],"stateMutability":"view"},{"type":"function","name":"oAppVersion","inputs":[],"outputs":[{"name":"senderVersion","type":"uint64","internalType":"uint64"},{"name":"receiverVersion","type":"uint64","internalType":"uint64"}],"stateMutability":"pure"},{"type":"function","name":"owner","inputs":[],"outputs":[{"name":"","type":"address","internalType":"address"}],"stateMutability":"view"},{"type":"function","name":"peers","inputs":[{"name":"eid","type":"uint32","internalType":"uint32"}],"outputs":[{"name":"peer","type":"bytes32","internalType":"bytes32"}],"stateMutability":"view"},{"type":"function","name":"postOp","inputs":[{"name":"mode","type":"uint8","internalType":"enum IPaymaster.PostOpMode"},{"name":"context","type":"bytes","internalType":"bytes"},{"name":"actualGasCost","type":"uint256","internalType":"uint256"},{"name":"actualUserOpFeePerGas","type":"uint256","internalType":"uint256"}],"outputs":[],"stateMutability":"nonpayable"},{"type":"function","name":"renounceOwnership","inputs":[],"outputs":[],"stateMutability":"nonpayable"},{"type":"function","name":"send","inputs":[{"name":"_channelId","type":"uint32","internalType":"uint32"},{"name":"_appLabel","type":"uint16","internalType":"uint16"},{"name":"_requests","type":"tuple[]","internalType":"struct SolvingPaymaster.EvmReadRequest[]","components":[{"name":"appRequestLabel","type":"uint16","internalType":"uint16"},{"name":"targetEid","type":"uint32","internalType":"uint32"},{"name":"isBlockNum","type":"bool","internalType":"bool"},{"name":"blockNumOrTimestamp","type":"uint64","internalType":"uint64"},{"name":"confirmations","type":"uint16","internalType":"uint16"},{"name":"to","type":"address","internalType":"address"}]},{"name":"_computeRequest","type":"tuple","internalType":"struct SolvingPaymaster.EvmComputeRequest","components":[{"name":"computeSetting","type":"uint8","internalType":"uint8"},{"name":"targetEid","type":"uint32","internalType":"uint32"},{"name":"isBlockNum","type":"bool","internalType":"bool"},{"name":"blockNumOrTimestamp","type":"uint64","internalType":"uint64"},{"name":"confirmations","type":"uint16","internalType":"uint16"},{"name":"to","type":"address","internalType":"address"}]},{"name":"_options","type":"bytes","internalType":"bytes"}],"outputs":[{"name":"receipt","type":"tuple","internalType":"struct MessagingReceipt","components":[{"name":"guid","type":"bytes32","internalType":"bytes32"},{"name":"nonce","type":"uint64","internalType":"uint64"},{"name":"fee","type":"tuple","internalType":"struct MessagingFee","components":[{"name":"nativeFee","type":"uint256","internalType":"uint256"},{"name":"lzTokenFee","type":"uint256","internalType":"uint256"}]}]}],"stateMutability":"payable"},{"type":"function","name":"setDelegate","inputs":[{"name":"_delegate","type":"address","internalType":"address"}],"outputs":[],"stateMutability":"nonpayable"},{"type":"function","name":"setPeer","inputs":[{"name":"_eid","type":"uint32","internalType":"uint32"},{"name":"_peer","type":"bytes32","internalType":"bytes32"}],"outputs":[],"stateMutability":"nonpayable"},{"type":"function","name":"setReadChannel","inputs":[{"name":"_channelId","type":"uint32","internalType":"uint32"},{"name":"_active","type":"bool","internalType":"bool"}],"outputs":[],"stateMutability":"nonpayable"},{"type":"function","name":"transferOwnership","inputs":[{"name":"newOwner","type":"address","internalType":"address"}],"outputs":[],"stateMutability":"nonpayable"},{"type":"function","name":"unlockStake","inputs":[],"outputs":[],"stateMutability":"nonpayable"},{"type":"function","name":"validatePaymasterUserOp","inputs":[{"name":"userOp","type":"tuple","internalType":"struct PackedUserOperation","components":[{"name":"sender","type":"address","internalType":"address"},{"name":"nonce","type":"uint256","internalType":"uint256"},{"name":"initCode","type":"bytes","internalType":"bytes"},{"name":"callData","type":"bytes","internalType":"bytes"},{"name":"accountGasLimits","type":"bytes32","internalType":"bytes32"},{"name":"preVerificationGas","type":"uint256","internalType":"uint256"},{"name":"gasFees","type":"bytes32","internalType":"bytes32"},{"name":"paymasterAndData","type":"bytes","internalType":"bytes"},{"name":"signature","type":"bytes","internalType":"bytes"}]},{"name":"userOpHash","type":"bytes32","internalType":"bytes32"},{"name":"maxCost","type":"uint256","internalType":"uint256"}],"outputs":[{"name":"context","type":"bytes","internalType":"bytes"},{"name":"validationData","type":"uint256","internalType":"uint256"}],"stateMutability":"nonpayable"},{"type":"function","name":"verifyingSigner","inputs":[],"outputs":[{"name":"","type":"address","internalType":"address"}],"stateMutability":"view"},{"type":"function","name":"withdrawStake","inputs":[{"name":"withdrawAddress","type":"address","internalType":"address payable"}],"outputs":[],"stateMutability":"nonpayable"},{"type":"function","name":"withdrawTo","inputs":[{"name":"withdrawAddress","type":"address","internalType":"address payable"},{"name":"amount","type":"uint256","internalType":"uint256"}],"outputs":[],"stateMutability":"nonpayable"},{"type":"function","name":"withdrawTokenExcess","inputs":[{"name":"token","type":"address","internalType":"address"}],"outputs":[],"stateMutability":"nonpayable"},{"type":"event","name":"MessageReceived","inputs":[{"name":"srcEid","type":"uint32","indexed":false,"internalType":"uint32"},{"name":"guid","type":"bytes32","indexed":false,"internalType":"bytes32"},{"name":"payload","type":"bytes","indexed":false,"internalType":"bytes"}],"anonymous":false},{"type":"event","name":"OwnershipTransferred","inputs":[{"name":"previousOwner","type":"address","indexed":true,"internalType":"address"},{"name":"newOwner","type":"address","indexed":true,"internalType":"address"}],"anonymous":false},{"type":"event","name":"PeerSet","inputs":[{"name":"eid","type":"uint32","indexed":false,"internalType":"uint32"},{"name":"peer","type":"bytes32","indexed":false,"internalType":"bytes32"}],"anonymous":false},{"type":"error","name":"AddressEmptyCode","inputs":[{"name":"target","type":"address","internalType":"address"}]},{"type":"error","name":"AddressInsufficientBalance","inputs":[{"name":"account","type":"address","internalType":"address"}]},{"type":"error","name":"FailedInnerCall","inputs":[]},{"type":"error","name":"InvalidDelegate","inputs":[]},{"type":"error","name":"InvalidEndpointCall","inputs":[]},{"type":"error","name":"InvalidNonce","inputs":[{"name":"nonce","type":"uint256","internalType":"uint256"}]},{"type":"error","name":"InvalidVersion","inputs":[]},{"type":"error","name":"LzTokenUnavailable","inputs":[]},{"type":"error","name":"NoExcess","inputs":[]},{"type":"error","name":"NoPeer","inputs":[{"name":"eid","type":"uint32","internalType":"uint32"}]},{"type":"error","name":"NotEnoughNative","inputs":[{"name":"msgValue","type":"uint256","internalType":"uint256"}]},{"type":"error","name":"OnlyEndpoint","inputs":[{"name":"addr","type":"address","internalType":"address"}]},{"type":"error","name":"OnlyPeer","inputs":[{"name":"eid","type":"uint32","internalType":"uint32"},{"name":"sender","type":"bytes32","internalType":"bytes32"}]},{"type":"error","name":"OwnableInvalidOwner","inputs":[{"name":"owner","type":"address","internalType":"address"}]},{"type":"error","name":"OwnableUnauthorizedAccount","inputs":[{"name":"account","type":"address","internalType":"address"}]},{"type":"error","name":"SafeCastOverflowedUintDowncast","inputs":[{"name":"bits","type":"uint8","internalType":"uint8"},{"name":"value","type":"uint256","internalType":"uint256"}]},{"type":"error","name":"SafeERC20FailedOperation","inputs":[{"name":"token","type":"address","internalType":"address"}]}],"bytecode":{"object":"0x60e080604052346105b75760006132b8803803809161001e82866105bc565b84398201906080838303126105b45782516001600160a01b03811693908481036105b25761004e602083016105f5565b9461005b604084016105f5565b606084015190936001600160401b038211610596570185601f820112156105ae578051906001600160401b03821161059a57604051966100a5601f8401601f1916602001896105bc565b8288526020838301011161059657908591825b82811061057f575050860160200152331561056b578354336001600160a01b031982168117865560405192602092849260249284929091906001600160a01b03167f8be0079c531659141344cd1fd0a4f28419497f9722a3daafe3b4186f6b6457e08b80a36301ffc9a760e01b825263122a0e9b60e31b60048301525afa908115610560578491610521575b50156104dc576080526001600160a01b031660a0819052803b156104d85781809160246040518094819363ca5eb5e160e01b83523360048401525af180156104cd5782906104bd575b505060405192602080850152601560408501527f4e6f7468696e67207265636569766564207965742e00000000000000000000006060850152606084526101d56080856105bc565b83516001600160401b0381116104a9576101f0600354610609565b601f811161045b575b50602094601f82116001146103f757839495829161022d94959261031e575b50508160011b916000199060031b1c19161790565b6003555b60c0528151906001600160401b0382116103e357610250600254610609565b601f811161038a575b50602090601f83116001146103295790610287938361031e5750508160011b916000199060031b1c19161790565b6002555b604051612c5d908161065b823960805181818161052a0152818161076f0152818161080d01528181610891015281816109520152818161180201528181611a1d0152612a5c015260a0518181816106d701528181610c4c01528181610d57015281816113430152818161194901528181611fd001526120ae015260c0518181816114ba015281816116b701526118960152f35b015190503880610218565b90601f1983169360028352818320925b85811061037257508360019510610359575b505050811b0160025561028b565b015160001960f88460031b161c1916905538808061034b565b91926020600181928685015181550194019201610339565b600282526103d3907f405787fa12a823e0f2b7631cc41b3ba8828b3321ca811111fa75cd3aa3bb5ace601f850160051c810191602086106103d9575b601f0160051c0190610643565b38610259565b90915081906103c6565b634e487b7160e01b81526041600452602490fd5b601f198216956003855280852091855b8881106104435750836001959697981061042a575b505050811b01600355610231565b015160001960f88460031b161c1916905538808061041c565b91926020600181928685015181550194019201610407565b600384526104a3907fc2575a0e9e593c00f959f8c92f12db2869c3395a3b0502d05e2516446f71f85b601f840160051c810191602085106103d957601f0160051c0190610643565b386101f9565b634e487b7160e01b83526041600452602483fd5b6104c6916105bc565b388161018d565b6040513d84823e3d90fd5b5080fd5b60405162461bcd60e51b815260206004820152601e60248201527f49456e747279506f696e7420696e74657266616365206d69736d6174636800006044820152606490fd5b90506020813d602011610558575b8161053c602093836105bc565b81010312610554575180151581036105545738610144565b8380fd5b3d915061052f565b6040513d86823e3d90fd5b631e4fbdf760e01b84526004849052602484fd5b60208282018101518a8301820152889450016100b8565b8580fd5b634e487b7160e01b86526041600452602486fd5b8480fd5b825b80fd5b600080fd5b601f909101601f19168101906001600160401b038211908210176105df57604052565b634e487b7160e01b600052604160045260246000fd5b51906001600160a01b03821682036105b757565b90600182811c92168015610639575b602083101461062357565b634e487b7160e01b600052602260045260246000fd5b91607f1691610618565b81811061064e575050565b6000815560010161064356fe6080604052600436101561001257600080fd5b6000803560e01c80630396cb60146119fe57806313137d65146118e657806317442b70146118c45780631c985b7a14611872578063205c2878146117dd57806323a3727a146116e657806323d9ac9b146116a15780633400288b1461167357806352b7512c146113725780635e280f111461132d578063715018a6146112d357806373d4a13a1461122c5780637998a1c41461115d5780637c627b2114610f895780637d25a05e14610f6357806382413eac14610f065780638da5cb5b14610edf5780639172f01214610a63578063a8cb182f14610981578063b0d691fe1461093c578063b73dd1da1461091a578063bb0b6a53146108e5578063bb9fe6bf14610875578063c23a5cea146107e8578063c399ec8814610743578063ca5eb5e1146106b2578063cb74b145146105a4578063d0e30db01461051b578063e60c287c14610429578063eba1cf0814610297578063f0a9e4811461024a578063f2fde38b146101c45763ff7bd03d1461018857600080fd5b346101c15760603660031901126101c15760209060409063ffffffff6101ac611ea6565b16815260018352205460405190602435148152f35b80fd5b50346101c15760203660031901126101c1576101de611af6565b6101e66128c0565b6001600160a01b031680156102365781546001600160a01b03198116821783556001600160a01b03167f8be0079c531659141344cd1fd0a4f28419497f9722a3daafe3b4186f6b6457e08380a380f35b631e4fbdf760e01b82526004829052602482fd5b50346101c15760403660031901126101c157610264611a9b565b602435908115158203610293576102899161027d6128c0565b1561028c573090612a12565b80f35b8290612a12565b8280fd5b50346101c15760403660031901126101c1576004356001600160401b038111610425576102c8903690600401611ab3565b91602435926001600160401b0384116104255736602385011215610425578360040135926001600160401b0384116102935760248501913660248660051b88010111610421578060021161042157600019823560f01c0161041257600411610293576002806103379201612b9d565b9360609483955b8587101561039d57602061039560019261036060248b60051b8801018861278d565b809491604051958461037b889651809287808a019101611d15565b85019184830137010188815203601f198101835282611bbd565b96019561033e565b906103fa6014602061040e9460405194816103c18793518092868087019101611d15565b820190712fb932b23ab1b2b22fb0b8382630b132b61d60711b8483015261ffff60f01b1660328201520301600b19810184520182611bbd565b604051918291602083526020830190611d38565b0390f35b63a9146eeb60e01b8452600484fd5b8380fd5b5080fd5b50346101c15760403660031901126101c1576004356001600160401b0381116104255761045a903690600401611ab3565b91906024356001600160401b0381116102935761047b903690600401611ab3565b9290938015610507576001833560f81c036104f8576003116101c157506017602061040e946104b1600260016103fa9601612b9d565b8560405196879385850137820190742fb6b0b83832b22fb932b8bab2b9ba2630b132b61d60591b8483015261ffff60f01b1660358201520301600819810184520182611bbd565b63a9146eeb60e01b8252600482fd5b634e487b7160e01b82526032600452602482fd5b50806003193601126101c157807f00000000000000000000000000000000000000000000000000000000000000006001600160a01b0316803b156105a157816024916040519283809263b760faf960e01b825230600483015234905af18015610596576105855750f35b8161058f91611bbd565b6101c15780f35b6040513d84823e3d90fd5b50fd5b50346101c15760203660031901126101c1576105be611af6565b6001600160a01b038116156106755733825260046020526040822060018060a01b03821660005260205260406000205480156106665733835260046020526040832060018060a01b038316600052602052826040600020553360145260345263a9059cbb60601b82526020826044601082855af1908160018451141615610648575b828060345280f35b3b153d171015610659573880610640565b6390b8ec1890526004601cfd5b63360b1dbf60e11b8352600483fd5b60405162461bcd60e51b8152602060048201526015602482015274496e76616c696420746f6b656e206164647265737360581b6044820152606490fd5b50346101c15760203660031901126101c157806106cd611af6565b6106d56128c0565b7f00000000000000000000000000000000000000000000000000000000000000006001600160a01b031690813b1561073f5760405163ca5eb5e160e01b81526001600160a01b0390911660048201529082908290602490829084905af18015610596576105855750f35b5050fd5b50346101c157806003193601126101c1576040516370a0823160e01b81523060048201526020816024817f00000000000000000000000000000000000000000000000000000000000000006001600160a01b03165afa9081156105965782916107b2575b602082604051908152f35b90506020813d6020116107e0575b816107cd60209383611bbd565b81010312610425576020915051386107a7565b3d91506107c0565b50346101c15760203660031901126101c15780610803611af6565b61080b6128c0565b7f00000000000000000000000000000000000000000000000000000000000000006001600160a01b031690813b1561073f5760405163611d2e7560e11b81526001600160a01b0390911660048201529082908290602490829084905af18015610596576105855750f35b50346101c157806003193601126101c15761088e6128c0565b807f00000000000000000000000000000000000000000000000000000000000000006001600160a01b0316803b156105a15781809160046040518094819363bb9fe6bf60e01b83525af18015610596576105855750f35b50346101c15760203660031901126101c157604060209163ffffffff610909611a9b565b168152600183522054604051908152f35b50346101c157602061093461092e36611cc6565b906127bf565b604051908152f35b50346101c157806003193601126101c1576040517f00000000000000000000000000000000000000000000000000000000000000006001600160a01b03168152602090f35b50346101c1576101003660031901126101c15760043561ffff81168103610425576024356001600160401b038111610293576109c1903690600401611dbd565b9060c036604319011261029357604051926109db84611b20565b60443560ff8116810361042557845260643563ffffffff81168103610425576020850152608435801515810361042557604085015260a4356001600160401b038116810361042557606085015260c43561ffff8116810361042557608085015260e435906001600160a01b03821682036101c15761040e6103fa8686868660a084015261225b565b506101403660031901126101c157610a79611a9b565b9060243561ffff81168103610425576044356001600160401b03811161029357610aa7903690600401611dbd565b60c03660631901126102935760405190610ac082611b20565b60643560ff81168103610d3d57825260843563ffffffff81168103610d3d57602083015260a4358015158103610d3d57604083015260c4356001600160401b0381168103610d3d57606083015260e43561ffff81168103610d3d576080830152610104356001600160a01b0381168103610d3d5760a0830152610124356001600160401b038111610d3d5790610b5e610b6d93923690600401611c30565b93610b67611eb9565b5061225b565b9060405190610b7b82611b87565b3482526020820191848352610b8e611eb9565b505190813403610ecc57825180610d48575b508563ffffffff91610c39610bb860809798996128e9565b95511515918460405194610bcb86611b51565b168452602084019687526040840198895260608401908152878401928352610c26604051998a98899788976302637a4560e41b8952604060048a0152511660448801525160648701525160a0608487015260e4860190611d38565b90518482036043190160a4860152611d38565b9051151560c483015233602483015203917f00000000000000000000000000000000000000000000000000000000000000006001600160a01b03165af1908115610596578291610cb5575b60808260206040805192805184526001600160401b0383820151168385015201518051604084015201516060820152f35b80915060803d608011610d41575b610ccd8183611bbd565b81010390608082126102935760405191610ce683611b6c565b815183526020820151906001600160401b0382168203610d3d576040916020850152603f1901126102935760809250606060405191610d2483611b87565b6040810151835201516020820152604082015238610c84565b8480fd5b503d610cc3565b60405163393f876560e21b81527f00000000000000000000000000000000000000000000000000000000000000006001600160a01b031690602081600481855afa908115610ec1578891610e7b575b506001600160a01b0316918215610e6c5787610e169281926040519060208201926323b872dd60e01b84523360248401526044830152606482015260648152610de1608482611bbd565b519082865af13d15610e64573d90610df882611bde565b91610e066040519384611bbd565b82523d89602084013e5b83612bfc565b8051908115159182610e3c575b505015610ba057635274afe760e01b8652600452602485fd5b8192509060209181010312610e605760200151801590811503610e60573880610e23565b8680fd5b606090610e10565b6329b99a9560e11b8852600488fd5b90506020813d602011610eb9575b81610e9660209383611bbd565b81010312610eb557516001600160a01b0381168103610eb55738610d97565b8780fd5b3d9150610e89565b6040513d8a823e3d90fd5b6304fb820960e51b855234600452602485fd5b50346101c157806003193601126101c157546040516001600160a01b039091168152602090f35b50346101c157366003190160a08112610425576060136101c1576064356001600160401b03811161042557610f3f903690600401611ab3565b50506084356001600160a01b03811690819003610425576020906040519030148152f35b50346101c15760403660031901126101c157602090610f80611a9b565b50604051908152f35b50346101c15760803660031901126101c157600360043510156101c1576024356001600160401b03811161042557610fc5903690600401611ab3565b610fcd612a5a565b81016101808282031261029357610fe382611b0c565b906020830135906001600160401b038211610d3d5761014061100a8261103c948701611c4e565b946110188360408301612ac9565b506110268360808301612b0e565b50611035836101008301612ac9565b5001612ac9565b506001600160a01b0390811680845260046020818152938401805184166000908152928652908452604080862091519093168252909252908190208290558051906110878183611bbd565b60018252601f198101835b8181106111245784611120858580516110aa81611b20565b84815284602082015284828201528460608201528460808201523060a08201526110d383612224565b526110dd82612224565b508051906110ea82611b20565b6003825284602083015284818301528460608301528460808301523060a08301525191611118602084611bbd565b848352611eef565b5080f35b602090835161113281611b20565b868152868382015286858201528660608201528660808201528660a082015282828701015201611092565b50346101c157806003193601126101c15760405190806002549061118082611d5d565b808552916001811690811561120557506001146111a8575b61040e846103fa81860382611bbd565b600281527f405787fa12a823e0f2b7631cc41b3ba8828b3321ca811111fa75cd3aa3bb5ace939250905b8082106111eb575090915081016020016103fa82611198565b9192600181602092548385880101520191019092916111d2565b60ff191660208087019190915292151560051b850190920192506103fa9150839050611198565b50346101c157806003193601126101c15760405190806003549061124f82611d5d565b808552916001811690811561120557506001146112765761040e846103fa81860382611bbd565b600381527fc2575a0e9e593c00f959f8c92f12db2869c3395a3b0502d05e2516446f71f85b939250905b8082106112b9575090915081016020016103fa82611198565b9192600181602092548385880101520191019092916112a0565b50346101c157806003193601126101c1576112ec6128c0565b80546001600160a01b03198116825581906001600160a01b03167f8be0079c531659141344cd1fd0a4f28419497f9722a3daafe3b4186f6b6457e08280a380f35b50346101c157806003193601126101c1576040517f00000000000000000000000000000000000000000000000000000000000000006001600160a01b03168152602090f35b50346101c15760603660031901126101c157600435906001600160401b0382116101c157816004019161012060031982360301126104255760e46113bf916113b8612a5a565b018361278d565b806034949294116102935783019261016081850360331901126102935760348101356001600160401b038111610421578460346113fe92840101611c4e565b9261140c8560548401612ac9565b9161143661141d8760948401612b0e565b9661015461142f826101148601612ac9565b9301612ac9565b916040860193845194606088018051845260056020526040842061145989612b61565b60018060a01b031660005260205260ff60406000205416611660578051845260056020526040842061148a89612b61565b60018060a01b03166000526020526040600020600160ff198254161790556114de6114b58a8a6127bf565b8a51907f000000000000000000000000000000000000000000000000000000000000000061291d565b611659576001915b60808a019260ff65ffffffffffff60a01b855160a01b169116179860018060a01b0361151182612b61565b1686526004602090815260408088208d830180516001600160a01b0316600090815291909352208054919a82019182106116455761156565ffffffffffff9593989e986115c6989795936115959355612b61565b604080516001600160a01b039092166020830152610180908201529c5160a06101a08f01526102408e0190611d38565b99516001600160a01b03166101c08d0152516101e08c0152516102008b015251166102208901526060880190612b75565b9560a086015b600282106116275761161d878761160982896115fb8a6115f061012085018c612b75565b610160840190612b75565b03601f198101845283611bbd565b604051928392604084526040840190611d38565b9060208301520390f35b60206040826116396001948c51612b75565b019801910190966115cc565b634e487b7160e01b88526011600452602488fd5b83916114e6565b51632c4dce9b60e21b8452600452602483fd5b50346101c15760403660031901126101c157610289611690611a9b565b6116986128c0565b60243590612a12565b50346101c157806003193601126101c1576040517f00000000000000000000000000000000000000000000000000000000000000006001600160a01b03168152602090f35b50346101c157806003193601126101c157604051632fb4b21d60e11b60208201526002548261171482611d5d565b91600181169081156117b5575060011461175b575b61040e836103fa602d82886c2fb13637b1b5a73ab6b132b91d60991b815243600d82015203600d810184520182611bbd565b909250600281527f405787fa12a823e0f2b7631cc41b3ba8828b3321ca811111fa75cd3aa3bb5ace5b83821061179e575050908101602401906103fa602d611729565b600181602092546024858701015201910190611784565b60ff1916602480860191909152831515909302840190920193506103fa9150602d9050611729565b50346101c15760403660031901126101c157806117f8611af6565b6118006128c0565b7f00000000000000000000000000000000000000000000000000000000000000006001600160a01b031690813b1561073f5760405163040b850f60e31b81526001600160a01b03909116600482015260248035908201529082908290604490829084905af18015610596576105855750f35b50346101c15760206118ba61189161188936611cc6565b8092916127bf565b9051907f000000000000000000000000000000000000000000000000000000000000000061291d565b6040519015158152f35b50346101c157806003193601126101c157604080516001815260026020820152f35b50366003190160e08112610425576060136101c1576084356001600160401b0381116104255761191a903690600401611ab3565b5050611924611ae0565b5060c4356001600160401b03811161042557611944903690600401611ab3565b5050337f00000000000000000000000000000000000000000000000000000000000000006001600160a01b0316036119eb57611986611981611ea6565b6128e9565b906024358092036119c85760405162461bcd60e51b815260206004820152600f60248201526e139bdd081a5b5c1b195b595b9d1959608a1b6044820152606490fd5b60449163ffffffff6119d8611ea6565b63309afaf360e21b845216600452602452fd5b6391ac5e4f60e01b815233600452602490fd5b5060203660031901126101c157611a13611a9b565b611a1b6128c0565b7f00000000000000000000000000000000000000000000000000000000000000006001600160a01b0316908290823b156104255763ffffffff602483926040519586938492621cb65b60e51b845216600483015234905af18015611a8e57611a805780f35b611a8991611bbd565b388180f35b50604051903d90823e3d90fd5b6004359063ffffffff82168203611aae57565b600080fd5b9181601f84011215611aae578235916001600160401b038311611aae5760208381860195010111611aae57565b60a435906001600160a01b0382168203611aae57565b600435906001600160a01b0382168203611aae57565b35906001600160a01b0382168203611aae57565b60c081019081106001600160401b03821117611b3b57604052565b634e487b7160e01b600052604160045260246000fd5b60a081019081106001600160401b03821117611b3b57604052565b606081019081106001600160401b03821117611b3b57604052565b604081019081106001600160401b03821117611b3b57604052565b60e081019081106001600160401b03821117611b3b57604052565b90601f801991011681019081106001600160401b03821117611b3b57604052565b6001600160401b038111611b3b57601f01601f191660200190565b929192611c0582611bde565b91611c136040519384611bbd565b829481845281830111611aae578281602093846000960137010152565b9080601f83011215611aae57816020611c4b93359101611bf9565b90565b919060a083820312611aae5760405190611c6782611b51565b819380356001600160401b038111611aae57608092611c87918301611c30565b8352611c9560208201611b0c565b6020840152604081013560408401526060810135606084015201359065ffffffffffff82168203611aae5760800152565b906040600319830112611aae576004356001600160401b038111611aae576101208184036003190112611aae5760040191602435906001600160401b038211611aae57611c4b91600401611c4e565b60005b838110611d285750506000910152565b8181015183820152602001611d18565b90602091611d5181518092818552858086019101611d15565b601f01601f1916010190565b90600182811c92168015611d8d575b6020831014611d7757565b634e487b7160e01b600052602260045260246000fd5b91607f1691611d6c565b359061ffff82168203611aae57565b6001600160401b038111611b3b5760051b60200190565b81601f82011215611aae57803590611dd482611da6565b92611de26040519485611bbd565b828452602060c0818601940283010191818311611aae57602001925b828410611e0c575050505090565b60c084830312611aae5760405190611e2382611b20565b611e2c85611d97565b8252602085013563ffffffff81168103611aae57602083015260408501358015158103611aae5760408301526060850135906001600160401b0382168203611aae5782602092606060c0950152611e8560808801611d97565b6080820152611e9660a08801611b0c565b60a0820152815201930192611dfe565b60043563ffffffff81168103611aae5790565b60405190611ec682611b6c565b8160008152600060208201526040805191611ee083611b87565b60008352600060208401520152565b90611f0491611efc611eb9565b50600061225b565b9060405190611f1282611b87565b348252602082019160008352611f26611eb9565b50519081340361220f5782518061209f575b509063ffffffff60809392611f4d60006128e9565b93511515611fbd60405192611f6184611b51565b60008452602084019687526040840198895260608401908152878401928352610c26604051998a98899788976302637a4560e41b8952604060048a0152511660448801525160648701525160a0608487015260e4860190611d38565b9051151560c483015233602483015203917f00000000000000000000000000000000000000000000000000000000000000006001600160a01b03165af19081156120935760009161200c575090565b8060803d60801161208c575b6120228183611bbd565b81010391608083126101c1576040519261203b84611b6c565b8251845260208301516001600160401b03811681036102935760208501526040603f19909101126101c1575060606040519161207683611b87565b6040810151835201516020820152604082015290565b503d612018565b6040513d6000823e3d90fd5b60405163393f876560e21b81527f00000000000000000000000000000000000000000000000000000000000000006001600160a01b03169190602081600481865afa908115612093576000916121cd575b506001600160a01b03169182156121bc5760008091612170936040519060208201926323b872dd60e01b8452336024840152604483015260648201526064815261213b608482611bbd565b519082865af13d15610e64573d9061215282611bde565b916121606040519384611bbd565b82523d6000602084013e83612bfc565b8051908115159182612198575b505015611f3857635274afe760e01b60005260045260246000fd5b8192509060209181010312611aae5760200151801590811503611aae57388061217d565b6329b99a9560e11b60005260046000fd5b6020813d602011612207575b816121e660209383611bbd565b810103126104255751906001600160a01b03821682036101c15750386120f0565b3d91506121d9565b6304fb820960e51b6000523460045260246000fd5b8051156122315760200190565b634e487b7160e01b600052603260045260246000fd5b80518210156122315760209160051b010190565b929190928351156127485783519161227283611da6565b926122806040519485611bbd565b80845261228f601f1991611da6565b0160005b81811061270057505060005b855181101561235e57806122b560019288612247565b5161ffff8151169063ffffffff6020820151169060408101511515906001600160401b0360608201511661ffff6080830151169160a08880821b039101511692604051946311d1b93d60e11b602087015260048652612315602487611bbd565b6040519661232288611ba2565b8752602087015260408601526060850152608084015260a083015260c082015261234c8287612247565b526123578186612247565b500161229f565b5092909350600360ff845116116126af57825160ff166003810361269e576000905b604085015115156001600160401b0360608701511661ffff6080880151169660a0600180821b039101511697604051936123b985611b20565b845263ffffffff602085019516855260408401928352606084019182526080840197885260a084019889526123ee8751612bd3565b604051600160f01b60208201526001600160f01b031960f093841b811660228301529190921b16602482015260068152612429602682611bbd565b976000985b87518a10156125a2576124418a89612247565b519081519160c08101805151936023850180951161258c5760206125199461258494601f946124ed600b8561247760019c612bd3565b8186015198604051998a92846124968186019b8c815193849201611d15565b840192600160f81b8685015261ffff60f01b9060f01b1660218401528f60f01b602384015261ffff60f01b9060f01b16602583015263ffffffff60e01b9060e01b1660278201520301601419810188520186611bbd565b6040820151151591606081015160a060808301519201519251946040519a8b98518092898b0190611d15565b87019360f81b868501526001600160401b0360c01b9060c01b16602184015261ffff60f01b9060f01b1660298301526bffffffffffffffffffffffff199060601b16602b8201526125738251809385603f85019101611d15565b01010301601f198101835282611bbd565b99019861242e565b634e487b7160e01b600052601160045260246000fd5b959850919396909295508496519563ffffffff87166125c6575b5050505050505090565b6126929697509160279593916020959351935115159251905191519260405199866125fa8c985180928b808c019101611d15565b600160f81b90880189810191909152600160f01b602182015260f896871b6001600160f81b031916602382015260e09190911b6001600160e01b0319166024820152941b602885015260c01b6001600160c01b031916602984015260f01b6001600160f01b031916603183015260601b6bffffffffffffffffffffffff19166033820152600791900390910190810184520182611bbd565b388080808080806125bc565b63ffffffff60208501511690612380565b60405162461bcd60e51b815260206004820152602360248201527f4c7a52656164436f756e7465723a20696e76616c696420636f6d70757465207460448201526279706560e81b6064820152608490fd5b60209060405161270f81611ba2565b60008152600083820152600060408201526000606082015260006080820152600060a0820152606060c082015282828801015201612293565b60405162461bcd60e51b815260206004820152601d60248201527f4c7a52656164436f756e7465723a20656d7074792072657175657374730000006044820152606490fd5b903590601e1981360301821215611aae57018035906001600160401b038211611aae57602001918136038313611aae57565b906127d76127d0604084018461278d565b3691611bf9565b60208151910120916127ef6127d0606083018361278d565b602081519101209161280460e083018361278d565b603493919311611aae5760018060a01b0360208301511660c0604084015192601465ffffffffffff6080606088015197015116966040519860208a019a60018060a01b038535168c52602085013560408c015260608b015260808a0152608083013560a08a015201358288015260a081013560e0880152013561010086015246610120860152306101408601526101608501526101808401526101a08301526101c08201526101c081526128ba6101e082611bbd565b51902090565b6000546001600160a01b031633036128d457565b63118cdaa760e01b6000523360045260246000fd5b63ffffffff16806000526001602052604060002054908115612909575090565b63f6ff4fb760e01b60005260045260246000fd5b60009392906001600160a01b03811615612a0957604051928251806040146129e5576041146129a1575b8515612954575b50505050565b602093949550630b135d3f60e11b855260048501526024840193849260408452805185019081604484019160045afa5060443d01915afa9051630b135d3f60e11b1416903880808061294e565b9450606082015160001a60205260408201516060525b8460005260208201516040526020600160806000825afa51811860601b3d1194600060605283604052612947565b50604083015160ff81901c601b016020526001600160ff1b031660605294506129b7565b50600093505050565b7f238399d427b947898edb290f5ff0f9109849b1c3ba196a42e35f00c50a54b98b9163ffffffff604092169081600052600160205280836000205582519182526020820152a1565b7f00000000000000000000000000000000000000000000000000000000000000006001600160a01b03163303612a8c57565b60405162461bcd60e51b815260206004820152601560248201527414d95b99195c881b9bdd08115b9d1c9e541bda5b9d605a1b6044820152606490fd5b9080601f83011215611aae576040805192612ae48285611bbd565b83918101928311611aae57905b828210612afe5750505090565b8135815260209182019101612af1565b81601f82011215611aae57604090815192612b298385611bbd565b83906080830192818411611aae57915b838310612b4857505050505090565b60208591612b568486612ac9565b815201920191612b39565b356001600160a01b0381168103611aae5790565b906000905b60028210612b8757505050565b6020806001928551815201930191019091612b7a565b356001600160f01b0319811692919060028210612bb8575050565b6001600160f01b031960029290920360031b82901b16169150565b61ffff8111612be35761ffff1690565b6306dfcc6560e41b600052601060045260245260446000fd5b90612c225750805115612c1157805190602001fd5b630a12f52160e11b60005260046000fd5b81511580612c54575b612c33575090565b639996b31560e01b60009081526001600160a01b0391909116600452602490fd5b50803b15612c2b56","linkReferences":{}},"methodIdentifiers":{"addStake(uint32)":"0396cb60","allowInitializePath((uint32,bytes32,uint64))":"ff7bd03d","buildCmd(uint16,(uint16,uint32,bool,uint64,uint16,address)[],(uint8,uint32,bool,uint64,uint16,address))":"a8cb182f","data()":"73d4a13a","deposit()":"d0e30db0","endpoint()":"5e280f11","entryPoint()":"b0d691fe","getDeposit()":"c399ec88","getHash((address,uint256,bytes,bytes,bytes32,uint256,bytes32,bytes,bytes),(bytes,address,uint256,uint256,uint48))":"b73dd1da","identifier()":"7998a1c4","isComposeMsgSender((uint32,bytes32,uint64),bytes,address)":"82413eac","isValidWithdrawSignature((address,uint256,bytes,bytes,bytes32,uint256,bytes32,bytes,bytes),(bytes,address,uint256,uint256,uint48))":"1c985b7a","lzMap(bytes,bytes)":"e60c287c","lzReceive((uint32,bytes32,uint64),bytes32,bytes,address,bytes)":"13137d65","lzReduce(bytes,bytes[])":"eba1cf08","myInformation()":"23a3727a","nextNonce(uint32,bytes32)":"7d25a05e","oAppVersion()":"17442b70","owner()":"8da5cb5b","peers(uint32)":"bb0b6a53","postOp(uint8,bytes,uint256,uint256)":"7c627b21","renounceOwnership()":"715018a6","send(uint32,uint16,(uint16,uint32,bool,uint64,uint16,address)[],(uint8,uint32,bool,uint64,uint16,address),bytes)":"9172f012","setDelegate(address)":"ca5eb5e1","setPeer(uint32,bytes32)":"3400288b","setReadChannel(uint32,bool)":"f0a9e481","transferOwnership(address)":"f2fde38b","unlockStake()":"bb9fe6bf","validatePaymasterUserOp((address,uint256,bytes,bytes,bytes32,uint256,bytes32,bytes,bytes),bytes32,uint256)":"52b7512c","verifyingSigner()":"23d9ac9b","withdrawStake(address)":"c23a5cea","withdrawTo(address,uint256)":"205c2878","withdrawTokenExcess(address)":"cb74b145"},"id":0}