{"abi":[{"type":"constructor","inputs":[{"name":"name","type":"string","internalType":"string"},{"name":"symbol","type":"string","internalType":"string"},{"name":"_paymentToken","type":"address","internalType":"address"},{"name":"_mintPrice","type":"uint256","internalType":"uint256"}],"stateMutability":"nonpayable"},{"type":"function","name":"approve","inputs":[{"name":"to","type":"address","internalType":"address"},{"name":"tokenId","type":"uint256","internalType":"uint256"}],"outputs":[],"stateMutability":"nonpayable"},{"type":"function","name":"balanceOf","inputs":[{"name":"owner","type":"address","internalType":"address"}],"outputs":[{"name":"","type":"uint256","internalType":"uint256"}],"stateMutability":"view"},{"type":"function","name":"getApproved","inputs":[{"name":"tokenId","type":"uint256","internalType":"uint256"}],"outputs":[{"name":"","type":"address","internalType":"address"}],"stateMutability":"view"},{"type":"function","name":"isApprovedForAll","inputs":[{"name":"owner","type":"address","internalType":"address"},{"name":"operator","type":"address","internalType":"address"}],"outputs":[{"name":"","type":"bool","internalType":"bool"}],"stateMutability":"view"},{"type":"function","name":"mint","inputs":[],"outputs":[],"stateMutability":"nonpayable"},{"type":"function","name":"mintPrice","inputs":[],"outputs":[{"name":"","type":"uint256","internalType":"uint256"}],"stateMutability":"view"},{"type":"function","name":"name","inputs":[],"outputs":[{"name":"","type":"string","internalType":"string"}],"stateMutability":"view"},{"type":"function","name":"owner","inputs":[],"outputs":[{"name":"","type":"address","internalType":"address"}],"stateMutability":"view"},{"type":"function","name":"ownerOf","inputs":[{"name":"tokenId","type":"uint256","internalType":"uint256"}],"outputs":[{"name":"","type":"address","internalType":"address"}],"stateMutability":"view"},{"type":"function","name":"paymentToken","inputs":[],"outputs":[{"name":"","type":"address","internalType":"contract IERC20"}],"stateMutability":"view"},{"type":"function","name":"renounceOwnership","inputs":[],"outputs":[],"stateMutability":"nonpayable"},{"type":"function","name":"safeTransferFrom","inputs":[{"name":"from","type":"address","internalType":"address"},{"name":"to","type":"address","internalType":"address"},{"name":"tokenId","type":"uint256","internalType":"uint256"}],"outputs":[],"stateMutability":"nonpayable"},{"type":"function","name":"safeTransferFrom","inputs":[{"name":"from","type":"address","internalType":"address"},{"name":"to","type":"address","internalType":"address"},{"name":"tokenId","type":"uint256","internalType":"uint256"},{"name":"data","type":"bytes","internalType":"bytes"}],"outputs":[],"stateMutability":"nonpayable"},{"type":"function","name":"setApprovalForAll","inputs":[{"name":"operator","type":"address","internalType":"address"},{"name":"approved","type":"bool","internalType":"bool"}],"outputs":[],"stateMutability":"nonpayable"},{"type":"function","name":"setMintPrice","inputs":[{"name":"newPrice","type":"uint256","internalType":"uint256"}],"outputs":[],"stateMutability":"nonpayable"},{"type":"function","name":"supportsInterface","inputs":[{"name":"interfaceId","type":"bytes4","internalType":"bytes4"}],"outputs":[{"name":"","type":"bool","internalType":"bool"}],"stateMutability":"view"},{"type":"function","name":"symbol","inputs":[],"outputs":[{"name":"","type":"string","internalType":"string"}],"stateMutability":"view"},{"type":"function","name":"tokenURI","inputs":[{"name":"tokenId","type":"uint256","internalType":"uint256"}],"outputs":[{"name":"","type":"string","internalType":"string"}],"stateMutability":"view"},{"type":"function","name":"transferFrom","inputs":[{"name":"from","type":"address","internalType":"address"},{"name":"to","type":"address","internalType":"address"},{"name":"tokenId","type":"uint256","internalType":"uint256"}],"outputs":[],"stateMutability":"nonpayable"},{"type":"function","name":"transferOwnership","inputs":[{"name":"newOwner","type":"address","internalType":"address"}],"outputs":[],"stateMutability":"nonpayable"},{"type":"function","name":"withdrawFees","inputs":[{"name":"amount","type":"uint256","internalType":"uint256"}],"outputs":[],"stateMutability":"nonpayable"},{"type":"event","name":"Approval","inputs":[{"name":"owner","type":"address","indexed":true,"internalType":"address"},{"name":"approved","type":"address","indexed":true,"internalType":"address"},{"name":"tokenId","type":"uint256","indexed":true,"internalType":"uint256"}],"anonymous":false},{"type":"event","name":"ApprovalForAll","inputs":[{"name":"owner","type":"address","indexed":true,"internalType":"address"},{"name":"operator","type":"address","indexed":true,"internalType":"address"},{"name":"approved","type":"bool","indexed":false,"internalType":"bool"}],"anonymous":false},{"type":"event","name":"OwnershipTransferred","inputs":[{"name":"previousOwner","type":"address","indexed":true,"internalType":"address"},{"name":"newOwner","type":"address","indexed":true,"internalType":"address"}],"anonymous":false},{"type":"event","name":"Transfer","inputs":[{"name":"from","type":"address","indexed":true,"internalType":"address"},{"name":"to","type":"address","indexed":true,"internalType":"address"},{"name":"tokenId","type":"uint256","indexed":true,"internalType":"uint256"}],"anonymous":false},{"type":"error","name":"ERC721IncorrectOwner","inputs":[{"name":"sender","type":"address","internalType":"address"},{"name":"tokenId","type":"uint256","internalType":"uint256"},{"name":"owner","type":"address","internalType":"address"}]},{"type":"error","name":"ERC721InsufficientApproval","inputs":[{"name":"operator","type":"address","internalType":"address"},{"name":"tokenId","type":"uint256","internalType":"uint256"}]},{"type":"error","name":"ERC721InvalidApprover","inputs":[{"name":"approver","type":"address","internalType":"address"}]},{"type":"error","name":"ERC721InvalidOperator","inputs":[{"name":"operator","type":"address","internalType":"address"}]},{"type":"error","name":"ERC721InvalidOwner","inputs":[{"name":"owner","type":"address","internalType":"address"}]},{"type":"error","name":"ERC721InvalidReceiver","inputs":[{"name":"receiver","type":"address","internalType":"address"}]},{"type":"error","name":"ERC721InvalidSender","inputs":[{"name":"sender","type":"address","internalType":"address"}]},{"type":"error","name":"ERC721NonexistentToken","inputs":[{"name":"tokenId","type":"uint256","internalType":"uint256"}]},{"type":"error","name":"OwnableInvalidOwner","inputs":[{"name":"owner","type":"address","internalType":"address"}]},{"type":"error","name":"OwnableUnauthorizedAccount","inputs":[{"name":"account","type":"address","internalType":"address"}]}],"bytecode":{"object":"0x608060405234610462576116a88038038061001981610467565b9283398101906080818303126104625780516001600160401b038111610462578261004591830161048c565b602082015190926001600160401b0382116104625761006591830161048c565b604082015190916001600160a01b03821691829003610462576060015183519091906001600160401b03811161036d57600054600181811c91168015610458575b602082101461034d57601f81116103f4575b50602094601f821160011461038e57948192939495600092610383575b50508160011b916000199060031b1c1916176000555b82516001600160401b03811161036d57600154600181811c91168015610363575b602082101461034d57601f81116102e8575b506020601f82116001146102815781929394600092610276575b50508160011b916000199060031b1c1916176001555b33156102605760068054336001600160a01b03198216811790925560405191906001600160a01b03167f8be0079c531659141344cd1fd0a4f28419497f9722a3daafe3b4186f6b6457e0600080a3811561021e575081156101cf57600980546001600160a01b0319169190911790556008556040516111b090816104f88239f35b60405162461bcd60e51b815260206004820152602160248201527f4d696e74207072696365206d7573742062652067726561746572207468616e206044820152600360fc1b6064820152608490fd5b62461bcd60e51b815260206004820152601d60248201527f496e76616c6964207061796d656e7420746f6b656e20616464726573730000006044820152606490fd5b631e4fbdf760e01b600052600060045260246000fd5b015190503880610138565b601f198216906001600052806000209160005b8181106102d0575095836001959697106102b7575b505050811b0160015561014e565b015160001960f88460031b161c191690553880806102a9565b9192602060018192868b015181550194019201610294565b60016000527fb10e2d527612073b26eecdfd717e6a320cf44b4afac2b0732d9fcbe2b7fa0cf6601f830160051c81019160208410610343575b601f0160051c01905b818110610337575061011e565b6000815560010161032a565b9091508190610321565b634e487b7160e01b600052602260045260246000fd5b90607f169061010c565b634e487b7160e01b600052604160045260246000fd5b0151905038806100d5565b601f1982169560008052806000209160005b8881106103dc575083600195969798106103c3575b505050811b016000556100eb565b015160001960f88460031b161c191690553880806103b5565b919260206001819286850151815501940192016103a0565b600080527f290decd9548b62a8d60345a988386fc84ba6bc95484008f6362f93160ef3e563601f830160051c8101916020841061044e575b601f0160051c01905b81811061044257506100b8565b60008155600101610435565b909150819061042c565b90607f16906100a6565b600080fd5b6040519190601f01601f191682016001600160401b0381118382101761036d57604052565b81601f82011215610462578051906001600160401b03821161036d576104bb601f8301601f1916602001610467565b92828452602083830101116104625760005b8281106104e257505060206000918301015290565b806020809284010151828287010152016104cd56fe608080604052600436101561001357600080fd5b600090813560e01c90816301ffc9a714610ce35750806306fdde0314610c28578063081812fc14610beb578063095ea7b314610b035780631249c58b1461077757806323b872dd1461075f5780633013ce291461073657806342842e0e146107065780635e318e071461062d5780636352211e146105fc5780636817c76c146105de57806370a082311461058b578063715018a61461052e5780638da5cb5b1461050557806395d89b41146103f8578063a22cb46514610356578063b88d4fde146102b8578063c87b56dd1461025c578063e985e9c514610202578063f2fde38b146101785763f4a0a5281461010857600080fd5b346101755760203660031901126101755760043561012461104b565b80156101305760085580f35b60405162461bcd60e51b815260206004820152601c60248201527f5072696365206d7573742062652067726561746572207468616e2030000000006044820152606490fd5b80fd5b503461017557602036600319011261017557610192610d91565b61019a61104b565b6001600160a01b031680156101ee57600680546001600160a01b0319811683179091556001600160a01b03167f8be0079c531659141344cd1fd0a4f28419497f9722a3daafe3b4186f6b6457e0600080a380f35b631e4fbdf760e01b82526004829052602482fd5b503461017557604036600319011261017557604061021e610d91565b91610227610dac565b9260018060a01b031681526005602052209060018060a01b0316600052602052602060ff604060002054166040519015158152f35b503461017557602036600319011261017557610279600435611014565b5080604051610289602082610dfc565b52506102b460405161029c602082610dfc565b60008152604051918291602083526020830190610d50565b0390f35b5034610175576080366003190112610175576102d2610d91565b6102da610dac565b6044356064359167ffffffffffffffff83116103525736602384011215610352578260040135938561030b86610e34565b946103196040519687610dfc565b868652366024888301011161034e578661034b976024602093018389013786010152610346838383610e68565b611074565b80f35b5080fd5b8480fd5b503461017557604036600319011261017557610370610d91565b602435908115158092036103f4576001600160a01b03169081156103e0573383526005602052604083208284526020526040832060ff1981541660ff83161790556040519081527f17307eab39ab6107e8899845ad3d59bd9653f200f220920489ca2b5937696c3160203392a380f35b630b61174360e31b83526004829052602483fd5b8280fd5b50346101755780600319360112610175576040519080600154908160011c916001811680156104fb575b6020841081146104e7578386529081156104c05750600114610463575b6102b48461044f81860382610dfc565b604051918291602083526020830190610d50565b600181527fb10e2d527612073b26eecdfd717e6a320cf44b4afac2b0732d9fcbe2b7fa0cf6939250905b8082106104a65750909150810160200161044f8261043f565b91926001816020925483858801015201910190929161048d565b60ff191660208087019190915292151560051b8501909201925061044f915083905061043f565b634e487b7160e01b83526022600452602483fd5b92607f1692610422565b50346101755780600319360112610175576006546040516001600160a01b039091168152602090f35b503461017557806003193601126101755761054761104b565b600680546001600160a01b0319811690915581906001600160a01b03167f8be0079c531659141344cd1fd0a4f28419497f9722a3daafe3b4186f6b6457e08280a380f35b5034610175576020366003190112610175576001600160a01b036105ad610d91565b1680156105ca578160409160209352600383522054604051908152f35b6322718ad960e21b82526004829052602482fd5b50346101755780600319360112610175576020600854604051908152f35b503461017557602036600319011261017557602061061b600435611014565b6040516001600160a01b039091168152f35b50346101755760203660031901126101755761064761104b565b80602060018060a01b036009541660446040518094819363a9059cbb60e01b835233600484015260043560248401525af19081156106fb5782916106cc575b501561068f5780f35b60405162461bcd60e51b8152602060048201526015602482015274119959481dda5d1a191c985dd85b0819985a5b1959605a1b6044820152606490fd5b6106ee915060203d6020116106f4575b6106e68183610dfc565b810190610e50565b38610686565b503d6106dc565b6040513d84823e3d90fd5b50346101755761034b61071836610dc2565b9060405192610728602085610dfc565b858452610346838383610e68565b50346101755780600319360112610175576009546040516001600160a01b039091168152602090f35b50346101755761034b61077136610dc2565b91610e68565b5034610175578060031936011261017557600954604051636eb1769f60e11b81523360048201523060248201526001600160a01b0390911690602081604481855afa908115610af8578391610ac6575b50600854809110610a81578291606460209260405194859384926323b872dd60e01b845233600485015230602485015260448401525af19081156106fb578291610a62575b5015610a255760016007540190816007556020916040519061082e8483610dfc565b8282523315610a11578083526002845260408320546001600160a01b031680151590816109dd575b338086526003875260408087208054600101905584875260028852862080546001600160a01b031916821790558390827fddf252ad1be2c89b69c2b068fc378daa952ba7f163c4a11628f55a4df523b3ef8880a4506109c957333b6108b9578280f35b6108f39184916040519384928392630a85bd0160e11b84523360048501528760248501526044840152608060648401526084830190610d50565b038185335af1829181610989575b5061095557503d1561094e573d61091781610e34565b906109256040519283610dfc565b81523d828483013e5b8051928361094957633250574960e11b835233600452602483fd5b019050fd5b606061092e565b9091506001600160e01b03191663757a42ff60e11b01610976578038808280f35b633250574960e11b815233600452602490fd5b9091508381813d83116109c2575b6109a18183610dfc565b810103126103f457516001600160e01b0319811681036103f4579038610901565b503d610997565b6339e3563760e11b83526004839052602483fd5b600083815260046020526040902080546001600160a01b031916905580855260038652604085208054600019019055610856565b633250574960e11b83526004839052602483fd5b60405162461bcd60e51b8152602060048201526015602482015274151bdad95b881d1c985b9cd9995c8819985a5b1959605a1b6044820152606490fd5b610a7b915060203d6020116106f4576106e68183610dfc565b3861080c565b60405162461bcd60e51b815260206004820152601c60248201527f496e73756666696369656e7420746f6b656e20616c6c6f77616e6365000000006044820152606490fd5b90506020813d602011610af0575b81610ae160209383610dfc565b810103126103f45751386107c7565b3d9150610ad4565b6040513d85823e3d90fd5b503461017557604036600319011261017557610b1d610d91565b602435610b2981611014565b33151580610bd8575b80610bad575b610b9a5781906001600160a01b0384811691167f8c5be1e5ebec7d5bd14f71427d1e84f3dd0314c0f7b2291e5b200ac8c7c3b9258680a4825260046020526040822080546001600160a01b0319166001600160a01b0390921691909117905580f35b63a9fbf51f60e01b845233600452602484fd5b506001600160a01b038116845260056020908152604080862033875290915284205460ff1615610b38565b506001600160a01b038116331415610b32565b503461017557602036600319011261017557602090600435610c0c81611014565b50815260048252604060018060a01b0391205416604051908152f35b503461017557806003193601126101755760405190808054908160011c91600181168015610cd9575b6020841081146104e7578386529081156104c05750600114610c7d576102b48461044f81860382610dfc565b8080527f290decd9548b62a8d60345a988386fc84ba6bc95484008f6362f93160ef3e563939250905b808210610cbf5750909150810160200161044f8261043f565b919260018160209254838588010152019101909291610ca6565b92607f1692610c51565b90503461034e57602036600319011261034e5760043563ffffffff60e01b81168091036103f457602092506380ac58cd60e01b8114908115610d3f575b8115610d2e575b5015158152f35b6301ffc9a760e01b14905038610d27565b635b5e139f60e01b81149150610d20565b919082519283825260005b848110610d7c575050826000602080949584010152601f8019910116010190565b80602080928401015182828601015201610d5b565b600435906001600160a01b0382168203610da757565b600080fd5b602435906001600160a01b0382168203610da757565b6060906003190112610da7576004356001600160a01b0381168103610da757906024356001600160a01b0381168103610da7579060443590565b90601f8019910116810190811067ffffffffffffffff821117610e1e57604052565b634e487b7160e01b600052604160045260246000fd5b67ffffffffffffffff8111610e1e57601f01601f191660200190565b90816020910312610da757518015158103610da75790565b6001600160a01b0390911691908215610ffe576000828152600260205260408120546001600160a01b0316938391859033151580610f66575b507fddf252ad1be2c89b69c2b068fc378daa952ba7f163c4a11628f55a4df523b3ef9082610f31575b83815260036020526040812060018154019055848152600260205260408120846bffffffffffffffffffffffff60a01b82541617905580a46001600160a01b0316808303610f1757505050565b6364283d7b60e01b60005260045260245260445260646000fd5b600085815260046020526040902080546001600160a01b03191690558281526003602052604081208054600019019055610eca565b915091925080610faf575b15610f80579084849238610ea1565b839085610f9957602491637e27328960e01b8252600452fd5b60449163177e802f60e01b825233600452602452fd5b503385148015610fdd575b80610f715750838152600460205260408120546001600160a01b03163314610f71565b5084815260056020908152604080832033845290915281205460ff16610fba565b633250574960e11b600052600060045260246000fd5b6000818152600260205260409020546001600160a01b0316908115611037575090565b637e27328960e01b60005260045260246000fd5b6006546001600160a01b0316330361105f57565b63118cdaa760e01b6000523360045260246000fd5b9291813b611083575b50505050565b604051630a85bd0160e11b81523360048201526001600160a01b03948516602482015260448101919091526080606482015292169190602090829081906110ce906084830190610d50565b03816000865af1809160009161116d575b509061113857503d15611131573d6110f681610e34565b906111046040519283610dfc565b81523d6000602083013e5b8051908161112c5782633250574960e11b60005260045260246000fd5b602001fd5b606061110f565b6001600160e01b03191663757a42ff60e11b0161115957503880808061107d565b633250574960e11b60005260045260246000fd5b6020813d6020116111a8575b8161118660209383610dfc565b8101031261034e5751906001600160e01b0319821682036101755750386110df565b3d915061117956","linkReferences":{}},"methodIdentifiers":{"approve(address,uint256)":"095ea7b3","balanceOf(address)":"70a08231","getApproved(uint256)":"081812fc","isApprovedForAll(address,address)":"e985e9c5","mint()":"1249c58b","mintPrice()":"6817c76c","name()":"06fdde03","owner()":"8da5cb5b","ownerOf(uint256)":"6352211e","paymentToken()":"3013ce29","renounceOwnership()":"715018a6","safeTransferFrom(address,address,uint256)":"42842e0e","safeTransferFrom(address,address,uint256,bytes)":"b88d4fde","setApprovalForAll(address,bool)":"a22cb465","setMintPrice(uint256)":"f4a0a528","supportsInterface(bytes4)":"01ffc9a7","symbol()":"95d89b41","tokenURI(uint256)":"c87b56dd","transferFrom(address,address,uint256)":"23b872dd","transferOwnership(address)":"f2fde38b","withdrawFees(uint256)":"5e318e07"},"id":2}