{"abi":[{"type":"constructor","inputs":[{"name":"_entryPoint","type":"address","internalType":"contract IEntryPoint"},{"name":"_verifyingSigner","type":"address","internalType":"address"}],"stateMutability":"nonpayable"},{"type":"function","name":"addStake","inputs":[{"name":"unstakeDelaySec","type":"uint32","internalType":"uint32"}],"outputs":[],"stateMutability":"payable"},{"type":"function","name":"deposit","inputs":[],"outputs":[],"stateMutability":"payable"},{"type":"function","name":"entryPoint","inputs":[],"outputs":[{"name":"","type":"address","internalType":"contract IEntryPoint"}],"stateMutability":"view"},{"type":"function","name":"getDeposit","inputs":[],"outputs":[{"name":"","type":"uint256","internalType":"uint256"}],"stateMutability":"view"},{"type":"function","name":"getHash","inputs":[{"name":"userOp","type":"tuple","internalType":"struct PackedUserOperation","components":[{"name":"sender","type":"address","internalType":"address"},{"name":"nonce","type":"uint256","internalType":"uint256"},{"name":"initCode","type":"bytes","internalType":"bytes"},{"name":"callData","type":"bytes","internalType":"bytes"},{"name":"accountGasLimits","type":"bytes32","internalType":"bytes32"},{"name":"preVerificationGas","type":"uint256","internalType":"uint256"},{"name":"gasFees","type":"bytes32","internalType":"bytes32"},{"name":"paymasterAndData","type":"bytes","internalType":"bytes"},{"name":"signature","type":"bytes","internalType":"bytes"}]},{"name":"withdrawRequest","type":"tuple","internalType":"struct SolvingPaymaster.WithdrawRequest","components":[{"name":"signature","type":"bytes","internalType":"bytes"},{"name":"asset","type":"address","internalType":"address"},{"name":"amount","type":"uint256","internalType":"uint256"},{"name":"nonce","type":"uint256","internalType":"uint256"},{"name":"expiry","type":"uint48","internalType":"uint48"}]}],"outputs":[{"name":"","type":"bytes32","internalType":"bytes32"}],"stateMutability":"view"},{"type":"function","name":"isValidWithdrawSignature","inputs":[{"name":"userOp","type":"tuple","internalType":"struct PackedUserOperation","components":[{"name":"sender","type":"address","internalType":"address"},{"name":"nonce","type":"uint256","internalType":"uint256"},{"name":"initCode","type":"bytes","internalType":"bytes"},{"name":"callData","type":"bytes","internalType":"bytes"},{"name":"accountGasLimits","type":"bytes32","internalType":"bytes32"},{"name":"preVerificationGas","type":"uint256","internalType":"uint256"},{"name":"gasFees","type":"bytes32","internalType":"bytes32"},{"name":"paymasterAndData","type":"bytes","internalType":"bytes"},{"name":"signature","type":"bytes","internalType":"bytes"}]},{"name":"withdrawRequest","type":"tuple","internalType":"struct SolvingPaymaster.WithdrawRequest","components":[{"name":"signature","type":"bytes","internalType":"bytes"},{"name":"asset","type":"address","internalType":"address"},{"name":"amount","type":"uint256","internalType":"uint256"},{"name":"nonce","type":"uint256","internalType":"uint256"},{"name":"expiry","type":"uint48","internalType":"uint48"}]}],"outputs":[{"name":"","type":"bool","internalType":"bool"}],"stateMutability":"view"},{"type":"function","name":"owner","inputs":[],"outputs":[{"name":"","type":"address","internalType":"address"}],"stateMutability":"view"},{"type":"function","name":"postOp","inputs":[{"name":"mode","type":"uint8","internalType":"enum IPaymaster.PostOpMode"},{"name":"context","type":"bytes","internalType":"bytes"},{"name":"actualGasCost","type":"uint256","internalType":"uint256"},{"name":"actualUserOpFeePerGas","type":"uint256","internalType":"uint256"}],"outputs":[],"stateMutability":"nonpayable"},{"type":"function","name":"renounceOwnership","inputs":[],"outputs":[],"stateMutability":"nonpayable"},{"type":"function","name":"transferOwnership","inputs":[{"name":"newOwner","type":"address","internalType":"address"}],"outputs":[],"stateMutability":"nonpayable"},{"type":"function","name":"unlockStake","inputs":[],"outputs":[],"stateMutability":"nonpayable"},{"type":"function","name":"validatePaymasterUserOp","inputs":[{"name":"userOp","type":"tuple","internalType":"struct PackedUserOperation","components":[{"name":"sender","type":"address","internalType":"address"},{"name":"nonce","type":"uint256","internalType":"uint256"},{"name":"initCode","type":"bytes","internalType":"bytes"},{"name":"callData","type":"bytes","internalType":"bytes"},{"name":"accountGasLimits","type":"bytes32","internalType":"bytes32"},{"name":"preVerificationGas","type":"uint256","internalType":"uint256"},{"name":"gasFees","type":"bytes32","internalType":"bytes32"},{"name":"paymasterAndData","type":"bytes","internalType":"bytes"},{"name":"signature","type":"bytes","internalType":"bytes"}]},{"name":"userOpHash","type":"bytes32","internalType":"bytes32"},{"name":"maxCost","type":"uint256","internalType":"uint256"}],"outputs":[{"name":"context","type":"bytes","internalType":"bytes"},{"name":"validationData","type":"uint256","internalType":"uint256"}],"stateMutability":"nonpayable"},{"type":"function","name":"verifyingSigner","inputs":[],"outputs":[{"name":"","type":"address","internalType":"address"}],"stateMutability":"view"},{"type":"function","name":"withdrawStake","inputs":[{"name":"withdrawAddress","type":"address","internalType":"address payable"}],"outputs":[],"stateMutability":"nonpayable"},{"type":"function","name":"withdrawTo","inputs":[{"name":"withdrawAddress","type":"address","internalType":"address payable"},{"name":"amount","type":"uint256","internalType":"uint256"}],"outputs":[],"stateMutability":"nonpayable"},{"type":"function","name":"withdrawTokenExcess","inputs":[{"name":"token","type":"address","internalType":"address"}],"outputs":[],"stateMutability":"nonpayable"},{"type":"event","name":"OwnershipTransferred","inputs":[{"name":"previousOwner","type":"address","indexed":true,"internalType":"address"},{"name":"newOwner","type":"address","indexed":true,"internalType":"address"}],"anonymous":false},{"type":"error","name":"InvalidNonce","inputs":[{"name":"nonce","type":"uint256","internalType":"uint256"}]},{"type":"error","name":"NoExcess","inputs":[]},{"type":"error","name":"OwnableInvalidOwner","inputs":[{"name":"owner","type":"address","internalType":"address"}]},{"type":"error","name":"OwnableUnauthorizedAccount","inputs":[{"name":"account","type":"address","internalType":"address"}]}],"bytecode":{"object":"0x60c080604052346101e857604081611172803803809161001f82856101ed565b8339810103126101e85780516001600160a01b038116918282036101e85760200151916001600160a01b03831683036101e85733156101d25760008054336001600160a01b031982168117835560405193602093859360249385939290916001600160a01b0316907f8be0079c531659141344cd1fd0a4f28419497f9722a3daafe3b4186f6b6457e09080a36301ffc9a760e01b825263122a0e9b60e31b60048301525afa9081156101c657600091610184575b501561013f5760805260a052604051610f4b9081610227823960805181818161016401528181610318015281816103ba01528181610442015281816104ce0152818161093701528181610a210152610eca015260a051818181610771015281816108e301526109cb0152f35b60405162461bcd60e51b815260206004820152601e60248201527f49456e747279506f696e7420696e74657266616365206d69736d6174636800006044820152606490fd5b6020813d6020116101be575b8161019d602093836101ed565b810103126101ba57519081151582036101b75750386100d3565b80fd5b5080fd5b3d9150610190565b6040513d6000823e3d90fd5b631e4fbdf760e01b600052600060045260246000fd5b600080fd5b601f909101601f19168101906001600160401b0382119082101761021057604052565b634e487b7160e01b600052604160045260246000fdfe6080604052600436101561001257600080fd5b6000803560e01c80630396cb60146109f95780631c985b7a146109a7578063205c28781461091257806323d9ac9b146108cd57806352b7512c14610666578063715018a61461060c5780637c627b21146105245780638da5cb5b146104fd578063b0d691fe146104b8578063b73dd1da14610496578063bb9fe6bf14610426578063c23a5cea14610395578063c399ec88146102ec578063cb74b145146101de578063d0e30db0146101555763f2fde38b146100cd57600080fd5b34610152576020366003190112610152576100e6610b1c565b6100ee610daa565b6001600160a01b0316801561013e5781546001600160a01b03198116821783556001600160a01b03167f8be0079c531659141344cd1fd0a4f28419497f9722a3daafe3b4186f6b6457e08380a380f35b631e4fbdf760e01b82526004829052602482fd5b80fd5b508060031936011261015257807f00000000000000000000000000000000000000000000000000000000000000006001600160a01b0316803b156101db57816024916040519283809263b760faf960e01b825230600483015234905af180156101d0576101bf5750f35b816101c991610a98565b6101525780f35b6040513d84823e3d90fd5b50fd5b5034610152576020366003190112610152576101f8610b1c565b6001600160a01b038116156102af5733825260016020526040822060018060a01b03821660005260205260406000205480156102a05733835260016020526040832060018060a01b038316600052602052826040600020553360145260345263a9059cbb60601b82526020826044601082855af1908160018451141615610282575b828060345280f35b3b153d17101561029357388061027a565b6390b8ec1890526004601cfd5b63360b1dbf60e11b8352600483fd5b60405162461bcd60e51b8152602060048201526015602482015274496e76616c696420746f6b656e206164647265737360581b6044820152606490fd5b50346101525780600319360112610152576040516370a0823160e01b81523060048201526020816024817f00000000000000000000000000000000000000000000000000000000000000006001600160a01b03165afa9081156101d057829161035b575b602082604051908152f35b90506020813d60201161038d575b8161037660209383610a98565b8101031261038957602091505138610350565b5080fd5b3d9150610369565b503461015257602036600319011261015257806103b0610b1c565b6103b8610daa565b7f00000000000000000000000000000000000000000000000000000000000000006001600160a01b031690813b156104225760405163611d2e7560e11b81526001600160a01b0390911660048201529082908290602490829084905af180156101d0576101bf5750f35b5050fd5b503461015257806003193601126101525761043f610daa565b807f00000000000000000000000000000000000000000000000000000000000000006001600160a01b0316803b156101db5781809160046040518094819363bb9fe6bf60e01b83525af180156101d0576101bf5750f35b50346101525760206104b06104aa36610be1565b90610ca9565b604051908152f35b50346101525780600319360112610152576040517f00000000000000000000000000000000000000000000000000000000000000006001600160a01b03168152602090f35b5034610152578060031936011261015257546040516001600160a01b039091168152602090f35b503461015257608036600319011261015257600360043510156101525760243567ffffffffffffffff8111610389573660238201121561038957806004013567ffffffffffffffff81116106045781019060248201913683116106085760409061058c610ec8565b82900312610604576105a060248201610b32565b9160448201359167ffffffffffffffff8311610600576105c39201602401610b46565b6001600160a01b03918216808452600160208181529283018051851660009081529286529083526040808620915190941682529091522081905580f35b8480fd5b8280fd5b8380fd5b5034610152578060031936011261015257610625610daa565b80546001600160a01b03198116825581906001600160a01b03167f8be0079c531659141344cd1fd0a4f28419497f9722a3daafe3b4186f6b6457e08280a380f35b50346101525760603660031901126101525760043567ffffffffffffffff811161038957806004019061012060031982360301126106045760e46106b3916106ac610ec8565b0182610c76565b80603411610608578101602082820360331901126106085760348201359167ffffffffffffffff8311610600576106ed9201603401610b46565b906040820192835191606084018051835260026020526040832061071083610f37565b60018060a01b031660005260205260ff604060002054166108ba578051835260026020526040832061074183610f37565b60018060a01b03166000526020526040600020600160ff1982541617905561079561076c8684610ca9565b8651907f0000000000000000000000000000000000000000000000000000000000000000610dd3565b6108b3576001915b608086019260ff65ffffffffffff60a01b855160a01b169116179460018060a01b036107c883610f37565b16855260016020908152604080872089830180516001600160a01b03166000908152919093522080549196928201929091831061089f57509261081d65ffffffffffff936108959a9693610881989655610f37565b604080516001600160a01b03909216602083015281810152975160a060608a015288959061085090610100880190610c35565b94516001600160a01b031660808701525160a08601525160c0850152511660e083015203601f198101845283610a98565b604051928392604084526040840190610c35565b9060208301520390f35b634e487b7160e01b81526011600452602490fd5b829161079d565b51632c4dce9b60e21b8352600452602482fd5b50346101525780600319360112610152576040517f00000000000000000000000000000000000000000000000000000000000000006001600160a01b03168152602090f35b5034610152576040366003190112610152578061092d610b1c565b610935610daa565b7f00000000000000000000000000000000000000000000000000000000000000006001600160a01b031690813b156104225760405163040b850f60e31b81526001600160a01b03909116600482015260248035908201529082908290604490829084905af180156101d0576101bf5750f35b50346101525760206109ef6109c66109be36610be1565b809291610ca9565b9051907f0000000000000000000000000000000000000000000000000000000000000000610dd3565b6040519015158152f35b5060203660031901126101525760043563ffffffff811680910361038957610a1f610daa565b7f00000000000000000000000000000000000000000000000000000000000000006001600160a01b0316908290823b15610389578190602460405180958193621cb65b60e51b8352600483015234905af18015610a8b57610a7d5780f35b610a8691610a98565b388180f35b50604051903d90823e3d90fd5b90601f8019910116810190811067ffffffffffffffff821117610aba57604052565b634e487b7160e01b600052604160045260246000fd5b92919267ffffffffffffffff8211610aba5760405191610afa601f8201601f191660200184610a98565b829481845281830111610b17578281602093846000960137010152565b600080fd5b600435906001600160a01b0382168203610b1757565b35906001600160a01b0382168203610b1757565b919060a083820312610b17576040519060a0820182811067ffffffffffffffff821117610aba576040528193803567ffffffffffffffff8111610b1757810182601f82011215610b1757608092816020610ba293359101610ad0565b8352610bb060208201610b32565b6020840152604081013560408401526060810135606084015201359065ffffffffffff82168203610b175760800152565b906040600319830112610b175760043567ffffffffffffffff8111610b17576101208184036003190112610b1757600401916024359067ffffffffffffffff8211610b1757610c3291600401610b46565b90565b919082519283825260005b848110610c61575050826000602080949584010152601f8019910116010190565b80602080928401015182828601015201610c40565b903590601e1981360301821215610b17570180359067ffffffffffffffff8211610b1757602001918136038313610b1757565b90610cc1610cba6040840184610c76565b3691610ad0565b6020815191012091610cd9610cba6060830183610c76565b6020815191012091610cee60e0830183610c76565b603493919311610b175760018060a01b0360208301511660c0604084015192601465ffffffffffff6080606088015197015116966040519860208a019a60018060a01b038535168c52602085013560408c015260608b015260808a0152608083013560a08a015201358288015260a081013560e0880152013561010086015246610120860152306101408601526101608501526101808401526101a08301526101c08201526101c08152610da46101e082610a98565b51902090565b6000546001600160a01b03163303610dbe57565b63118cdaa760e01b6000523360045260246000fd5b60009392906001600160a01b03811615610ebf5760405192825180604014610e9b57604114610e57575b8515610e0a575b50505050565b602093949550630b135d3f60e11b855260048501526024840193849260408452805185019081604484019160045afa5060443d01915afa9051630b135d3f60e11b14169038808080610e04565b9450606082015160001a60205260408201516060525b8460005260208201516040526020600160806000825afa51811860601b3d1194600060605283604052610dfd565b50604083015160ff81901c601b016020526001600160ff1b03166060529450610e6d565b50600093505050565b7f00000000000000000000000000000000000000000000000000000000000000006001600160a01b03163303610efa57565b60405162461bcd60e51b815260206004820152601560248201527414d95b99195c881b9bdd08115b9d1c9e541bda5b9d605a1b6044820152606490fd5b356001600160a01b0381168103610b17579056","linkReferences":{}},"methodIdentifiers":{"addStake(uint32)":"0396cb60","deposit()":"d0e30db0","entryPoint()":"b0d691fe","getDeposit()":"c399ec88","getHash((address,uint256,bytes,bytes,bytes32,uint256,bytes32,bytes,bytes),(bytes,address,uint256,uint256,uint48))":"b73dd1da","isValidWithdrawSignature((address,uint256,bytes,bytes,bytes32,uint256,bytes32,bytes,bytes),(bytes,address,uint256,uint256,uint48))":"1c985b7a","owner()":"8da5cb5b","postOp(uint8,bytes,uint256,uint256)":"7c627b21","renounceOwnership()":"715018a6","transferOwnership(address)":"f2fde38b","unlockStake()":"bb9fe6bf","validatePaymasterUserOp((address,uint256,bytes,bytes,bytes32,uint256,bytes32,bytes,bytes),bytes32,uint256)":"52b7512c","verifyingSigner()":"23d9ac9b","withdrawStake(address)":"c23a5cea","withdrawTo(address,uint256)":"205c2878","withdrawTokenExcess(address)":"cb74b145"},"id":5}