{"abi":[{"type":"constructor","inputs":[{"name":"name","type":"string","internalType":"string"},{"name":"symbol","type":"string","internalType":"string"},{"name":"_paymentToken","type":"address","internalType":"address"},{"name":"_mintPrice","type":"uint256","internalType":"uint256"}],"stateMutability":"nonpayable"},{"type":"function","name":"approve","inputs":[{"name":"to","type":"address","internalType":"address"},{"name":"tokenId","type":"uint256","internalType":"uint256"}],"outputs":[],"stateMutability":"nonpayable"},{"type":"function","name":"balanceOf","inputs":[{"name":"owner","type":"address","internalType":"address"}],"outputs":[{"name":"","type":"uint256","internalType":"uint256"}],"stateMutability":"view"},{"type":"function","name":"getApproved","inputs":[{"name":"tokenId","type":"uint256","internalType":"uint256"}],"outputs":[{"name":"","type":"address","internalType":"address"}],"stateMutability":"view"},{"type":"function","name":"isApprovedForAll","inputs":[{"name":"owner","type":"address","internalType":"address"},{"name":"operator","type":"address","internalType":"address"}],"outputs":[{"name":"","type":"bool","internalType":"bool"}],"stateMutability":"view"},{"type":"function","name":"mint","inputs":[],"outputs":[],"stateMutability":"nonpayable"},{"type":"function","name":"mintPrice","inputs":[],"outputs":[{"name":"","type":"uint256","internalType":"uint256"}],"stateMutability":"view"},{"type":"function","name":"name","inputs":[],"outputs":[{"name":"","type":"string","internalType":"string"}],"stateMutability":"view"},{"type":"function","name":"owner","inputs":[],"outputs":[{"name":"","type":"address","internalType":"address"}],"stateMutability":"view"},{"type":"function","name":"ownerOf","inputs":[{"name":"tokenId","type":"uint256","internalType":"uint256"}],"outputs":[{"name":"","type":"address","internalType":"address"}],"stateMutability":"view"},{"type":"function","name":"paymentToken","inputs":[],"outputs":[{"name":"","type":"address","internalType":"contract IERC20"}],"stateMutability":"view"},{"type":"function","name":"renounceOwnership","inputs":[],"outputs":[],"stateMutability":"nonpayable"},{"type":"function","name":"safeTransferFrom","inputs":[{"name":"from","type":"address","internalType":"address"},{"name":"to","type":"address","internalType":"address"},{"name":"tokenId","type":"uint256","internalType":"uint256"}],"outputs":[],"stateMutability":"nonpayable"},{"type":"function","name":"safeTransferFrom","inputs":[{"name":"from","type":"address","internalType":"address"},{"name":"to","type":"address","internalType":"address"},{"name":"tokenId","type":"uint256","internalType":"uint256"},{"name":"data","type":"bytes","internalType":"bytes"}],"outputs":[],"stateMutability":"nonpayable"},{"type":"function","name":"setApprovalForAll","inputs":[{"name":"operator","type":"address","internalType":"address"},{"name":"approved","type":"bool","internalType":"bool"}],"outputs":[],"stateMutability":"nonpayable"},{"type":"function","name":"setMintPrice","inputs":[{"name":"newPrice","type":"uint256","internalType":"uint256"}],"outputs":[],"stateMutability":"nonpayable"},{"type":"function","name":"supportsInterface","inputs":[{"name":"interfaceId","type":"bytes4","internalType":"bytes4"}],"outputs":[{"name":"","type":"bool","internalType":"bool"}],"stateMutability":"view"},{"type":"function","name":"symbol","inputs":[],"outputs":[{"name":"","type":"string","internalType":"string"}],"stateMutability":"view"},{"type":"function","name":"tokenURI","inputs":[{"name":"tokenId","type":"uint256","internalType":"uint256"}],"outputs":[{"name":"","type":"string","internalType":"string"}],"stateMutability":"view"},{"type":"function","name":"transferFrom","inputs":[{"name":"from","type":"address","internalType":"address"},{"name":"to","type":"address","internalType":"address"},{"name":"tokenId","type":"uint256","internalType":"uint256"}],"outputs":[],"stateMutability":"nonpayable"},{"type":"function","name":"transferOwnership","inputs":[{"name":"newOwner","type":"address","internalType":"address"}],"outputs":[],"stateMutability":"nonpayable"},{"type":"function","name":"withdrawFees","inputs":[{"name":"amount","type":"uint256","internalType":"uint256"}],"outputs":[],"stateMutability":"nonpayable"},{"type":"event","name":"Approval","inputs":[{"name":"owner","type":"address","indexed":true,"internalType":"address"},{"name":"approved","type":"address","indexed":true,"internalType":"address"},{"name":"tokenId","type":"uint256","indexed":true,"internalType":"uint256"}],"anonymous":false},{"type":"event","name":"ApprovalForAll","inputs":[{"name":"owner","type":"address","indexed":true,"internalType":"address"},{"name":"operator","type":"address","indexed":true,"internalType":"address"},{"name":"approved","type":"bool","indexed":false,"internalType":"bool"}],"anonymous":false},{"type":"event","name":"OwnershipTransferred","inputs":[{"name":"previousOwner","type":"address","indexed":true,"internalType":"address"},{"name":"newOwner","type":"address","indexed":true,"internalType":"address"}],"anonymous":false},{"type":"event","name":"Transfer","inputs":[{"name":"from","type":"address","indexed":true,"internalType":"address"},{"name":"to","type":"address","indexed":true,"internalType":"address"},{"name":"tokenId","type":"uint256","indexed":true,"internalType":"uint256"}],"anonymous":false},{"type":"error","name":"ERC721IncorrectOwner","inputs":[{"name":"sender","type":"address","internalType":"address"},{"name":"tokenId","type":"uint256","internalType":"uint256"},{"name":"owner","type":"address","internalType":"address"}]},{"type":"error","name":"ERC721InsufficientApproval","inputs":[{"name":"operator","type":"address","internalType":"address"},{"name":"tokenId","type":"uint256","internalType":"uint256"}]},{"type":"error","name":"ERC721InvalidApprover","inputs":[{"name":"approver","type":"address","internalType":"address"}]},{"type":"error","name":"ERC721InvalidOperator","inputs":[{"name":"operator","type":"address","internalType":"address"}]},{"type":"error","name":"ERC721InvalidOwner","inputs":[{"name":"owner","type":"address","internalType":"address"}]},{"type":"error","name":"ERC721InvalidReceiver","inputs":[{"name":"receiver","type":"address","internalType":"address"}]},{"type":"error","name":"ERC721InvalidSender","inputs":[{"name":"sender","type":"address","internalType":"address"}]},{"type":"error","name":"ERC721NonexistentToken","inputs":[{"name":"tokenId","type":"uint256","internalType":"uint256"}]},{"type":"error","name":"OwnableInvalidOwner","inputs":[{"name":"owner","type":"address","internalType":"address"}]},{"type":"error","name":"OwnableUnauthorizedAccount","inputs":[{"name":"account","type":"address","internalType":"address"}]}],"bytecode":{"object":"0x604060808152346200044e57620016c1803803806200001e8162000453565b92833981016080828203126200044e5781516001600160401b0392908381116200044e57826200005091830162000479565b9160209081830151908582116200044e576200006e91840162000479565b858301516001600160a01b038082169592949092918690036200044e576060015195815181811162000438576000958654916001948584811c941680156200042d575b8885101462000419578190601f94858111620003c6575b50889085831160011462000362578a9262000356575b5050600019600383901b1c191690851b1787555b8051928311620003425783548481811c9116801562000337575b87821014620003235790818385949311620002ce575b50869183116001146200026a5787926200025e575b5050600019600383901b1c191690821b1790555b3315620002465760065460018060a01b03199333858316176006557f8be0079c531659141344cd1fd0a4f28419497f9722a3daafe3b4186f6b6457e08851933393169180a383156200020657508315620001b957506009541617600955600855516111d59081620004ec8239f35b60849085519062461bcd60e51b82526004820152602160248201527f4d696e74207072696365206d7573742062652067726561746572207468616e206044820152600360fc1b6064820152fd5b60649162461bcd60e51b82526004820152601d60248201527f496e76616c6964207061796d656e7420746f6b656e20616464726573730000006044820152fd5b8551631e4fbdf760e01b815260048101849052602490fd5b01519050388062000137565b8488528688208594509190601f198416895b89828210620002b757505084116200029d575b505050811b0190556200014b565b015160001960f88460031b161c191690553880806200028f565b83850151865588979095019493840193016200027c565b909192508488528688208380860160051c82019289871062000319575b91869588929594930160051c01915b8281106200030a57505062000122565b8a8155869550879101620002fa565b92508192620002eb565b634e487b7160e01b88526022600452602488fd5b90607f16906200010c565b634e487b7160e01b87526041600452602487fd5b015190503880620000de565b8a8052898b208894509190601f1984168c5b8c828210620003af575050841162000395575b505050811b018755620000f2565b015160001960f88460031b161c1916905538808062000387565b8385015186558b9790950194938401930162000374565b909150898052888a208580850160051c8201928b86106200040f575b918991869594930160051c01915b82811062000400575050620000c8565b8c8155859450899101620003f0565b92508192620003e2565b634e487b7160e01b89526022600452602489fd5b93607f1693620000b1565b634e487b7160e01b600052604160045260246000fd5b600080fd5b6040519190601f01601f191682016001600160401b038111838210176200043857604052565b919080601f840112156200044e5782516001600160401b0381116200043857602090620004af601f8201601f1916830162000453565b928184528282870101116200044e5760005b818110620004d757508260009394955001015290565b8581018301518482018401528201620004c156fe6080604081815260048036101561001557600080fd5b600092833560e01c90816301ffc9a714610cee5750806306fdde0314610c21578063081812fc14610be6578063095ea7b314610b0a5780631249c58b1461077e57806323b872dd146107665780633013ce291461073d57806342842e0e1461070e5780635e318e071461062c5780636352211e146105fb5780636817c76c146105dc57806370a0823114610587578063715018a61461052a5780638da5cb5b1461050157806395d89b41146103e4578063a22cb46514610343578063b88d4fde146102af578063c87b56dd1461025c578063e985e9c51461020a578063f2fde38b1461017b5763f4a0a5281461010a57600080fd5b3461017757602036600319011261017757803591610126611065565b821561013457505060085580f35b906020606492519162461bcd60e51b8352820152601c60248201527f5072696365206d7573742062652067726561746572207468616e2030000000006044820152fd5b8280fd5b503461017757602036600319011261017757610195610d9a565b9061019e611065565b6001600160a01b039182169283156101f4575050600654826bffffffffffffffffffffffff60a01b821617600655167f8be0079c531659141344cd1fd0a4f28419497f9722a3daafe3b4186f6b6457e08380a380f35b51631e4fbdf760e01b8152908101849052602490fd5b50503461025857806003193601126102585760ff8160209361022a610d9a565b610232610db5565b6001600160a01b0391821683526005875283832091168252855220549151911615158152f35b5080fd5b509190346102585760203660031901126102585761027d6102ab933561102a565b5081815161028a81610e00565b5280519161029783610e00565b825251918291602083526020830190610d5a565b0390f35b509034610177576080366003190112610177576102ca610d9a565b6102d2610db5565b60443591856064359567ffffffffffffffff87116102585736602388011215610258578601359561030e61030588610e54565b96519687610e32565b8686523660248883010111610258578661034097602460209301838901378601015261033b838383610e88565b611091565b80f35b50903461017757806003193601126101775761035d610d9a565b90602435918215158093036103e0576001600160a01b03169283156103cb5750338452600560205280842083855260205280842060ff1981541660ff8416179055519081527f17307eab39ab6107e8899845ad3d59bd9653f200f220920489ca2b5937696c3160203392a380f35b836024925191630b61174360e31b8352820152fd5b8480fd5b5091346104fe57806003193601126104fe5781519181600192600154938460011c91600186169586156104f4575b60209687851081146104e1578899509688969785829a5291826000146104ba57505060011461045e575b5050506102ab929161044f910385610e32565b51928284938452830190610d5a565b9190869350600183527fb10e2d527612073b26eecdfd717e6a320cf44b4afac2b0732d9fcbe2b7fa0cf65b8284106104a2575050508201018161044f6102ab61043c565b8054848a018601528895508794909301928101610489565b60ff19168782015293151560051b8601909301935084925061044f91506102ab905061043c565b634e487b7160e01b835260228a52602483fd5b92607f1692610412565b80fd5b50503461025857816003193601126102585760065490516001600160a01b039091168152602090f35b83346104fe57806003193601126104fe57610543611065565b600680546001600160a01b0319811690915581906001600160a01b03167f8be0079c531659141344cd1fd0a4f28419497f9722a3daafe3b4186f6b6457e08280a380f35b5091346104fe5760203660031901126104fe576001600160a01b036105aa610d9a565b169283156105c75750806020938392526003845220549051908152f35b91516322718ad960e21b815291820152602490fd5b5050346102585781600319360112610258576020906008549051908152f35b5091346104fe5760203660031901126104fe575061061b6020923561102a565b90516001600160a01b039091168152f35b50903461017757602036600319011261017757610647611065565b600954815163a9059cbb60e01b81523384820190815284356020808301919091529192839182900360400190829088906001600160a01b03165af19081156107045784916106d5575b501561069a578280f35b906020606492519162461bcd60e51b83528201526015602482015274119959481dda5d1a191c985dd85b0819985a5b1959605a1b6044820152fd5b6106f7915060203d6020116106fd575b6106ef8183610e32565b810190610e70565b38610690565b503d6106e5565b82513d86823e3d90fd5b505034610258576103409061072236610dcb565b9192519261072f84610e00565b85845261033b838383610e88565b50503461025857816003193601126102585760095490516001600160a01b039091168152602090f35b83346104fe5761034061077836610dcb565b91610e88565b50346101775782600319360112610177576009548251636eb1769f60e11b815233838201523060248083019190915293916020916001600160a01b03918216908381604481855afa908115610b00578891610acf575b50600854809110610a8d57879160648592875194859384926323b872dd60e01b8452338c850152308d85015260448401525af1908115610a83578791610a66575b5015610a2d57600160075401908160075583519061083282610e00565b8782523315610a17578288526002845284882054168281151591826109e4575b33808b5260038752878b2080546001019055828b5260028752878b2080546001600160a01b03191682179055907fddf252ad1be2c89b69c2b068fc378daa952ba7f163c4a11628f55a4df523b3ef8b80a46109cd57333b6108b1578680f35b826108ed918596979894955180938192630a85bd0160e11b96878452338c850152888d8501526044840152608060648401526084830190610d5a565b038186335af1839181610989575b506109525750503d1561094a573d61091281610e54565b9061091f85519283610e32565b81528091833d92013e5b80519182610947575050505190633250574960e11b82523390820152fd5b01fd5b506060610929565b9195949392506001600160e01b031990911603610976575050503880808080808680f35b5190633250574960e11b82523390820152fd5b9091508481813d83116109c6575b6109a18183610e32565b810103126109c257516001600160e01b0319811681036109c25790386108fb565b8380fd5b503d610997565b505090516339e3563760e11b815291820184905250fd5b600082815260046020526040902080546001600160a01b0319169055808a5260038652868a208054600019019055610852565b8451633250574960e11b81528087018990528790fd5b5092606493601592519362461bcd60e51b855284015282015274151bdad95b881d1c985b9cd9995c8819985a5b1959605a1b6044820152fd5b610a7d9150833d85116106fd576106ef8183610e32565b38610815565b84513d89823e3d90fd5b845162461bcd60e51b8152808701859052601c818901527f496e73756666696369656e7420746f6b656e20616c6c6f77616e6365000000006044820152606490fd5b90508381813d8311610af9575b610ae68183610e32565b81010312610af55751386107d4565b8780fd5b503d610adc565b85513d8a823e3d90fd5b509034610177578060031936011261017757610b24610d9a565b91602435610b318161102a565b33151580610bd3575b80610baa575b610b94576001600160a01b039485169482918691167f8c5be1e5ebec7d5bd14f71427d1e84f3dd0314c0f7b2291e5b200ac8c7c3b9258880a48452602052822080546001600160a01b031916909117905580f35b835163a9fbf51f60e01b81523381850152602490fd5b506001600160a01b03811686526005602090815284872033885290528386205460ff1615610b40565b506001600160a01b038116331415610b3a565b503461017757602036600319011261017757918260209335610c078161102a565b50825283528190205490516001600160a01b039091168152f35b5091346104fe57806003193601126104fe578151918182549260018460011c9160018616958615610ce4575b60209687851081146104e1578899509688969785829a5291826000146104ba575050600114610c89575050506102ab929161044f910385610e32565b91908693508280527f290decd9548b62a8d60345a988386fc84ba6bc95484008f6362f93160ef3e5635b828410610ccc575050508201018161044f6102ab61043c565b8054848a018601528895508794909301928101610cb3565b92607f1692610c4d565b92505034610177576020366003190112610177573563ffffffff60e01b811680910361017757602092506380ac58cd60e01b8114908115610d49575b8115610d38575b5015158152f35b6301ffc9a760e01b14905038610d31565b635b5e139f60e01b81149150610d2a565b919082519283825260005b848110610d86575050826000602080949584010152601f8019910116010190565b602081830181015184830182015201610d65565b600435906001600160a01b0382168203610db057565b600080fd5b602435906001600160a01b0382168203610db057565b6060906003190112610db0576001600160a01b03906004358281168103610db057916024359081168103610db0579060443590565b6020810190811067ffffffffffffffff821117610e1c57604052565b634e487b7160e01b600052604160045260246000fd5b90601f8019910116810190811067ffffffffffffffff821117610e1c57604052565b67ffffffffffffffff8111610e1c57601f01601f191660200190565b90816020910312610db057518015158103610db05790565b6001600160a01b03918216929091831561101157600092828452826020956002875260409684888820541696879133151580610f78575b509060027fddf252ad1be2c89b69c2b068fc378daa952ba7f163c4a11628f55a4df523b3ef9284610f45575b858352600381528b8320805460010190558683525289812080546001600160a01b0319168517905580a41692838303610f245750505050565b6064945051926364283d7b60e01b8452600484015260248301526044820152fd5b600087815260046020526040902080546001600160a01b0319169055848352600381528b83208054600019019055610eeb565b91939450915080610fd0575b15610f9457859291879138610ebf565b878688610fb1576024915190637e27328960e01b82526004820152fd5b905163177e802f60e01b81523360048201526024810191909152604490fd5b503387148015610ff5575b80610f845750858252600481523385898420541614610f84565b5086825260058152878220338352815260ff8883205416610fdb565b604051633250574960e11b815260006004820152602490fd5b6000818152600260205260409020546001600160a01b031690811561104d575090565b60249060405190637e27328960e01b82526004820152fd5b6006546001600160a01b0316330361107957565b60405163118cdaa760e01b8152336004820152602490fd5b813b61109e575b50505050565b604051630a85bd0160e11b8082523360048301526001600160a01b039283166024830152604482019490945260806064820152602095929091169390929083906110ec906084830190610d5a565b039285816000958187895af1849181611195575b50611160575050503d600014611158573d61111a81610e54565b906111286040519283610e32565b81528091843d92013e5b8051928361115357604051633250574960e11b815260048101849052602490fd5b019050fd5b506060611132565b919450915063ffffffff60e01b160361117d575038808080611098565b60249060405190633250574960e11b82526004820152fd5b9091508681813d83116111ce575b6111ad8183610e32565b810103126103e057516001600160e01b0319811681036103e0579038611100565b503d6111a356","linkReferences":{}},"methodIdentifiers":{"approve(address,uint256)":"095ea7b3","balanceOf(address)":"70a08231","getApproved(uint256)":"081812fc","isApprovedForAll(address,address)":"e985e9c5","mint()":"1249c58b","mintPrice()":"6817c76c","name()":"06fdde03","owner()":"8da5cb5b","ownerOf(uint256)":"6352211e","paymentToken()":"3013ce29","renounceOwnership()":"715018a6","safeTransferFrom(address,address,uint256)":"42842e0e","safeTransferFrom(address,address,uint256,bytes)":"b88d4fde","setApprovalForAll(address,bool)":"a22cb465","setMintPrice(uint256)":"f4a0a528","supportsInterface(bytes4)":"01ffc9a7","symbol()":"95d89b41","tokenURI(uint256)":"c87b56dd","transferFrom(address,address,uint256)":"23b872dd","transferOwnership(address)":"f2fde38b","withdrawFees(uint256)":"5e318e07"},"id":2}