{"abi":[{"type":"constructor","inputs":[{"name":"aSolvingPaymaster","type":"address","internalType":"address"},{"name":"aLzEndpoint","type":"address","internalType":"address"},{"name":"aVerifier","type":"address","internalType":"address"},{"name":"_identifier","type":"string","internalType":"string"}],"stateMutability":"nonpayable"},{"type":"function","name":"LOCK_PERIOD","inputs":[],"outputs":[{"name":"","type":"uint256","internalType":"uint256"}],"stateMutability":"view"},{"type":"function","name":"allowInitializePath","inputs":[{"name":"origin","type":"tuple","internalType":"struct Origin","components":[{"name":"srcEid","type":"uint32","internalType":"uint32"},{"name":"sender","type":"bytes32","internalType":"bytes32"},{"name":"nonce","type":"uint64","internalType":"uint64"}]}],"outputs":[{"name":"","type":"bool","internalType":"bool"}],"stateMutability":"view"},{"type":"function","name":"canWithdraw","inputs":[{"name":"token","type":"address","internalType":"address"},{"name":"amount","type":"uint256","internalType":"uint256"}],"outputs":[{"name":"","type":"bool","internalType":"bool"}],"stateMutability":"view"},{"type":"function","name":"deposit","inputs":[{"name":"token","type":"address","internalType":"address"},{"name":"amount","type":"uint256","internalType":"uint256"}],"outputs":[],"stateMutability":"nonpayable"},{"type":"function","name":"deposits","inputs":[{"name":"","type":"address","internalType":"address"},{"name":"","type":"address","internalType":"address"}],"outputs":[{"name":"amount","type":"uint256","internalType":"uint256"},{"name":"unlockTime","type":"uint256","internalType":"uint256"}],"stateMutability":"view"},{"type":"function","name":"endpoint","inputs":[],"outputs":[{"name":"","type":"address","internalType":"contract ILayerZeroEndpointV2"}],"stateMutability":"view"},{"type":"function","name":"executeTokenWithdrawalRequest","inputs":[{"name":"token","type":"address","internalType":"address"},{"name":"paymasterId","type":"address","internalType":"address"}],"outputs":[],"stateMutability":"nonpayable"},{"type":"function","name":"getDeposit","inputs":[{"name":"token","type":"address","internalType":"address"},{"name":"user","type":"address","internalType":"address"}],"outputs":[{"name":"amount","type":"uint256","internalType":"uint256"},{"name":"unlockTime","type":"uint256","internalType":"uint256"}],"stateMutability":"view"},{"type":"function","name":"identifier","inputs":[],"outputs":[{"name":"","type":"string","internalType":"string"}],"stateMutability":"view"},{"type":"function","name":"isComposeMsgSender","inputs":[{"name":"","type":"tuple","internalType":"struct Origin","components":[{"name":"srcEid","type":"uint32","internalType":"uint32"},{"name":"sender","type":"bytes32","internalType":"bytes32"},{"name":"nonce","type":"uint64","internalType":"uint64"}]},{"name":"","type":"bytes","internalType":"bytes"},{"name":"_sender","type":"address","internalType":"address"}],"outputs":[{"name":"","type":"bool","internalType":"bool"}],"stateMutability":"view"},{"type":"function","name":"lzEndpoint","inputs":[],"outputs":[{"name":"","type":"address","internalType":"address"}],"stateMutability":"view"},{"type":"function","name":"lzMap","inputs":[{"name":"_request","type":"bytes","internalType":"bytes"},{"name":"_response","type":"bytes","internalType":"bytes"}],"outputs":[{"name":"","type":"bytes","internalType":"bytes"}],"stateMutability":"pure"},{"type":"function","name":"lzReceive","inputs":[{"name":"_origin","type":"tuple","internalType":"struct Origin","components":[{"name":"srcEid","type":"uint32","internalType":"uint32"},{"name":"sender","type":"bytes32","internalType":"bytes32"},{"name":"nonce","type":"uint64","internalType":"uint64"}]},{"name":"_guid","type":"bytes32","internalType":"bytes32"},{"name":"_message","type":"bytes","internalType":"bytes"},{"name":"_executor","type":"address","internalType":"address"},{"name":"_extraData","type":"bytes","internalType":"bytes"}],"outputs":[],"stateMutability":"payable"},{"type":"function","name":"lzReduce","inputs":[{"name":"_cmd","type":"bytes","internalType":"bytes"},{"name":"_responses","type":"bytes[]","internalType":"bytes[]"}],"outputs":[{"name":"","type":"bytes","internalType":"bytes"}],"stateMutability":"pure"},{"type":"function","name":"myInformation","inputs":[],"outputs":[{"name":"","type":"bytes","internalType":"bytes"}],"stateMutability":"view"},{"type":"function","name":"nextNonce","inputs":[{"name":"","type":"uint32","internalType":"uint32"},{"name":"","type":"bytes32","internalType":"bytes32"}],"outputs":[{"name":"nonce","type":"uint64","internalType":"uint64"}],"stateMutability":"view"},{"type":"function","name":"oAppVersion","inputs":[],"outputs":[{"name":"senderVersion","type":"uint64","internalType":"uint64"},{"name":"receiverVersion","type":"uint64","internalType":"uint64"}],"stateMutability":"pure"},{"type":"function","name":"owner","inputs":[],"outputs":[{"name":"","type":"address","internalType":"address"}],"stateMutability":"view"},{"type":"function","name":"peers","inputs":[{"name":"eid","type":"uint32","internalType":"uint32"}],"outputs":[{"name":"peer","type":"bytes32","internalType":"bytes32"}],"stateMutability":"view"},{"type":"function","name":"renounceOwnership","inputs":[],"outputs":[],"stateMutability":"nonpayable"},{"type":"function","name":"setDelegate","inputs":[{"name":"_delegate","type":"address","internalType":"address"}],"outputs":[],"stateMutability":"nonpayable"},{"type":"function","name":"setPeer","inputs":[{"name":"_eid","type":"uint32","internalType":"uint32"},{"name":"_peer","type":"bytes32","internalType":"bytes32"}],"outputs":[],"stateMutability":"nonpayable"},{"type":"function","name":"setReadChannel","inputs":[{"name":"_channelId","type":"uint32","internalType":"uint32"},{"name":"_active","type":"bool","internalType":"bool"}],"outputs":[],"stateMutability":"nonpayable"},{"type":"function","name":"solvingPaymaster","inputs":[],"outputs":[{"name":"","type":"address","internalType":"address"}],"stateMutability":"view"},{"type":"function","name":"submitTokenWithdrawalRequest","inputs":[{"name":"token","type":"address","internalType":"address"},{"name":"withdrawAddress","type":"address","internalType":"address"},{"name":"amount","type":"uint256","internalType":"uint256"}],"outputs":[],"stateMutability":"nonpayable"},{"type":"function","name":"transferOwnership","inputs":[{"name":"newOwner","type":"address","internalType":"address"}],"outputs":[],"stateMutability":"nonpayable"},{"type":"function","name":"withdraw","inputs":[{"name":"token","type":"address","internalType":"address"},{"name":"amount","type":"uint256","internalType":"uint256"}],"outputs":[],"stateMutability":"nonpayable"},{"type":"event","name":"Deposited","inputs":[{"name":"token","type":"address","indexed":true,"internalType":"address"},{"name":"user","type":"address","indexed":true,"internalType":"address"},{"name":"amount","type":"uint256","indexed":false,"internalType":"uint256"}],"anonymous":false},{"type":"event","name":"LockPeriodUpdated","inputs":[{"name":"newPeriod","type":"uint256","indexed":false,"internalType":"uint256"}],"anonymous":false},{"type":"event","name":"MessageReceived","inputs":[{"name":"srcEid","type":"uint32","indexed":false,"internalType":"uint32"},{"name":"guid","type":"bytes32","indexed":false,"internalType":"bytes32"},{"name":"payload","type":"bytes","indexed":false,"internalType":"bytes"}],"anonymous":false},{"type":"event","name":"OwnershipTransferred","inputs":[{"name":"previousOwner","type":"address","indexed":true,"internalType":"address"},{"name":"newOwner","type":"address","indexed":true,"internalType":"address"}],"anonymous":false},{"type":"event","name":"PeerSet","inputs":[{"name":"eid","type":"uint32","indexed":false,"internalType":"uint32"},{"name":"peer","type":"bytes32","indexed":false,"internalType":"bytes32"}],"anonymous":false},{"type":"event","name":"WithdrawalRequestSubmitted","inputs":[{"name":"withdrawAddress","type":"address","indexed":true,"internalType":"address"},{"name":"token","type":"address","indexed":true,"internalType":"address"},{"name":"amount","type":"uint256","indexed":true,"internalType":"uint256"},{"name":"actor","type":"address","indexed":false,"internalType":"address"}],"anonymous":false},{"type":"event","name":"Withdrawn","inputs":[{"name":"token","type":"address","indexed":true,"internalType":"address"},{"name":"user","type":"address","indexed":true,"internalType":"address"},{"name":"amount","type":"uint256","indexed":false,"internalType":"uint256"}],"anonymous":false},{"type":"error","name":"AddressEmptyCode","inputs":[{"name":"target","type":"address","internalType":"address"}]},{"type":"error","name":"AddressInsufficientBalance","inputs":[{"name":"account","type":"address","internalType":"address"}]},{"type":"error","name":"FailedInnerCall","inputs":[]},{"type":"error","name":"InvalidDelegate","inputs":[]},{"type":"error","name":"InvalidEndpointCall","inputs":[]},{"type":"error","name":"InvalidVersion","inputs":[]},{"type":"error","name":"LzTokenUnavailable","inputs":[]},{"type":"error","name":"NoPeer","inputs":[{"name":"eid","type":"uint32","internalType":"uint32"}]},{"type":"error","name":"NotEnoughNative","inputs":[{"name":"msgValue","type":"uint256","internalType":"uint256"}]},{"type":"error","name":"OnlyEndpoint","inputs":[{"name":"addr","type":"address","internalType":"address"}]},{"type":"error","name":"OnlyPeer","inputs":[{"name":"eid","type":"uint32","internalType":"uint32"},{"name":"sender","type":"bytes32","internalType":"bytes32"}]},{"type":"error","name":"OwnableInvalidOwner","inputs":[{"name":"owner","type":"address","internalType":"address"}]},{"type":"error","name":"OwnableUnauthorizedAccount","inputs":[{"name":"account","type":"address","internalType":"address"}]},{"type":"error","name":"ReentrancyGuardReentrantCall","inputs":[]},{"type":"error","name":"SafeERC20FailedOperation","inputs":[{"name":"token","type":"address","internalType":"address"}]}],"bytecode":{"object":"0x610100806040523461035257600090611d2c80380380916100208285610357565b833981019160808284031261034f5761003882610390565b61004460208401610390565b9061005160408501610390565b606085015190946001600160401b03821161030a570185601f8201121561034d578051906001600160401b038211610339576040519661009b601f8401601f191660200189610357565b8288526020838301011161030a57908491825b82811061032257505086016020015260018355331561030e5760018054336001600160a01b03198216811790925560405191906001600160a01b03167f8be0079c531659141344cd1fd0a4f28419497f9722a3daafe3b4186f6b6457e08680a36001600160a01b0383166080819052803b1561030a578160248187809463ca5eb5e160e01b83523360048401525af180156102ff576102eb575b5060a05260c0528251906001600160401b0382116102d757600554600181811c911680156102cd575b60208210146102b957601f8111610273575b50602090601f8311600114610211579382939492610206575b50508160011b916000199060031b1c1916176005555b6001600160a01b031660e05260405161198790816103a5823960805181818161090001528181610e1a015261113d015260a051818181611313015261143b015260c05181610a43015260e051816112c70152f35b01519050388061019c565b90601f1983169460058352818320925b86811061025b5750836001959610610242575b505050811b016005556101b2565b015160001960f88460031b161c19169055388080610234565b91926020600181928685015181550194019201610221565b6005825260208220601f840160051c810191602085106102af575b601f0160051c01905b8181106102a45750610183565b828155600101610297565b909150819061028e565b634e487b7160e01b82526022600452602482fd5b90607f1690610171565b634e487b7160e01b81526041600452602490fd5b836102f891949294610357565b9138610148565b6040513d86823e3d90fd5b8480fd5b631e4fbdf760e01b83526004839052602483fd5b60208282018101518a8301820152879450016100ae565b634e487b7160e01b85526041600452602485fd5b835b80fd5b600080fd5b601f909101601f19168101906001600160401b0382119082101761037a57604052565b634e487b7160e01b600052604160045260246000fd5b51906001600160a01b03821682036103525756fe608080604052600436101561001357600080fd5b600090813560e01c908162767df2146114275750806313137d65146110dc57806317442b70146110ba5780631820cabb1461109c57806323a3727a14610fa55780633400288b14610f7757806347e7ef2414610e495780635e280f1114610e0457806360c8567314610ca5578063715018a614610c485780637998a1c414610b795780637d25a05e14610b5357806382413eac14610af65780638da5cb5b14610acd5780638f601f6614610a72578063b353aaa714610a2d578063bb0b6a53146109f8578063c35082a914610988578063ca5eb5e1146108db578063e2ab7cf214610859578063e60c287c14610767578063eba1cf08146105a6578063f0a9e48114610559578063f2fde38b146104d0578063f3fef3a3146103ca578063fe6ab721146101855763ff7bd03d1461014957600080fd5b346101825760603660031901126101825760209060409063ffffffff61016d6115e0565b16815260028352205460405190602435148152f35b80fd5b50346101825760403660031901126101825761019f6114b2565b6101a76114c8565b906101b06117df565b6001600160a01b0316906101c58215156115f3565b6001600160a01b0316808352600460205260408084209051919291906101ea82611573565b80546001600160a01b039081168352600182015460208401908152600283015490911660408401908152600390920154606090930183815290921561038e575162015180810180911161037a5742106103355782855260036020526040852084600052602052604060002091519082549182811160001461032f575081945b85156102ea577fd1c19fbcd4551a5edfb66d43d2e337c04837afda3482b42bdf569a8fccdae5fb9361029d876020956116c6565b90558652600482528560036040822082815582600182015582600282015501556102d18560018060a01b0383511686611837565b516040519485526001600160a01b031693a36001815580f35b60405162461bcd60e51b815260206004820152601b60248201527f43616e6e6f74207769746864726177207a65726f20616d6f756e7400000000006044820152606490fd5b94610269565b60405162461bcd60e51b815260206004820152601760248201527f52657175657374206e6f7420636c6561726564207965740000000000000000006044820152606490fd5b634e487b7160e01b86526011600452602486fd5b60405162461bcd60e51b8152602060048201526014602482015273139bc81c995c5d595cdd081cdd589b5a5d1d195960621b6044820152606490fd5b5034610182576040366003190112610182576103e46114b2565b602435906103f06117df565b6001600160a01b03166104048115156115f3565b61040f821515611637565b80835260036020908152604080852033600090815292529020805461043684821015611683565b6001820154421061048b578361044b916116c6565b9055610458823383611837565b6040519182527fd1c19fbcd4551a5edfb66d43d2e337c04837afda3482b42bdf569a8fccdae5fb60203393a36001815580f35b60405162461bcd60e51b815260206004820152601760248201527f546f6b656e7320617265207374696c6c206c6f636b65640000000000000000006044820152606490fd5b5034610182576020366003190112610182576104ea6114b2565b6104f261176e565b6001600160a01b0316801561054557600180546001600160a01b0319811683179091556001600160a01b03167f8be0079c531659141344cd1fd0a4f28419497f9722a3daafe3b4186f6b6457e08380a380f35b631e4fbdf760e01b82526004829052602482fd5b503461018257604036600319011261018257610573611526565b6024359081151582036105a2576105989161058c61176e565b1561059b573090611797565b80f35b8290611797565b8280fd5b5034610182576040366003190112610182576004356001600160401b038111610763576105d790369060040161146a565b90602435906001600160401b03821161074c573660238301121561074c578160040135926001600160401b03841161075f573660248560051b8501011161075f578060021161075f57600019823560f01c016107505760041161074c576002806106419201611801565b839136819003604219019160605b858510156106d75760248560051b84010135848112156106d35783016024810135906001600160401b0382116106cf5760440181360381136106cf576001926020836106c79360405195846106ad889651809287808a0191016114de565b8501918483013701018a815203601f1981018352826115bf565b94019361064f565b8880fd5b8780fd5b90610734601460206107489460405194816106fb87935180928680870191016114de565b820190712fb932b23ab1b2b22fb0b8382630b132b61d60711b8483015261ffff60f01b1660328201520301600b198101845201826115bf565b604051918291602083526020830190611501565b0390f35b8380fd5b63a9146eeb60e01b8552600485fd5b8480fd5b5080fd5b5034610182576040366003190112610182576004356001600160401b0381116107635761079890369060040161146a565b91906024356001600160401b0381116105a2576107b990369060040161146a565b9290938015610845576001833560f81c0361083657600311610182575060176020610748946107ef600260016107349601611801565b8560405196879385850137820190742fb6b0b83832b22fb932b8bab2b9ba2630b132b61d60591b8483015261ffff60f01b16603582015203016008198101845201826115bf565b63a9146eeb60e01b8252600482fd5b634e487b7160e01b82526032600452602482fd5b5034610182576040366003190112610182576040906001600160a01b0361087e6114b2565b16815260036020522060018060a01b03331660005260205260208060406000206040516108aa816115a4565b600182549283835201549283910152602435111590816108d0575b506040519015158152f35b9050421015386108c5565b503461018257602036600319011261018257806108f66114b2565b6108fe61176e565b7f00000000000000000000000000000000000000000000000000000000000000006001600160a01b031690813b156109845760405163ca5eb5e160e01b81526001600160a01b039091166004820152919081908390602490829084905af18015610977576109695780f35b610972916115bf565b388180f35b50604051903d90823e3d90fd5b5050fd5b503461018257604036600319011261018257604080916109a66114b2565b6109ae6114c8565b9060018060a01b0316825260036020528282209060018060a01b0316825260205220602082516109dd816115a4565b60018354938483520154918291015282519182526020820152f35b503461018257602036600319011261018257604060209163ffffffff610a1c611526565b168152600283522054604051908152f35b50346101825780600319360112610182576040517f00000000000000000000000000000000000000000000000000000000000000006001600160a01b03168152602090f35b50346101825760403660031901126101825760408091610a906114b2565b610a986114c8565b9060018060a01b0316825260036020528282209060018060a01b03168252602052206001815491015482519182526020820152f35b50346101825780600319360112610182576001546040516001600160a01b039091168152602090f35b503461018257366003190160a0811261076357606013610182576064356001600160401b03811161076357610b2f90369060040161146a565b50506084356001600160a01b03811690819003610763576020906040519030148152f35b503461018257604036600319011261018257602090610b70611526565b50604051908152f35b5034610182578060031936011261018257604051908060055490610b9c82611539565b8085529160018116908115610c215750600114610bc4575b61074884610734818603826115bf565b600581527f036b6384b5eca791c62761152d0c79bb0604c104a5fb6f4eb0703f3154bb3db0939250905b808210610c075750909150810160200161073482610bb4565b919260018160209254838588010152019101909291610bee565b60ff191660208087019190915292151560051b850190920192506107349150839050610bb4565b5034610182578060031936011261018257610c6161176e565b600180546001600160a01b0319811690915581906001600160a01b03167f8be0079c531659141344cd1fd0a4f28419497f9722a3daafe3b4186f6b6457e08280a380f35b503461018257606036600319011261018257610cbf6114b2565b610cc76114c8565b604435916001600160a01b031690610ce08215156115f3565b6001600160a01b03168015610dbf57610cfa831515611637565b818452600360209081526040808620338752909152842054610d1e90841115611683565b604051610d2a81611573565b82815260208082018581526040808401858152426060860190815233808b5260048652838b20965187546001600160a01b039182166001600160a01b0319918216178955955160018901559251600288018054919094169516949094179091555160039094019390935591519182527f71534e8473fac722896ee80a1461b3bb937286d0efe757ab919774fadeb026ce91a480f35b60405162461bcd60e51b815260206004820152601f60248201527f43616e6e6f7420776974686472617720746f207a65726f2061646472657373006044820152606490fd5b50346101825780600319360112610182576040517f00000000000000000000000000000000000000000000000000000000000000006001600160a01b03168152602090f35b503461018257604036600319011261018257610e636114b2565b60243590610e6f6117df565b6001600160a01b0316610e838115156115f3565b610e8e821515611637565b8083526003602090815260408085203386529091528320805483810191908210610f635755620151804201804211610f4f5781845260036020526040842060018060a01b03331685526020526001604085200155610f1c6040516323b872dd60e01b602082015233602482015230604482015283606482015260648152610f166084826115bf565b82611879565b6040519182527f8752a472e571a816aea92eec8dae9baf628e840f4929fbcc2d155e6233ff68a760203393a36001815580f35b634e487b7160e01b84526011600452602484fd5b634e487b7160e01b85526011600452602485fd5b503461018257604036600319011261018257610598610f94611526565b610f9c61176e565b60243590611797565b5034610182578060031936011261018257604051632fb4b21d60e11b602082015260055482610fd382611539565b9160018116908115611074575060011461101a575b61074883610734602d82886c2fb13637b1b5a73ab6b132b91d60991b815243600d82015203600d8101845201826115bf565b909250600581527f036b6384b5eca791c62761152d0c79bb0604c104a5fb6f4eb0703f3154bb3db05b83821061105d57505090810160240190610734602d610fe8565b600181602092546024858701015201910190611043565b60ff1916602480860191909152831515909302840190920193506107349150602d9050610fe8565b50346101825780600319360112610182576020604051620151808152f35b5034610182578060031936011261018257604080516001815260026020820152f35b50366003190160e0811261076357606013610182576084356001600160401b0381116107635761111090369060040161146a565b61111861149c565b5060c4356001600160401b03811161074c5761113890369060040161146a565b5050337f00000000000000000000000000000000000000000000000000000000000000006001600160a01b0316036114145763ffffffff6111776115e0565b168084526002602052604084205490811561140257506024358091036113de57507f20ec2e9153d350858cf45e0bcfc7d7676dea5ce5dd308668b1ed11244123fd0260405184815284602082015260606040820152826060820152828460808301378460808483010152608081601f19601f8601168101030190a1810190610180818303126105a25761120a82826116e9565b82605f8301121561074c5760409081519361122583866115bf565b60c08401858282116106d357829085808801915b8483106113c3575050506112509061125b926116e9565b9161010086016116e9565b906101408501359560018060a01b0387168097036106d3578451637ae4eb4f60e11b81529361128e906004860190611746565b8785604486015b600283106113a45750505050906112b36112be9260c4850190611746565b610104830190611746565b602081610144817f00000000000000000000000000000000000000000000000000000000000000006001600160a01b03165afa90811561139a57859161136b575b5015611338575090610160610598920135907f000000000000000000000000000000000000000000000000000000000000000090611837565b5162461bcd60e51b815260206004820152600d60248201526c24b73b30b634b210383937b7b360991b6044820152606490fd5b61138d915060203d602011611393575b61138581836115bf565b81019061172e565b386112ff565b503d61137b565b82513d87823e3d90fd5b600191816113b56020938751611746565b019301910190918690611295565b6113d18394602093946116e9565b8152019101858492611239565b8360449163ffffffff6113ef6115e0565b63309afaf360e21b845216600452602452fd5b63f6ff4fb760e01b8552600452602484fd5b6391ac5e4f60e01b835233600452602483fd5b9050346107635781600319360112610763577f00000000000000000000000000000000000000000000000000000000000000006001600160a01b03168152602090f35b9181601f84011215611497578235916001600160401b038311611497576020838186019501011161149757565b600080fd5b60a435906001600160a01b038216820361149757565b600435906001600160a01b038216820361149757565b602435906001600160a01b038216820361149757565b60005b8381106114f15750506000910152565b81810151838201526020016114e1565b9060209161151a815180928185528580860191016114de565b601f01601f1916010190565b6004359063ffffffff8216820361149757565b90600182811c92168015611569575b602083101461155357565b634e487b7160e01b600052602260045260246000fd5b91607f1691611548565b608081019081106001600160401b0382111761158e57604052565b634e487b7160e01b600052604160045260246000fd5b604081019081106001600160401b0382111761158e57604052565b90601f801991011681019081106001600160401b0382111761158e57604052565b60043563ffffffff811681036114975790565b156115fa57565b60405162461bcd60e51b8152602060048201526015602482015274496e76616c696420746f6b656e206164647265737360581b6044820152606490fd5b1561163e57565b60405162461bcd60e51b815260206004820152601d60248201527f416d6f756e74206d7573742062652067726561746572207468616e20300000006044820152606490fd5b1561168a57565b60405162461bcd60e51b8152602060048201526014602482015273496e73756666696369656e742062616c616e636560601b6044820152606490fd5b919082039182116116d357565b634e487b7160e01b600052601160045260246000fd5b9080601f8301121561149757604080519261170482856115bf565b8391810192831161149757905b82821061171e5750505090565b8135815260209182019101611711565b90816020910312611497575180151581036114975790565b906000905b6002821061175857505050565b602080600192855181520193019101909161174b565b6001546001600160a01b0316330361178257565b63118cdaa760e01b6000523360045260246000fd5b7f238399d427b947898edb290f5ff0f9109849b1c3ba196a42e35f00c50a54b98b9163ffffffff604092169081600052600260205280836000205582519182526020820152a1565b6002600054146117f0576002600055565b633ee5aeb560e01b60005260046000fd5b356001600160f01b031981169291906002821061181c575050565b6001600160f01b031960029290920360031b82901b16169150565b60405163a9059cbb60e01b60208201526001600160a01b039092166024830152604480830193909352918152611877916118726064836115bf565b611879565b565b81516001600160a01b0390911691600091829160200182855af13d1561191a573d6001600160401b03811161158e576118d591604051916118c46020601f19601f84011601846115bf565b82523d6000602084013e5b83611926565b80519081151591826118ff575b50506118eb5750565b635274afe760e01b60005260045260246000fd5b611912925060208091830101910161172e565b1538806118e2565b6118d5906060906118cf565b9061194c575080511561193b57805190602001fd5b630a12f52160e11b60005260046000fd5b8151158061197e575b61195d575090565b639996b31560e01b60009081526001600160a01b0391909116600452602490fd5b50803b1561195556","linkReferences":{}},"methodIdentifiers":{"LOCK_PERIOD()":"1820cabb","allowInitializePath((uint32,bytes32,uint64))":"ff7bd03d","canWithdraw(address,uint256)":"e2ab7cf2","deposit(address,uint256)":"47e7ef24","deposits(address,address)":"8f601f66","endpoint()":"5e280f11","executeTokenWithdrawalRequest(address,address)":"fe6ab721","getDeposit(address,address)":"c35082a9","identifier()":"7998a1c4","isComposeMsgSender((uint32,bytes32,uint64),bytes,address)":"82413eac","lzEndpoint()":"b353aaa7","lzMap(bytes,bytes)":"e60c287c","lzReceive((uint32,bytes32,uint64),bytes32,bytes,address,bytes)":"13137d65","lzReduce(bytes,bytes[])":"eba1cf08","myInformation()":"23a3727a","nextNonce(uint32,bytes32)":"7d25a05e","oAppVersion()":"17442b70","owner()":"8da5cb5b","peers(uint32)":"bb0b6a53","renounceOwnership()":"715018a6","setDelegate(address)":"ca5eb5e1","setPeer(uint32,bytes32)":"3400288b","setReadChannel(uint32,bool)":"f0a9e481","solvingPaymaster()":"00767df2","submitTokenWithdrawalRequest(address,address,uint256)":"60c85673","transferOwnership(address)":"f2fde38b","withdraw(address,uint256)":"f3fef3a3"},"id":1}