{"abi":[{"type":"constructor","inputs":[{"name":"_entryPoint","type":"address","internalType":"contract IEntryPoint"},{"name":"_nftContract","type":"address","internalType":"address"},{"name":"_slotToRead","type":"uint256","internalType":"uint256"}],"stateMutability":"nonpayable"},{"type":"function","name":"addStake","inputs":[{"name":"unstakeDelaySec","type":"uint32","internalType":"uint32"}],"outputs":[],"stateMutability":"payable"},{"type":"function","name":"cancelOwnershipHandover","inputs":[],"outputs":[],"stateMutability":"payable"},{"type":"function","name":"completeOwnershipHandover","inputs":[{"name":"pendingOwner","type":"address","internalType":"address"}],"outputs":[],"stateMutability":"payable"},{"type":"function","name":"deposit","inputs":[],"outputs":[],"stateMutability":"payable"},{"type":"function","name":"entryPoint","inputs":[],"outputs":[{"name":"","type":"address","internalType":"contract IEntryPoint"}],"stateMutability":"view"},{"type":"function","name":"getDeposit","inputs":[],"outputs":[{"name":"","type":"uint256","internalType":"uint256"}],"stateMutability":"view"},{"type":"function","name":"latestL1BlockNumber","inputs":[],"outputs":[{"name":"","type":"uint256","internalType":"uint256"}],"stateMutability":"view"},{"type":"function","name":"nft","inputs":[],"outputs":[{"name":"","type":"address","internalType":"address"}],"stateMutability":"view"},{"type":"function","name":"owner","inputs":[],"outputs":[{"name":"result","type":"address","internalType":"address"}],"stateMutability":"view"},{"type":"function","name":"ownershipHandoverExpiresAt","inputs":[{"name":"pendingOwner","type":"address","internalType":"address"}],"outputs":[{"name":"result","type":"uint256","internalType":"uint256"}],"stateMutability":"view"},{"type":"function","name":"postOp","inputs":[{"name":"mode","type":"uint8","internalType":"enum IPaymaster.PostOpMode"},{"name":"context","type":"bytes","internalType":"bytes"},{"name":"actualGasCost","type":"uint256","internalType":"uint256"},{"name":"actualUserOpFeePerGas","type":"uint256","internalType":"uint256"}],"outputs":[],"stateMutability":"nonpayable"},{"type":"function","name":"renounceOwnership","inputs":[],"outputs":[],"stateMutability":"payable"},{"type":"function","name":"requestOwnershipHandover","inputs":[],"outputs":[],"stateMutability":"payable"},{"type":"function","name":"slotToRead","inputs":[],"outputs":[{"name":"","type":"uint256","internalType":"uint256"}],"stateMutability":"view"},{"type":"function","name":"transferOwnership","inputs":[{"name":"newOwner","type":"address","internalType":"address"}],"outputs":[],"stateMutability":"payable"},{"type":"function","name":"unlockStake","inputs":[],"outputs":[],"stateMutability":"nonpayable"},{"type":"function","name":"updateSlotToRead","inputs":[{"name":"_slotToRead","type":"uint256","internalType":"uint256"}],"outputs":[],"stateMutability":"nonpayable"},{"type":"function","name":"validatePaymasterUserOp","inputs":[{"name":"userOp","type":"tuple","internalType":"struct PackedUserOperation","components":[{"name":"sender","type":"address","internalType":"address"},{"name":"nonce","type":"uint256","internalType":"uint256"},{"name":"initCode","type":"bytes","internalType":"bytes"},{"name":"callData","type":"bytes","internalType":"bytes"},{"name":"accountGasLimits","type":"bytes32","internalType":"bytes32"},{"name":"preVerificationGas","type":"uint256","internalType":"uint256"},{"name":"gasFees","type":"bytes32","internalType":"bytes32"},{"name":"paymasterAndData","type":"bytes","internalType":"bytes"},{"name":"signature","type":"bytes","internalType":"bytes"}]},{"name":"userOpHash","type":"bytes32","internalType":"bytes32"},{"name":"maxCost","type":"uint256","internalType":"uint256"}],"outputs":[{"name":"context","type":"bytes","internalType":"bytes"},{"name":"validationData","type":"uint256","internalType":"uint256"}],"stateMutability":"nonpayable"},{"type":"function","name":"withdrawStake","inputs":[{"name":"withdrawAddress","type":"address","internalType":"address payable"}],"outputs":[],"stateMutability":"nonpayable"},{"type":"function","name":"withdrawTo","inputs":[{"name":"withdrawAddress","type":"address","internalType":"address payable"},{"name":"amount","type":"uint256","internalType":"uint256"}],"outputs":[],"stateMutability":"nonpayable"},{"type":"event","name":"OwnershipHandoverCanceled","inputs":[{"name":"pendingOwner","type":"address","indexed":true,"internalType":"address"}],"anonymous":false},{"type":"event","name":"OwnershipHandoverRequested","inputs":[{"name":"pendingOwner","type":"address","indexed":true,"internalType":"address"}],"anonymous":false},{"type":"event","name":"OwnershipTransferred","inputs":[{"name":"oldOwner","type":"address","indexed":true,"internalType":"address"},{"name":"newOwner","type":"address","indexed":true,"internalType":"address"}],"anonymous":false},{"type":"error","name":"AlreadyInitialized","inputs":[]},{"type":"error","name":"NewOwnerIsZeroAddress","inputs":[]},{"type":"error","name":"NoHandoverRequest","inputs":[]},{"type":"error","name":"Unauthorized","inputs":[]}],"bytecode":{"object":"0x60a080604052346101bb57606081610d03803803809161001f82856101c0565b8339810103126101bb5780516001600160a01b03811691908281036101bb5760208201516001600160a01b03811692908390036101bb576020604060249201519433638b78c6d819553360007f8be0079c531659141344cd1fd0a4f28419497f9722a3daafe3b4186f6b6457e08180a36040516301ffc9a760e01b815263122a0e9b60e31b600482015292839182905afa9081156101af5760009161016d575b501561012857608052600080546001600160a01b031916919091179055600155604051610b0990816101fa82396080518181816101ef0152818161029601528181610341015281816103c9015281816104330152818161072b0152818161080901526108ed0152f35b60405162461bcd60e51b815260206004820152601e60248201527f49456e747279506f696e7420696e74657266616365206d69736d6174636800006044820152606490fd5b6020813d6020116101a7575b81610186602093836101c0565b810103126101a357519081151582036101a05750386100bf565b80fd5b5080fd5b3d9150610179565b6040513d6000823e3d90fd5b600080fd5b601f909101601f19168101906001600160401b038211908210176101e357604052565b634e487b7160e01b600052604160045260246000fdfe6080604052600436101561001257600080fd5b6000803560e01c80630396cb60146107e157806305c42f241461079b578063205c28781461070657806325692962146106bb57806347ccca021461069457806352b7512c146105fb57806354d1f13d146105b5578063715018a61461056a57806378673813146105475780637c627b21146104ad57806387d28e011461048f5780638da5cb5b14610462578063b0d691fe1461041d578063bb9fe6bf146103ad578063c23a5cea1461031c578063c399ec8814610269578063d0e30db0146101e0578063f04e283e14610187578063f2fde38b146101395763fee81cf4146100f957600080fd5b3461013657602036600319011261013657600435906001600160a01b03821682036101365763389a75e1600c5252602080600c2054604051908152f35b80fd5b506020366003190112610136576004356001600160a01b0381168103610183576101616108ce565b8060601b156101765761017390610acb565b80f35b637448fbae82526004601cfd5b5080fd5b506020366003190112610136576004356001600160a01b0381168103610183576101af6108ce565b63389a75e1600c528082526020600c20805442116101d35790826101739255610acb565b636f5e881883526004601cfd5b508060031936011261013657807f00000000000000000000000000000000000000000000000000000000000000006001600160a01b0316803b1561026657816024916040519283809263b760faf960e01b825230600483015234905af1801561025b5761024a5750f35b8161025491610896565b6101365780f35b6040513d84823e3d90fd5b50fd5b50346101365780600319360112610136576040516370a0823160e01b8152306004820152906020826024817f00000000000000000000000000000000000000000000000000000000000000006001600160a01b03165afa90811561031057906102d8575b602090604051908152f35b506020813d602011610308575b816102f260209383610896565b8101031261030357602090516102cd565b600080fd5b3d91506102e5565b604051903d90823e3d90fd5b50346101365760203660031901126101365780610337610880565b61033f6108ce565b7f00000000000000000000000000000000000000000000000000000000000000006001600160a01b031690813b156103a95760405163611d2e7560e11b81526001600160a01b0390911660048201529082908290602490829084905af1801561025b5761024a5750f35b5050fd5b50346101365780600319360112610136576103c66108ce565b807f00000000000000000000000000000000000000000000000000000000000000006001600160a01b0316803b156102665781809160046040518094819363bb9fe6bf60e01b83525af1801561025b5761024a5750f35b50346101365780600319360112610136576040517f00000000000000000000000000000000000000000000000000000000000000006001600160a01b03168152602090f35b5034610136578060031936011261013657638b78c6d819546040516001600160a01b039091168152602090f35b50346101365780600319360112610136576020600154604051908152f35b503461013657608036600319011261013657600360043510156101365760243567ffffffffffffffff8111610183573660238201121561018357806004013567ffffffffffffffff811161054357369101602401116101365761050e6108eb565b60405162461bcd60e51b815260206004820152600d60248201526c6d757374206f7665727269646560981b6044820152606490fd5b8280fd5b5034610136576020366003190112610136576105616108ce565b60043560015580f35b50806003193601126101365761057e6108ce565b80638b78c6d819547f8be0079c531659141344cd1fd0a4f28419497f9722a3daafe3b4186f6b6457e08280a380638b78c6d8195580f35b50806003193601126101365763389a75e1600c52338152806020600c2055337ffa7b8eab7da67f412cc9575ed43464468f9bfbae89d1675917346ca6d8fe3c928280a280f35b50346101365760603660031901126101365760043567ffffffffffffffff8111610183576101206003198236030112610183576106429061063a6108eb565b60040161095a565b60405192839160408352835191826040850152805b83811061067c5750606080955083850101526020830152601f80199101168101030190f35b60208682018101516060898401015287955001610657565b5034610136578060031936011261013657546040516001600160a01b039091168152602090f35b50806003193601126101365763389a75e1600c523381526202a30042016020600c2055337fdbf36a107da19e49527a7176a1babf963b4b0ff8cde35ee35d6cd8f1f9ac7e1d8280a280f35b50346101365760403660031901126101365780610721610880565b6107296108ce565b7f00000000000000000000000000000000000000000000000000000000000000006001600160a01b031690813b156103a95760405163040b850f60e31b81526001600160a01b03909116600482015260248035908201529082908290604490829084905af1801561025b5761024a5750f35b50346101365780600319360112610136576040516308b338f160e31b8152906020826004816001605360981b015afa90811561031057906102d857602090604051908152f35b5060203660031901126101365760043563ffffffff8116809103610183576108076108ce565b7f00000000000000000000000000000000000000000000000000000000000000006001600160a01b0316908290823b15610183578190602460405180958193621cb65b60e51b8352600483015234905af18015610873576108655780f35b61086e91610896565b388180f35b50604051903d90823e3d90fd5b600435906001600160a01b038216820361030357565b90601f8019910116810190811067ffffffffffffffff8211176108b857604052565b634e487b7160e01b600052604160045260246000fd5b638b78c6d8195433036108dd57565b6382b429006000526004601cfd5b7f00000000000000000000000000000000000000000000000000000000000000006001600160a01b0316330361091d57565b60405162461bcd60e51b815260206004820152601560248201527414d95b99195c881b9bdd08115b9d1c9e541bda5b9d605a1b6044820152606490fd5b606090600090356001600160a01b038116810361018357600091829160405160208101916bffffffffffffffffffffffff1990871b168252826034820152603481526109a7605482610896565b51902060405160208101918252602081526109c3604082610896565b519020825460405190861b6bffffffffffffffffffffffff1916602082019081526034808301939093529181529091506109fe605482610896565b51906101015afa903d15610ac557503d9067ffffffffffffffff82116108b85760405191610a36601f8201601f191660200184610896565b82523d6000602084013e5b15610a8f57602081519181808201938492010103126103035751610a7757604051610a6d602082610896565b6000815290600190565b604051610a85602082610896565b6000815290600090565b60405162461bcd60e51b815260206004820152600e60248201526d130c54d313d0510819985a5b195960921b6044820152606490fd5b90610a41565b60018060a01b031680638b78c6d819547f8be0079c531659141344cd1fd0a4f28419497f9722a3daafe3b4186f6b6457e0600080a3638b78c6d8195556","linkReferences":{}},"methodIdentifiers":{"addStake(uint32)":"0396cb60","cancelOwnershipHandover()":"54d1f13d","completeOwnershipHandover(address)":"f04e283e","deposit()":"d0e30db0","entryPoint()":"b0d691fe","getDeposit()":"c399ec88","latestL1BlockNumber()":"05c42f24","nft()":"47ccca02","owner()":"8da5cb5b","ownershipHandoverExpiresAt(address)":"fee81cf4","postOp(uint8,bytes,uint256,uint256)":"7c627b21","renounceOwnership()":"715018a6","requestOwnershipHandover()":"25692962","slotToRead()":"87d28e01","transferOwnership(address)":"f2fde38b","unlockStake()":"bb9fe6bf","updateSlotToRead(uint256)":"78673813","validatePaymasterUserOp((address,uint256,bytes,bytes,bytes32,uint256,bytes32,bytes,bytes),bytes32,uint256)":"52b7512c","withdrawStake(address)":"c23a5cea","withdrawTo(address,uint256)":"205c2878"},"id":1}