{"abi":[{"type":"constructor","inputs":[],"stateMutability":"nonpayable"},{"type":"function","name":"LOCK_PERIOD","inputs":[],"outputs":[{"name":"","type":"uint256","internalType":"uint256"}],"stateMutability":"view"},{"type":"function","name":"canWithdraw","inputs":[{"name":"token","type":"address","internalType":"address"},{"name":"amount","type":"uint256","internalType":"uint256"}],"outputs":[{"name":"","type":"bool","internalType":"bool"}],"stateMutability":"view"},{"type":"function","name":"deposit","inputs":[{"name":"token","type":"address","internalType":"address"},{"name":"amount","type":"uint256","internalType":"uint256"}],"outputs":[],"stateMutability":"nonpayable"},{"type":"function","name":"deposits","inputs":[{"name":"","type":"address","internalType":"address"},{"name":"","type":"address","internalType":"address"}],"outputs":[{"name":"amount","type":"uint256","internalType":"uint256"},{"name":"unlockTime","type":"uint256","internalType":"uint256"}],"stateMutability":"view"},{"type":"function","name":"executeTokenWithdrawalRequest","inputs":[{"name":"token","type":"address","internalType":"address"},{"name":"paymasterId","type":"address","internalType":"address"}],"outputs":[],"stateMutability":"nonpayable"},{"type":"function","name":"getDeposit","inputs":[{"name":"token","type":"address","internalType":"address"},{"name":"user","type":"address","internalType":"address"}],"outputs":[{"name":"amount","type":"uint256","internalType":"uint256"},{"name":"unlockTime","type":"uint256","internalType":"uint256"}],"stateMutability":"view"},{"type":"function","name":"owner","inputs":[],"outputs":[{"name":"","type":"address","internalType":"address"}],"stateMutability":"view"},{"type":"function","name":"renounceOwnership","inputs":[],"outputs":[],"stateMutability":"nonpayable"},{"type":"function","name":"submitTokenWithdrawalRequest","inputs":[{"name":"token","type":"address","internalType":"address"},{"name":"withdrawAddress","type":"address","internalType":"address"},{"name":"amount","type":"uint256","internalType":"uint256"}],"outputs":[],"stateMutability":"nonpayable"},{"type":"function","name":"transferOwnership","inputs":[{"name":"newOwner","type":"address","internalType":"address"}],"outputs":[],"stateMutability":"nonpayable"},{"type":"function","name":"withdraw","inputs":[{"name":"token","type":"address","internalType":"address"},{"name":"amount","type":"uint256","internalType":"uint256"}],"outputs":[],"stateMutability":"nonpayable"},{"type":"event","name":"Deposited","inputs":[{"name":"token","type":"address","indexed":true,"internalType":"address"},{"name":"user","type":"address","indexed":true,"internalType":"address"},{"name":"amount","type":"uint256","indexed":false,"internalType":"uint256"}],"anonymous":false},{"type":"event","name":"LockPeriodUpdated","inputs":[{"name":"newPeriod","type":"uint256","indexed":false,"internalType":"uint256"}],"anonymous":false},{"type":"event","name":"OwnershipTransferred","inputs":[{"name":"previousOwner","type":"address","indexed":true,"internalType":"address"},{"name":"newOwner","type":"address","indexed":true,"internalType":"address"}],"anonymous":false},{"type":"event","name":"WithdrawalRequestSubmitted","inputs":[{"name":"withdrawAddress","type":"address","indexed":true,"internalType":"address"},{"name":"token","type":"address","indexed":true,"internalType":"address"},{"name":"amount","type":"uint256","indexed":true,"internalType":"uint256"},{"name":"actor","type":"address","indexed":false,"internalType":"address"}],"anonymous":false},{"type":"event","name":"Withdrawn","inputs":[{"name":"token","type":"address","indexed":true,"internalType":"address"},{"name":"user","type":"address","indexed":true,"internalType":"address"},{"name":"amount","type":"uint256","indexed":false,"internalType":"uint256"}],"anonymous":false},{"type":"error","name":"AddressEmptyCode","inputs":[{"name":"target","type":"address","internalType":"address"}]},{"type":"error","name":"AddressInsufficientBalance","inputs":[{"name":"account","type":"address","internalType":"address"}]},{"type":"error","name":"FailedInnerCall","inputs":[]},{"type":"error","name":"OwnableInvalidOwner","inputs":[{"name":"owner","type":"address","internalType":"address"}]},{"type":"error","name":"OwnableUnauthorizedAccount","inputs":[{"name":"account","type":"address","internalType":"address"}]},{"type":"error","name":"ReentrancyGuardReentrantCall","inputs":[]},{"type":"error","name":"SafeERC20FailedOperation","inputs":[{"name":"token","type":"address","internalType":"address"}]}],"bytecode":{"object":"0x6080806040523461007f57600160005533156100695760018054336001600160a01b03198216811790925560405191906001600160a01b03167f8be0079c531659141344cd1fd0a4f28419497f9722a3daafe3b4186f6b6457e0600080a3610bfc90816100858239f35b631e4fbdf760e01b815260006004820152602490fd5b600080fdfe60806040908082526004918236101561001757600080fd5b600091823560e01c9081631820cabb146108855750806347e7ef241461074757806360c85673146105fe578063715018a6146105a15780638da5cb5b146105795780638f601f6614610526578063c35082a9146104be578063e2ab7cf214610448578063f2fde38b146103b8578063f3fef3a3146102b25763fe6ab7211461009e57600080fd5b346102ae57806003193601126102ae576100b66108a2565b6100be6108bd565b906100c7610a17565b6001600160a01b039081169181906100e08415156108d3565b1694858552602091600383528486208551976100fb896109a6565b828254168952600182015498858101998a526060600385600286015416948a8401958652015491019080825215610274575162015180810180911161026157421061021e578588526002855286882081895285528688209851895499908a811115610218575089945b85156101d55750610199857fd1c19fbcd4551a5edfb66d43d2e337c04837afda3482b42bdf569a8fccdae5fb98999a9b6109f4565b905588526003845287600388822082815582600182015582600282015501556101c6838383511688610a66565b51169451908152a36001815580f35b885162461bcd60e51b8152908101879052601b60248201527f43616e6e6f74207769746864726177207a65726f20616d6f756e7400000000006044820152606490fd5b94610164565b865162461bcd60e51b8152808501869052601760248201527f52657175657374206e6f7420636c6561726564207965740000000000000000006044820152606490fd5b634e487b7160e01b895260118552602489fd5b875162461bcd60e51b81528086018790526014602482015273139bc81c995c5d595cdd081cdd589b5a5d1d195960621b6044820152606490fd5b5080fd5b5082346103b457816003193601126103b4576102cc6108a2565b91602435926102d9610a17565b6001600160a01b0316916102ee8315156108d3565b6102f9841515610917565b82855260026020528185203386526020528185209081549061031d86831015610963565b60018301544210610371575084610333916109f4565b9055610340833384610a66565b519182527fd1c19fbcd4551a5edfb66d43d2e337c04837afda3482b42bdf569a8fccdae5fb60203393a36001815580f35b606490602085519162461bcd60e51b8352820152601760248201527f546f6b656e7320617265207374696c6c206c6f636b65640000000000000000006044820152fd5b8280fd5b5082346103b45760203660031901126103b4576103d36108a2565b906103dc610a3a565b6001600160a01b03918216928315610432575050600154826bffffffffffffffffffffffff60a01b821617600155167f8be0079c531659141344cd1fd0a4f28419497f9722a3daafe3b4186f6b6457e08380a380f35b51631e4fbdf760e01b8152908101849052602490fd5b5090346104bb57816003193601126104bb57602091829181906001600160a01b036104716108a2565b16815260028452818120338252845220815161048c816109d8565b600182549283835201549384910152602435111591826104b0575b50519015158152f35b4210159150836104a7565b80fd5b50346102ae57806003193601126102ae5780916104d96108a2565b6104e16108bd565b9060018060a01b038091168352600260205283832091168252602052206020825161050b816109d8565b60018354938483520154918291015282519182526020820152f35b50346102ae57806003193601126102ae5780916105416108a2565b6105496108bd565b9060018060a01b038091168352600260205283832091168252602052206001815491015482519182526020820152f35b50346102ae57816003193601126102ae5760015490516001600160a01b039091168152602090f35b82346104bb57806003193601126104bb576105ba610a3a565b600180546001600160a01b0319811690915581906001600160a01b03167f8be0079c531659141344cd1fd0a4f28419497f9722a3daafe3b4186f6b6457e08280a380f35b508290346103b45760603660031901126103b45761061a6108a2565b916106236108bd565b604435936001600160a01b03908116939181906106418615156108d3565b1692831561070457507f71534e8473fac722896ee80a1461b3bb937286d0efe757ab919774fadeb026ce9160209161067a871515610917565b85885260028352818820338952835261069887838a20541015610963565b6003888351926106a7846109a6565b8884528584018a81528585019189835280876060880195428752338152878b5220965116916bffffffffffffffffffffffff60a01b928388541617875551600187015560028601925116908254161790555191015551338152a480f35b606490602084519162461bcd60e51b8352820152601f60248201527f43616e6e6f7420776974686472617720746f207a65726f2061646472657373006044820152fd5b50346102ae57806003193601126102ae576107606108a2565b906024359161076d610a17565b6001600160a01b0316906107828215156108d3565b61078d831515610917565b818452602090600282528085203386528252808520805490858201809211610872575562015180420180421161085f578386526002835281862033875283526001828720015580516323b872dd60e01b838201523360248201523060448201528460648201526064815260a0810181811067ffffffffffffffff82111761084c57829161083e917f8752a472e571a816aea92eec8dae9baf628e840f4929fbcc2d155e6233ff68a795945285610aa6565b519384523393a36001815580f35b634e487b7160e01b875260418852602487fd5b634e487b7160e01b865260118752602486fd5b634e487b7160e01b875260118852602487fd5b8390346102ae57816003193601126102ae57806201518060209252f35b600435906001600160a01b03821682036108b857565b600080fd5b602435906001600160a01b03821682036108b857565b156108da57565b60405162461bcd60e51b8152602060048201526015602482015274496e76616c696420746f6b656e206164647265737360581b6044820152606490fd5b1561091e57565b60405162461bcd60e51b815260206004820152601d60248201527f416d6f756e74206d7573742062652067726561746572207468616e20300000006044820152606490fd5b1561096a57565b60405162461bcd60e51b8152602060048201526014602482015273496e73756666696369656e742062616c616e636560601b6044820152606490fd5b6080810190811067ffffffffffffffff8211176109c257604052565b634e487b7160e01b600052604160045260246000fd5b6040810190811067ffffffffffffffff8211176109c257604052565b91908203918211610a0157565b634e487b7160e01b600052601160045260246000fd5b600260005414610a28576002600055565b604051633ee5aeb560e01b8152600490fd5b6001546001600160a01b03163303610a4e57565b60405163118cdaa760e01b8152336004820152602490fd5b60405163a9059cbb60e01b60208201526001600160a01b039092166024830152604480830193909352918152610aa491610a9f826109a6565b610aa6565b565b60018060a01b031690600080826020829451910182865af13d15610b8d5767ffffffffffffffff903d828111610b795760405192601f8201601f19908116603f0116840190811184821017610b65576040528252610b0d91903d84602084013e5b84610b99565b908151918215159283610b3d575b505050610b255750565b60249060405190635274afe760e01b82526004820152fd5b8192935090602091810103126102ae5760200151908115918215036104bb5750388080610b1b565b634e487b7160e01b85526041600452602485fd5b634e487b7160e01b84526041600452602484fd5b610b0d90606090610b07565b90610bc05750805115610bae57805190602001fd5b604051630a12f52160e11b8152600490fd5b81511580610bf3575b610bd1575090565b604051639996b31560e01b81526001600160a01b039091166004820152602490fd5b50803b15610bc956","linkReferences":{}},"methodIdentifiers":{"LOCK_PERIOD()":"1820cabb","canWithdraw(address,uint256)":"e2ab7cf2","deposit(address,uint256)":"47e7ef24","deposits(address,address)":"8f601f66","executeTokenWithdrawalRequest(address,address)":"fe6ab721","getDeposit(address,address)":"c35082a9","owner()":"8da5cb5b","renounceOwnership()":"715018a6","submitTokenWithdrawalRequest(address,address,uint256)":"60c85673","transferOwnership(address)":"f2fde38b","withdraw(address,uint256)":"f3fef3a3"},"id":3}