{"abi":[{"type":"constructor","inputs":[],"stateMutability":"nonpayable"},{"type":"function","name":"MAX_SUPPLY","inputs":[],"outputs":[{"name":"","type":"uint256","internalType":"uint256"}],"stateMutability":"view"},{"type":"function","name":"MINT_PRICE","inputs":[],"outputs":[{"name":"","type":"uint256","internalType":"uint256"}],"stateMutability":"view"},{"type":"function","name":"approve","inputs":[{"name":"to","type":"address","internalType":"address"},{"name":"tokenId","type":"uint256","internalType":"uint256"}],"outputs":[],"stateMutability":"nonpayable"},{"type":"function","name":"balanceOf","inputs":[{"name":"owner","type":"address","internalType":"address"}],"outputs":[{"name":"","type":"uint256","internalType":"uint256"}],"stateMutability":"view"},{"type":"function","name":"getApproved","inputs":[{"name":"tokenId","type":"uint256","internalType":"uint256"}],"outputs":[{"name":"","type":"address","internalType":"address"}],"stateMutability":"view"},{"type":"function","name":"isApprovedForAll","inputs":[{"name":"owner","type":"address","internalType":"address"},{"name":"operator","type":"address","internalType":"address"}],"outputs":[{"name":"","type":"bool","internalType":"bool"}],"stateMutability":"view"},{"type":"function","name":"mint","inputs":[],"outputs":[],"stateMutability":"payable"},{"type":"function","name":"name","inputs":[],"outputs":[{"name":"","type":"string","internalType":"string"}],"stateMutability":"view"},{"type":"function","name":"owner","inputs":[],"outputs":[{"name":"","type":"address","internalType":"address"}],"stateMutability":"view"},{"type":"function","name":"ownerOf","inputs":[{"name":"tokenId","type":"uint256","internalType":"uint256"}],"outputs":[{"name":"","type":"address","internalType":"address"}],"stateMutability":"view"},{"type":"function","name":"renounceOwnership","inputs":[],"outputs":[],"stateMutability":"nonpayable"},{"type":"function","name":"safeTransferFrom","inputs":[{"name":"from","type":"address","internalType":"address"},{"name":"to","type":"address","internalType":"address"},{"name":"tokenId","type":"uint256","internalType":"uint256"}],"outputs":[],"stateMutability":"nonpayable"},{"type":"function","name":"safeTransferFrom","inputs":[{"name":"from","type":"address","internalType":"address"},{"name":"to","type":"address","internalType":"address"},{"name":"tokenId","type":"uint256","internalType":"uint256"},{"name":"data","type":"bytes","internalType":"bytes"}],"outputs":[],"stateMutability":"nonpayable"},{"type":"function","name":"setApprovalForAll","inputs":[{"name":"operator","type":"address","internalType":"address"},{"name":"approved","type":"bool","internalType":"bool"}],"outputs":[],"stateMutability":"nonpayable"},{"type":"function","name":"supportsInterface","inputs":[{"name":"interfaceId","type":"bytes4","internalType":"bytes4"}],"outputs":[{"name":"","type":"bool","internalType":"bool"}],"stateMutability":"view"},{"type":"function","name":"symbol","inputs":[],"outputs":[{"name":"","type":"string","internalType":"string"}],"stateMutability":"view"},{"type":"function","name":"tokenURI","inputs":[{"name":"tokenId","type":"uint256","internalType":"uint256"}],"outputs":[{"name":"","type":"string","internalType":"string"}],"stateMutability":"view"},{"type":"function","name":"totalSupply","inputs":[],"outputs":[{"name":"","type":"uint256","internalType":"uint256"}],"stateMutability":"view"},{"type":"function","name":"transferFrom","inputs":[{"name":"from","type":"address","internalType":"address"},{"name":"to","type":"address","internalType":"address"},{"name":"tokenId","type":"uint256","internalType":"uint256"}],"outputs":[],"stateMutability":"nonpayable"},{"type":"function","name":"transferOwnership","inputs":[{"name":"newOwner","type":"address","internalType":"address"}],"outputs":[],"stateMutability":"nonpayable"},{"type":"function","name":"withdraw","inputs":[],"outputs":[],"stateMutability":"nonpayable"},{"type":"event","name":"Approval","inputs":[{"name":"owner","type":"address","indexed":true,"internalType":"address"},{"name":"approved","type":"address","indexed":true,"internalType":"address"},{"name":"tokenId","type":"uint256","indexed":true,"internalType":"uint256"}],"anonymous":false},{"type":"event","name":"ApprovalForAll","inputs":[{"name":"owner","type":"address","indexed":true,"internalType":"address"},{"name":"operator","type":"address","indexed":true,"internalType":"address"},{"name":"approved","type":"bool","indexed":false,"internalType":"bool"}],"anonymous":false},{"type":"event","name":"OwnershipTransferred","inputs":[{"name":"previousOwner","type":"address","indexed":true,"internalType":"address"},{"name":"newOwner","type":"address","indexed":true,"internalType":"address"}],"anonymous":false},{"type":"event","name":"Transfer","inputs":[{"name":"from","type":"address","indexed":true,"internalType":"address"},{"name":"to","type":"address","indexed":true,"internalType":"address"},{"name":"tokenId","type":"uint256","indexed":true,"internalType":"uint256"}],"anonymous":false},{"type":"error","name":"ERC721IncorrectOwner","inputs":[{"name":"sender","type":"address","internalType":"address"},{"name":"tokenId","type":"uint256","internalType":"uint256"},{"name":"owner","type":"address","internalType":"address"}]},{"type":"error","name":"ERC721InsufficientApproval","inputs":[{"name":"operator","type":"address","internalType":"address"},{"name":"tokenId","type":"uint256","internalType":"uint256"}]},{"type":"error","name":"ERC721InvalidApprover","inputs":[{"name":"approver","type":"address","internalType":"address"}]},{"type":"error","name":"ERC721InvalidOperator","inputs":[{"name":"operator","type":"address","internalType":"address"}]},{"type":"error","name":"ERC721InvalidOwner","inputs":[{"name":"owner","type":"address","internalType":"address"}]},{"type":"error","name":"ERC721InvalidReceiver","inputs":[{"name":"receiver","type":"address","internalType":"address"}]},{"type":"error","name":"ERC721InvalidSender","inputs":[{"name":"sender","type":"address","internalType":"address"}]},{"type":"error","name":"ERC721NonexistentToken","inputs":[{"name":"tokenId","type":"uint256","internalType":"uint256"}]},{"type":"error","name":"OwnableInvalidOwner","inputs":[{"name":"owner","type":"address","internalType":"address"}]},{"type":"error","name":"OwnableUnauthorizedAccount","inputs":[{"name":"account","type":"address","internalType":"address"}]}],"bytecode":{"object":"0x60806040523461038957604080519081016001600160401b03811182821017610296576040908152600c82526b109b1d5950da1a5c0813919560a21b602083015280519081016001600160401b03811182821017610296576040526004815263424c554560e01b602082015281516001600160401b03811161029657600054600181811c9116801561037f575b602082101461027657601f811161031b575b50602092601f82116001146102b757928192936000926102ac575b50508160011b916000199060031b1c1916176000555b80516001600160401b03811161029657600154600181811c9116801561028c575b602082101461027657601f8111610211575b50602091601f82116001146101ad579181926000926101a2575b50508160011b916000199060031b1c1916176001555b331561018c5760068054336001600160a01b03198216811790925560405191906001600160a01b03167f8be0079c531659141344cd1fd0a4f28419497f9722a3daafe3b4186f6b6457e0600080a36111e1908161038f8239f35b631e4fbdf760e01b600052600060045260246000fd5b01519050388061011c565b601f198216926001600052806000209160005b8581106101f9575083600195106101e0575b505050811b01600155610132565b015160001960f88460031b161c191690553880806101d2565b919260206001819286850151815501940192016101c0565b60016000527fb10e2d527612073b26eecdfd717e6a320cf44b4afac2b0732d9fcbe2b7fa0cf6601f830160051c8101916020841061026c575b601f0160051c01905b8181106102605750610102565b60008155600101610253565b909150819061024a565b634e487b7160e01b600052602260045260246000fd5b90607f16906100f0565b634e487b7160e01b600052604160045260246000fd5b0151905038806100b9565b601f1982169360008052806000209160005b86811061030357508360019596106102ea575b505050811b016000556100cf565b015160001960f88460031b161c191690553880806102dc565b919260206001819286850151815501940192016102c9565b600080527f290decd9548b62a8d60345a988386fc84ba6bc95484008f6362f93160ef3e563601f830160051c81019160208410610375575b601f0160051c01905b818110610369575061009e565b6000815560010161035c565b9091508190610353565b90607f169061008c565b600080fdfe608080604052600436101561001357600080fd5b60003560e01c90816301ffc9a714610d3a5750806306fdde0314610c7f578063081812fc14610c41578063095ea7b314610b525780631249c58b146108be57806318160ddd146108a057806323b872dd1461088957806332cb6b0c1461086c5780633ccfd60b146107ae57806342842e0e1461077e5780636352211e1461074e57806370a08231146106f8578063715018a61461069b5780638da5cb5b1461067257806395d89b4114610566578063a22cb465146104c5578063b88d4fde1461042f578063c002d23d1461040c578063c87b56dd146101f0578063e985e9c5146101955763f2fde38b1461010657600080fd5b346101905760203660031901126101905761011f610ded565b6101276110a4565b6001600160a01b0316801561017a57600680546001600160a01b0319811683179091556001600160a01b03167f8be0079c531659141344cd1fd0a4f28419497f9722a3daafe3b4186f6b6457e0600080a3005b631e4fbdf760e01b600052600060045260246000fd5b600080fd5b34610190576040366003190112610190576101ae610ded565b6101b6610e03565b9060018060a01b0316600052600560205260406000209060018060a01b0316600052602052602060ff604060002054166040519015158152f35b346101905760203660031901126101905760043561020d8161106d565b5060409081519161021e8184610e53565b60158352602083019274697066733a2f2f594f55525f424153455f5552492f60581b845282908360009472184f03e93ff9f4daa797ed6e38ed64bf6a1f0160401b8110156103e5575b50806d04ee2d6d415b85acef8100000000600a9210156103ca575b662386f26fc100008110156103b6575b6305f5e1008110156103a5575b612710811015610396575b6064811015610388575b101561037e575b6001840191600a60216102e56102d086610e8b565b956102dd88519788610e53565b808752610e8b565b602086019790601f19013689378501015b60001901916f181899199a1a9b1b9c1cb0b131b232b360811b8282061a83530490811561032557600a906102f6565b50506020610349946103689361035861037a98875198899651809287890190610da5565b85019151809385840190610da5565b010103601f198101845283610e53565b51918291602083526020830190610dc8565b0390f35b92600101926102bb565b6064600291049501946102b4565b612710600491049501946102aa565b6305f5e1006008910495019461029f565b662386f26fc1000060109104950194610292565b6d04ee2d6d415b85acef810000000060209104950194610282565b939450849372184f03e93ff9f4daa797ed6e38ed64bf6a1f0160401b90049050600a610267565b3461019057600036600319011261019057602060405167016345785d8a00008152f35b3461019057608036600319011261019057610448610ded565b610450610e03565b906044356064359267ffffffffffffffff841161019057366023850112156101905783600401359261048184610e8b565b9361048f6040519586610e53565b80855236602482880101116101905760208160009260246104c3990183890137860101526104be838383610ea7565b6110cd565b005b34610190576040366003190112610190576104de610ded565b60243590811515809203610190576001600160a01b031690811561055157336000526005602052604060002082600052602052604060002060ff1981541660ff83161790556040519081527f17307eab39ab6107e8899845ad3d59bd9653f200f220920489ca2b5937696c3160203392a3005b50630b61174360e31b60005260045260246000fd5b346101905760003660031901126101905760405160006001548060011c90600181168015610668575b6020831081146106545782855290811561063057506001146105d0575b61037a836105bc81850382610e53565b604051918291602083526020830190610dc8565b91905060016000527fb10e2d527612073b26eecdfd717e6a320cf44b4afac2b0732d9fcbe2b7fa0cf6916000905b808210610616575090915081016020016105bc6105ac565b9192600181602092548385880101520191019092916105fe565b60ff191660208086019190915291151560051b840190910191506105bc90506105ac565b634e487b7160e01b84526022600452602484fd5b91607f169161058f565b34610190576000366003190112610190576006546040516001600160a01b039091168152602090f35b34610190576000366003190112610190576106b46110a4565b600680546001600160a01b031981169091556000906001600160a01b03167f8be0079c531659141344cd1fd0a4f28419497f9722a3daafe3b4186f6b6457e08280a3005b34610190576020366003190112610190576001600160a01b03610719610ded565b1680156107385760005260036020526020604060002054604051908152f35b6322718ad960e21b600052600060045260246000fd5b3461019057602036600319011261019057602061076c60043561106d565b6040516001600160a01b039091168152f35b34610190576104c361078f36610e19565b906040519261079f602085610e53565b600084526104be838383610ea7565b34610190576000366003190112610190576107c76110a4565b47801561082e576006546000918291829182916001600160a01b03165af16107ed61103d565b50156107f557005b60405162461bcd60e51b815260206004820152601160248201527015da5d1a191c985dd85b0819985a5b1959607a1b6044820152606490fd5b60405162461bcd60e51b81526020600482015260166024820152754e6f2062616c616e636520746f20776974686472617760501b6044820152606490fd5b346101905760003660031901126101905760206040516127108152f35b34610190576104c361089a36610e19565b91610ea7565b34610190576000366003190112610190576020600754604051908152f35b60003660031901126101905767016345785d8a00003410610b1657600754612710811015610adc5760010180600755602090604051906108fe8383610e53565b600082523315610ac65760008181526002845260408120546001600160a01b031680151591839083610a92575b338082526003885260408083208054600101905583835260028952822080546001600160a01b031916821790559083907fddf252ad1be2c89b69c2b068fc378daa952ba7f163c4a11628f55a4df523b3ef9080a450610a7c57333b61098c57005b6109c79183916040519384928392630a85bd0160e11b8452336004850152600060248501526044840152608060648401526084830190610dc8565b03816000335af18091600091610a37575b5090610a0757506109e761103d565b80519182610a0457633250574960e11b6000523360045260246000fd5b01fd5b6001600160e01b03191663757a42ff60e11b019050610a2257005b633250574960e11b6000523360045260246000fd5b8381813d8311610a75575b610a4c8183610e53565b81010312610a715751906001600160e01b031982168203610a6e5750836109d8565b80fd5b5080fd5b503d610a42565b6339e3563760e11b600052600060045260246000fd5b600082815260046020526040902080546001600160a01b03191690558281526003875260408120805460001901905561092b565b633250574960e11b600052600060045260246000fd5b60405162461bcd60e51b815260206004820152601260248201527113585e081cdd5c1c1b1e481c995858da195960721b6044820152606490fd5b60405162461bcd60e51b8152602060048201526014602482015273125b9cdd59999a58da595b9d081c185e5b595b9d60621b6044820152606490fd5b3461019057604036600319011261019057610b6b610ded565b602435610b778161106d565b33151580610c2e575b80610c00575b610beb5781906001600160a01b0384811691167f8c5be1e5ebec7d5bd14f71427d1e84f3dd0314c0f7b2291e5b200ac8c7c3b925600080a4600090815260046020526040902080546001600160a01b0319166001600160a01b03909216919091179055005b63a9fbf51f60e01b6000523360045260246000fd5b506001600160a01b038116600090815260056020908152604080832033845290915290205460ff1615610b86565b506001600160a01b038116331415610b80565b3461019057602036600319011261019057600435610c5e8161106d565b506000526004602052602060018060a01b0360406000205416604051908152f35b3461019057600036600319011261019057604051600080548060011c90600181168015610d30575b602083108114610654578285529081156106305750600114610cd35761037a836105bc81850382610e53565b60008080527f290decd9548b62a8d60345a988386fc84ba6bc95484008f6362f93160ef3e563939250905b808210610d16575090915081016020016105bc6105ac565b919260018160209254838588010152019101909291610cfe565b91607f1691610ca7565b34610190576020366003190112610190576004359063ffffffff60e01b8216809203610190576020916380ac58cd60e01b8114908115610d94575b8115610d83575b5015158152f35b6301ffc9a760e01b14905083610d7c565b635b5e139f60e01b81149150610d75565b60005b838110610db85750506000910152565b8181015183820152602001610da8565b90602091610de181518092818552858086019101610da5565b601f01601f1916010190565b600435906001600160a01b038216820361019057565b602435906001600160a01b038216820361019057565b6060906003190112610190576004356001600160a01b038116810361019057906024356001600160a01b0381168103610190579060443590565b90601f8019910116810190811067ffffffffffffffff821117610e7557604052565b634e487b7160e01b600052604160045260246000fd5b67ffffffffffffffff8111610e7557601f01601f191660200190565b6001600160a01b0390911691908215610ac6576000828152600260205260408120546001600160a01b0316938391859033151580610fa5575b507fddf252ad1be2c89b69c2b068fc378daa952ba7f163c4a11628f55a4df523b3ef9082610f70575b83815260036020526040812060018154019055848152600260205260408120846bffffffffffffffffffffffff60a01b82541617905580a46001600160a01b0316808303610f5657505050565b6364283d7b60e01b60005260045260245260445260646000fd5b600085815260046020526040902080546001600160a01b03191690558281526003602052604081208054600019019055610f09565b915091925080610fee575b15610fbf579084849238610ee0565b839085610fd857602491637e27328960e01b8252600452fd5b60449163177e802f60e01b825233600452602452fd5b50338514801561101c575b80610fb05750838152600460205260408120546001600160a01b03163314610fb0565b5084815260056020908152604080832033845290915281205460ff16610ff9565b3d15611068573d9061104e82610e8b565b9161105c6040519384610e53565b82523d6000602084013e565b606090565b6000818152600260205260409020546001600160a01b0316908115611090575090565b637e27328960e01b60005260045260246000fd5b6006546001600160a01b031633036110b857565b63118cdaa760e01b6000523360045260246000fd5b9291813b6110dc575b50505050565b604051630a85bd0160e11b81523360048201526001600160a01b0394851660248201526044810191909152608060648201529216919060209082908190611127906084830190610dc8565b03816000865af1809160009161119e575b5090611169575061114761103d565b805190816111645782633250574960e11b60005260045260246000fd5b602001fd5b6001600160e01b03191663757a42ff60e11b0161118a5750388080806110d6565b633250574960e11b60005260045260246000fd5b6020813d6020116111d9575b816111b760209383610e53565b81010312610a715751906001600160e01b031982168203610a6e575038611138565b3d91506111aa56","linkReferences":{}},"methodIdentifiers":{"MAX_SUPPLY()":"32cb6b0c","MINT_PRICE()":"c002d23d","approve(address,uint256)":"095ea7b3","balanceOf(address)":"70a08231","getApproved(uint256)":"081812fc","isApprovedForAll(address,address)":"e985e9c5","mint()":"1249c58b","name()":"06fdde03","owner()":"8da5cb5b","ownerOf(uint256)":"6352211e","renounceOwnership()":"715018a6","safeTransferFrom(address,address,uint256)":"42842e0e","safeTransferFrom(address,address,uint256,bytes)":"b88d4fde","setApprovalForAll(address,bool)":"a22cb465","supportsInterface(bytes4)":"01ffc9a7","symbol()":"95d89b41","tokenURI(uint256)":"c87b56dd","totalSupply()":"18160ddd","transferFrom(address,address,uint256)":"23b872dd","transferOwnership(address)":"f2fde38b","withdraw()":"3ccfd60b"},"id":0}